{"abi":[{"type":"constructor","inputs":[{"name":"decupAddress","type":"address","internalType":"address"},{"name":"priceFeedAddress","type":"address","internalType":"address"},{"name":"destinationChainIds","type":"uint64[]","internalType":"uint64[]"},{"name":"destinationChainSelectors","type":"uint64[]","internalType":"uint64[]"},{"name":"linkTokens","type":"address[]","internalType":"address[]"},{"name":"routerAddress","type":"address[]","internalType":"address[]"}],"stateMutability":"nonpayable"},{"type":"receive","stateMutability":"payable"},{"type":"function","name":"addChainReceiver","inputs":[{"name":"chainId","type":"uint256","internalType":"uint256"},{"name":"receiverAddress","type":"address","internalType":"address"}],"outputs":[],"stateMutability":"nonpayable"},{"type":"function","name":"balanceOf","inputs":[{"name":"user","type":"address","internalType":"address"}],"outputs":[{"name":"","type":"uint256","internalType":"uint256"}],"stateMutability":"view"},{"type":"function","name":"buy","inputs":[{"name":"saleId","type":"uint256","internalType":"uint256"},{"name":"buyerBeneficiaryAddress","type":"address","internalType":"address"},{"name":"isBurn","type":"bool","internalType":"bool"}],"outputs":[],"stateMutability":"payable"},{"type":"function","name":"buyCrossSale","inputs":[{"name":"saleId","type":"uint256","internalType":"uint256"},{"name":"buyerBeneficiaryAddress","type":"address","internalType":"address"},{"name":"destinationChainId","type":"uint256","internalType":"uint256"},{"name":"isBurn","type":"bool","internalType":"bool"}],"outputs":[],"stateMutability":"payable"},{"type":"function","name":"cancelCrossSale","inputs":[{"name":"destinationChainId","type":"uint256","internalType":"uint256"},{"name":"tokenId","type":"uint256","internalType":"uint256"}],"outputs":[],"stateMutability":"payable"},{"type":"function","name":"cancelSale","inputs":[{"name":"tokenId","type":"uint256","internalType":"uint256"}],"outputs":[],"stateMutability":"nonpayable"},{"type":"function","name":"ccipReceive","inputs":[{"name":"message","type":"tuple","internalType":"struct Client.Any2EVMMessage","components":[{"name":"messageId","type":"bytes32","internalType":"bytes32"},{"name":"sourceChainSelector","type":"uint64","internalType":"uint64"},{"name":"sender","type":"bytes","internalType":"bytes"},{"name":"data","type":"bytes","internalType":"bytes"},{"name":"destTokenAmounts","type":"tuple[]","internalType":"struct Client.EVMTokenAmount[]","components":[{"name":"token","type":"address","internalType":"address"},{"name":"amount","type":"uint256","internalType":"uint256"}]}]}],"outputs":[],"stateMutability":"nonpayable"},{"type":"function","name":"createCrossSale","inputs":[{"name":"tokenId","type":"uint256","internalType":"uint256"},{"name":"beneficiaryAddress","type":"address","internalType":"address"},{"name":"destinationChainId","type":"uint256","internalType":"uint256"},{"name":"priceInUsd","type":"uint256","internalType":"uint256"}],"outputs":[],"stateMutability":"payable"},{"type":"function","name":"createSale","inputs":[{"name":"tokenId","type":"uint256","internalType":"uint256"},{"name":"beneficiaryAddress","type":"address","internalType":"address"}],"outputs":[],"stateMutability":"nonpayable"},{"type":"function","name":"deleteChainReceiver","inputs":[{"name":"chainId","type":"uint256","internalType":"uint256"}],"outputs":[],"stateMutability":"nonpayable"},{"type":"function","name":"disableChain","inputs":[{"name":"chainId","type":"uint256","internalType":"uint256"}],"outputs":[],"stateMutability":"nonpayable"},{"type":"function","name":"enableChain","inputs":[{"name":"chainId","type":"uint256","internalType":"uint256"},{"name":"chainSelector","type":"uint64","internalType":"uint64"},{"name":"linkAddress","type":"address","internalType":"address"},{"name":"receiverAddress","type":"address","internalType":"address"},{"name":"routerAddress","type":"address","internalType":"address"}],"outputs":[],"stateMutability":"nonpayable"},{"type":"function","name":"getCCIPRouter","inputs":[],"outputs":[{"name":"","type":"address","internalType":"address"}],"stateMutability":"view"},{"type":"function","name":"getCcipCollateralInEth","inputs":[],"outputs":[{"name":"","type":"uint256","internalType":"uint256"}],"stateMutability":"view"},{"type":"function","name":"getCcipCollateralInUsd","inputs":[],"outputs":[{"name":"","type":"uint256","internalType":"uint256"}],"stateMutability":"view"},{"type":"function","name":"getChainSelector","inputs":[{"name":"chainId","type":"uint256","internalType":"uint256"}],"outputs":[{"name":"","type":"uint64","internalType":"uint64"}],"stateMutability":"view"},{"type":"function","name":"getDeCupAddress","inputs":[],"outputs":[{"name":"","type":"address","internalType":"address"}],"stateMutability":"view"},{"type":"function","name":"getEthUsdPrice","inputs":[],"outputs":[{"name":"","type":"uint256","internalType":"uint256"}],"stateMutability":"view"},{"type":"function","name":"getLinkAddress","inputs":[{"name":"chainId","type":"uint256","internalType":"uint256"}],"outputs":[{"name":"","type":"address","internalType":"address"}],"stateMutability":"view"},{"type":"function","name":"getPriceFeedAddress","inputs":[],"outputs":[{"name":"","type":"address","internalType":"address"}],"stateMutability":"view"},{"type":"function","name":"getPriceInETH","inputs":[{"name":"priceInUSD","type":"uint256","internalType":"uint256"}],"outputs":[{"name":"","type":"uint256","internalType":"uint256"}],"stateMutability":"view"},{"type":"function","name":"getPriceInETHIncludingCollateral","inputs":[{"name":"priceInUSD","type":"uint256","internalType":"uint256"}],"outputs":[{"name":"","type":"uint256","internalType":"uint256"}],"stateMutability":"view"},{"type":"function","name":"getPriceInUsd","inputs":[{"name":"priceInETH","type":"uint256","internalType":"uint256"}],"outputs":[{"name":"","type":"uint256","internalType":"uint256"}],"stateMutability":"view"},{"type":"function","name":"getReceiverAddress","inputs":[{"name":"chainId","type":"uint256","internalType":"uint256"}],"outputs":[{"name":"","type":"address","internalType":"address"}],"stateMutability":"view"},{"type":"function","name":"getRouter","inputs":[],"outputs":[{"name":"","type":"address","internalType":"address"}],"stateMutability":"view"},{"type":"function","name":"getRouterAddress","inputs":[{"name":"chainId","type":"uint256","internalType":"uint256"}],"outputs":[{"name":"","type":"address","internalType":"address"}],"stateMutability":"view"},{"type":"function","name":"getSaleCounter","inputs":[],"outputs":[{"name":"","type":"uint256","internalType":"uint256"}],"stateMutability":"view"},{"type":"function","name":"getSaleIdByTokenId","inputs":[{"name":"chainId","type":"uint256","internalType":"uint256"},{"name":"tokenId","type":"uint256","internalType":"uint256"}],"outputs":[{"name":"","type":"uint256","internalType":"uint256"}],"stateMutability":"view"},{"type":"function","name":"getSaleOrder","inputs":[{"name":"chainId","type":"uint256","internalType":"uint256"},{"name":"saleId","type":"uint256","internalType":"uint256"}],"outputs":[{"name":"","type":"tuple","internalType":"struct DeCupManager.Order","components":[{"name":"tokenId","type":"uint256","internalType":"uint256"},{"name":"sellerAddress","type":"address","internalType":"address"},{"name":"beneficiaryAddress","type":"address","internalType":"address"},{"name":"chainId","type":"uint256","internalType":"uint256"},{"name":"priceInUsd","type":"uint256","internalType":"uint256"},{"name":"assetsInfo","type":"string[]","internalType":"string[]"}]}],"stateMutability":"view"},{"type":"function","name":"getSaleOwner","inputs":[{"name":"saleId","type":"uint256","internalType":"uint256"},{"name":"chainId","type":"uint256","internalType":"uint256"}],"outputs":[{"name":"","type":"address","internalType":"address"}],"stateMutability":"view"},{"type":"function","name":"owner","inputs":[],"outputs":[{"name":"","type":"address","internalType":"address"}],"stateMutability":"view"},{"type":"function","name":"renounceOwnership","inputs":[],"outputs":[],"stateMutability":"nonpayable"},{"type":"function","name":"setCcipCollateral","inputs":[{"name":"amount","type":"uint256","internalType":"uint256"}],"outputs":[],"stateMutability":"nonpayable"},{"type":"function","name":"supportsInterface","inputs":[{"name":"interfaceId","type":"bytes4","internalType":"bytes4"}],"outputs":[{"name":"","type":"bool","internalType":"bool"}],"stateMutability":"view"},{"type":"function","name":"transferOwnership","inputs":[{"name":"newOwner","type":"address","internalType":"address"}],"outputs":[],"stateMutability":"nonpayable"},{"type":"function","name":"transferOwnershipOfDeCup","inputs":[{"name":"newOwner","type":"address","internalType":"address"}],"outputs":[],"stateMutability":"nonpayable"},{"type":"function","name":"withdrawFunds","inputs":[],"outputs":[],"stateMutability":"nonpayable"},{"type":"event","name":"Buy","inputs":[{"name":"saleId","type":"uint256","indexed":true,"internalType":"uint256"},{"name":"buyerAddress","type":"address","indexed":true,"internalType":"address"},{"name":"amountPaied","type":"uint256","indexed":false,"internalType":"uint256"}],"anonymous":false},{"type":"event","name":"BuyCrossSale","inputs":[{"name":"saleId","type":"uint256","indexed":true,"internalType":"uint256"},{"name":"buyerAddress","type":"address","indexed":true,"internalType":"address"},{"name":"amountPaied","type":"uint256","indexed":false,"internalType":"uint256"},{"name":"sellerAddress","type":"address","indexed":true,"internalType":"address"}],"anonymous":false},{"type":"event","name":"CancelCrossSale","inputs":[{"name":"tokenId","type":"uint256","indexed":true,"internalType":"uint256"}],"anonymous":false},{"type":"event","name":"CancelSale","inputs":[{"name":"saleId","type":"uint256","indexed":true,"internalType":"uint256"}],"anonymous":false},{"type":"event","name":"CcipCollateralSet","inputs":[{"name":"amount","type":"uint256","indexed":false,"internalType":"uint256"}],"anonymous":false},{"type":"event","name":"ChainDisabled","inputs":[{"name":"chainId","type":"uint256","indexed":true,"internalType":"uint256"}],"anonymous":false},{"type":"event","name":"ChainEnabled","inputs":[{"name":"chainId","type":"uint256","indexed":true,"internalType":"uint256"},{"name":"chainSelector","type":"uint64","indexed":false,"internalType":"uint64"},{"name":"linkAddress","type":"address","indexed":false,"internalType":"address"},{"name":"receiverAddress","type":"address","indexed":false,"internalType":"address"},{"name":"routerAddress","type":"address","indexed":false,"internalType":"address"}],"anonymous":false},{"type":"event","name":"ChainReceiverAdded","inputs":[{"name":"chainId","type":"uint256","indexed":true,"internalType":"uint256"},{"name":"receiverAddress","type":"address","indexed":true,"internalType":"address"}],"anonymous":false},{"type":"event","name":"ChainReceiverDeleted","inputs":[{"name":"chainId","type":"uint256","indexed":true,"internalType":"uint256"}],"anonymous":false},{"type":"event","name":"CreateCrossSale","inputs":[{"name":"tokenId","type":"uint256","indexed":true,"internalType":"uint256"},{"name":"sellerAddress","type":"address","indexed":true,"internalType":"address"},{"name":"sourceChainId","type":"uint256","indexed":false,"internalType":"uint256"},{"name":"destinationChainId","type":"uint256","indexed":false,"internalType":"uint256"},{"name":"priceInUsd","type":"uint256","indexed":false,"internalType":"uint256"}],"anonymous":false},{"type":"event","name":"CreateSale","inputs":[{"name":"saleId","type":"uint256","indexed":true,"internalType":"uint256"},{"name":"tokenId","type":"uint256","indexed":true,"internalType":"uint256"},{"name":"sellerAddress","type":"address","indexed":true,"internalType":"address"},{"name":"sourceChainId","type":"uint256","indexed":false,"internalType":"uint256"},{"name":"destinationChainId","type":"uint256","indexed":false,"internalType":"uint256"},{"name":"priceInUsd","type":"uint256","indexed":false,"internalType":"uint256"}],"anonymous":false},{"type":"event","name":"CrossChainDataReceived","inputs":[{"name":"action","type":"uint8","indexed":false,"internalType":"enum DeCupManager.CrossChainAction"},{"name":"saleId","type":"uint256","indexed":false,"internalType":"uint256"},{"name":"tokenId","type":"uint256","indexed":false,"internalType":"uint256"},{"name":"sellerAddress","type":"address","indexed":false,"internalType":"address"},{"name":"beneficiaryAddress","type":"address","indexed":false,"internalType":"address"},{"name":"chainId","type":"uint256","indexed":false,"internalType":"uint256"},{"name":"buyerAddress","type":"address","indexed":false,"internalType":"address"},{"name":"isBurn","type":"bool","indexed":false,"internalType":"bool"},{"name":"priceInUsd","type":"uint256","indexed":false,"internalType":"uint256"}],"anonymous":false},{"type":"event","name":"CrossChainDataSent","inputs":[{"name":"action","type":"uint8","indexed":false,"internalType":"enum DeCupManager.CrossChainAction"},{"name":"saleId","type":"uint256","indexed":false,"internalType":"uint256"},{"name":"tokenId","type":"uint256","indexed":false,"internalType":"uint256"},{"name":"sellerAddress","type":"address","indexed":false,"internalType":"address"},{"name":"beneficiaryAddress","type":"address","indexed":false,"internalType":"address"},{"name":"chainId","type":"uint256","indexed":false,"internalType":"uint256"},{"name":"buyerAddress","type":"address","indexed":false,"internalType":"address"},{"name":"isBurn","type":"bool","indexed":false,"internalType":"bool"},{"name":"priceInUsd","type":"uint256","indexed":false,"internalType":"uint256"}],"anonymous":false},{"type":"event","name":"CrossChainReceived","inputs":[{"name":"messageId","type":"bytes32","indexed":false,"internalType":"bytes32"},{"name":"sourceChainSelector","type":"uint64","indexed":false,"internalType":"uint64"},{"name":"destinationChainSelector","type":"uint64","indexed":false,"internalType":"uint64"}],"anonymous":false},{"type":"event","name":"CrossChainSent","inputs":[{"name":"messageId","type":"bytes32","indexed":false,"internalType":"bytes32"},{"name":"sourceChainSelector","type":"uint64","indexed":false,"internalType":"uint64"},{"name":"destinationChainSelector","type":"uint64","indexed":false,"internalType":"uint64"}],"anonymous":false},{"type":"event","name":"DeCupOwnershipTransferred","inputs":[{"name":"previousOwner","type":"address","indexed":true,"internalType":"address"},{"name":"newOwner","type":"address","indexed":true,"internalType":"address"}],"anonymous":false},{"type":"event","name":"Deposit","inputs":[{"name":"user","type":"address","indexed":true,"internalType":"address"},{"name":"amount","type":"uint256","indexed":false,"internalType":"uint256"}],"anonymous":false},{"type":"event","name":"OwnershipTransferred","inputs":[{"name":"previousOwner","type":"address","indexed":true,"internalType":"address"},{"name":"newOwner","type":"address","indexed":true,"internalType":"address"}],"anonymous":false},{"type":"event","name":"SaleDeleted","inputs":[{"name":"saleId","type":"uint256","indexed":true,"internalType":"uint256"},{"name":"tokenId","type":"uint256","indexed":true,"internalType":"uint256"}],"anonymous":false},{"type":"event","name":"Withdraw","inputs":[{"name":"user","type":"address","indexed":true,"internalType":"address"},{"name":"amount","type":"uint256","indexed":false,"internalType":"uint256"}],"anonymous":false},{"type":"error","name":"DeCupManager__InsufficientETH","inputs":[]},{"type":"error","name":"DeCupManager__InsufficientFunds","inputs":[]},{"type":"error","name":"DeCupManager__InvalidAction","inputs":[]},{"type":"error","name":"DeCupManager__InvalidRouter","inputs":[{"name":"","type":"address","internalType":"address"},{"name":"","type":"uint256","internalType":"uint256"}]},{"type":"error","name":"DeCupManager__MoreThanZero","inputs":[]},{"type":"error","name":"DeCupManager__NotOwner","inputs":[]},{"type":"error","name":"DeCupManager__NotRouter","inputs":[]},{"type":"error","name":"DeCupManager__NotTokenOwner","inputs":[]},{"type":"error","name":"DeCupManager__SaleNotFound","inputs":[]},{"type":"error","name":"DeCupManager__TokenListedForSale","inputs":[]},{"type":"error","name":"DeCupManager__TokenNotListedForSale","inputs":[]},{"type":"error","name":"DeCupManager__TransferFailed","inputs":[]},{"type":"error","name":"InvalidRouter","inputs":[{"name":"router","type":"address","internalType":"address"}]},{"type":"error","name":"OwnableInvalidOwner","inputs":[{"name":"owner","type":"address","internalType":"address"}]},{"type":"error","name":"OwnableUnauthorizedAccount","inputs":[{"name":"account","type":"address","internalType":"address"}]},{"type":"error","name":"ReentrancyGuardReentrantCall","inputs":[]}],"bytecode":{"object":"0x60e06040525f60065f6101000a81548160ff02191690836001811115610028576100276105d8565b5b0217905550348015610038575f5ffd5b506040516167a23803806167a2833981810160405281019061005a91906108bd565b62aa36a746146100855780600181518110610078576100776109b6565b5b60200260200101516100a1565b805f81518110610098576100976109b6565b5b60200260200101515b335f73ffffffffffffffffffffffffffffffffffffffff168173ffffffffffffffffffffffffffffffffffffffff1603610112575f6040517f1e4fbdf700000000000000000000000000000000000000000000000000000000815260040161010991906109f2565b60405180910390fd5b6101218161051760201b60201c565b505f73ffffffffffffffffffffffffffffffffffffffff168173ffffffffffffffffffffffffffffffffffffffff1603610192575f6040517fd7f7333400000000000000000000000000000000000000000000000000000000815260040161018991906109f2565b60405180910390fd5b8073ffffffffffffffffffffffffffffffffffffffff1660808173ffffffffffffffffffffffffffffffffffffffff168152505050600180819055508560025f6101000a81548173ffffffffffffffffffffffffffffffffffffffff021916908373ffffffffffffffffffffffffffffffffffffffff1602179055508460045f6101000a81548173ffffffffffffffffffffffffffffffffffffffff021916908373ffffffffffffffffffffffffffffffffffffffff160217905550631dcd65006003819055505f5f90505b84518110156104035783818151811061027a576102796109b6565b5b602002602001015160095f878481518110610298576102976109b6565b5b602002602001015167ffffffffffffffff1681526020019081526020015f205f6101000a81548167ffffffffffffffff021916908367ffffffffffffffff1602179055508281815181106102ef576102ee6109b6565b5b6020026020010151600a5f87848151811061030d5761030c6109b6565b5b602002602001015167ffffffffffffffff1681526020019081526020015f205f6101000a81548173ffffffffffffffffffffffffffffffffffffffff021916908373ffffffffffffffffffffffffffffffffffffffff16021790555081818151811061037c5761037b6109b6565b5b6020026020010151600c5f87848151811061039a576103996109b6565b5b602002602001015167ffffffffffffffff1681526020019081526020015f205f6101000a81548173ffffffffffffffffffffffffffffffffffffffff021916908373ffffffffffffffffffffffffffffffffffffffff160217905550808060010191505061025e565b50600c5f4681526020019081526020015f205f9054906101000a900473ffffffffffffffffffffffffffffffffffffffff1673ffffffffffffffffffffffffffffffffffffffff1660808173ffffffffffffffffffffffffffffffffffffffff1681525050600a5f4681526020019081526020015f205f9054906101000a900473ffffffffffffffffffffffffffffffffffffffff1673ffffffffffffffffffffffffffffffffffffffff1660a08173ffffffffffffffffffffffffffffffffffffffff168152505060095f4681526020019081526020015f205f9054906101000a900467ffffffffffffffff1667ffffffffffffffff1660c08167ffffffffffffffff1681525050505050505050610a0b565b5f5f5f9054906101000a900473ffffffffffffffffffffffffffffffffffffffff169050815f5f6101000a81548173ffffffffffffffffffffffffffffffffffffffff021916908373ffffffffffffffffffffffffffffffffffffffff1602179055508173ffffffffffffffffffffffffffffffffffffffff168173ffffffffffffffffffffffffffffffffffffffff167f8be0079c531659141344cd1fd0a4f28419497f9722a3daafe3b4186f6b6457e060405160405180910390a35050565b7f4e487b71000000000000000000000000000000000000000000000000000000005f52602160045260245ffd5b5f604051905090565b5f5ffd5b5f5ffd5b5f73ffffffffffffffffffffffffffffffffffffffff82169050919050565b5f61063f82610616565b9050919050565b61064f81610635565b8114610659575f5ffd5b50565b5f8151905061066a81610646565b92915050565b5f5ffd5b5f601f19601f8301169050919050565b7f4e487b71000000000000000000000000000000000000000000000000000000005f52604160045260245ffd5b6106ba82610674565b810181811067ffffffffffffffff821117156106d9576106d8610684565b5b80604052505050565b5f6106eb610605565b90506106f782826106b1565b919050565b5f67ffffffffffffffff82111561071657610715610684565b5b602082029050602081019050919050565b5f5ffd5b5f67ffffffffffffffff82169050919050565b6107478161072b565b8114610751575f5ffd5b50565b5f815190506107628161073e565b92915050565b5f61077a610775846106fc565b6106e2565b9050808382526020820190506020840283018581111561079d5761079c610727565b5b835b818110156107c657806107b28882610754565b84526020840193505060208101905061079f565b5050509392505050565b5f82601f8301126107e4576107e3610670565b5b81516107f4848260208601610768565b91505092915050565b5f67ffffffffffffffff82111561081757610816610684565b5b602082029050602081019050919050565b5f61083a610835846107fd565b6106e2565b9050808382526020820190506020840283018581111561085d5761085c610727565b5b835b818110156108865780610872888261065c565b84526020840193505060208101905061085f565b5050509392505050565b5f82601f8301126108a4576108a3610670565b5b81516108b4848260208601610828565b91505092915050565b5f5f5f5f5f5f60c087890312156108d7576108d661060e565b5b5f6108e489828a0161065c565b96505060206108f589828a0161065c565b955050604087015167ffffffffffffffff81111561091657610915610612565b5b61092289828a016107d0565b945050606087015167ffffffffffffffff81111561094357610942610612565b5b61094f89828a016107d0565b935050608087015167ffffffffffffffff8111156109705761096f610612565b5b61097c89828a01610890565b92505060a087015167ffffffffffffffff81111561099d5761099c610612565b5b6109a989828a01610890565b9150509295509295509295565b7f4e487b71000000000000000000000000000000000000000000000000000000005f52603260045260245ffd5b6109ec81610635565b82525050565b5f602082019050610a055f8301846109e3565b92915050565b60805160a05160c051615d6c610a365f395f50505f50505f8181611d0801526128ca0152615d6c5ff3fe60806040526004361061021d575f3560e01c8063715018a61161012257806395f738e0116100aa578063b989733e1161006e578063b989733e1461080e578063bd94b0051461082a578063ebc2527e14610852578063f2fde38b1461088e578063feae6d3b146108b657610278565b806395f738e01461072c578063a0a8045e14610754578063b07dc25d1461077e578063b0f479a1146107ba578063b412d0bc146107e457610278565b806385572ffb116100f157806385572ffb1461064e57806386f7df7d146106765780638da5cb5b1461069e5780638f97a7c9146106c857806392e2106f146106f057610278565b8063715018a6146105a457806371ef4db5146105ba5780637ad157b9146105f65780638265809b1461061257610278565b806333e67012116101a557806348437e541161017457806348437e541461049e5780634b473a42146104da578063588cbd0e146105025780636b0b9b141461052c57806370a082311461056857610278565b806333e6701214610406578063368d2fb71461042e57806344353b591461044a578063474c43f51461047457610278565b806318e45b1f116101ec57806318e45b1f1461033a578063199dfcf9146103625780631bfc8a551461038a57806324600fc3146103c65780632f06c7d5146103dc57610278565b806301ffc9a71461027c5780630441b220146102b85780630f0f30b2146102f45780631638c0b51461031e57610278565b3661027857345f810361025c576040517fd81137a200000000000000000000000000000000000000000000000000000000815260040160405180910390fd5b6102646108f2565b61026e3334610938565b6102766109dd565b005b5f5ffd5b348015610287575f5ffd5b506102a2600480360381019061029d9190614448565b6109e6565b6040516102af919061448d565b60405180910390f35b3480156102c3575f5ffd5b506102de60048036038101906102d991906144d9565b610ab7565b6040516102eb9190614513565b60405180910390f35b3480156102ff575f5ffd5b50610308610aea565b604051610315919061456b565b60405180910390f35b610338600480360381019061033391906145d8565b610b12565b005b348015610345575f5ffd5b50610360600480360381019061035b919061463c565b610fc2565b005b34801561036d575f5ffd5b50610388600480360381019061038391906144d9565b611372565b005b348015610395575f5ffd5b506103b060048036038101906103ab91906144d9565b6113ed565b6040516103bd9190614513565b60405180910390f35b3480156103d1575f5ffd5b506103da611420565b005b3480156103e7575f5ffd5b506103f0611557565b6040516103fd9190614513565b60405180910390f35b348015610411575f5ffd5b5061042c600480360381019061042791906144d9565b611560565b005b6104486004803603810190610443919061467a565b611668565b005b348015610455575f5ffd5b5061045e611b12565b60405161046b919061456b565b60405180910390f35b34801561047f575f5ffd5b50610488611b3a565b6040516104959190614513565b60405180910390f35b3480156104a9575f5ffd5b506104c460048036038101906104bf91906144d9565b611b4b565b6040516104d1919061456b565b60405180910390f35b3480156104e5575f5ffd5b5061050060048036038101906104fb919061471b565b611b84565b005b34801561050d575f5ffd5b50610516611d05565b604051610523919061456b565b60405180910390f35b348015610537575f5ffd5b50610552600480360381019061054d9190614792565b611d2c565b60405161055f919061499f565b60405180910390f35b348015610573575f5ffd5b5061058e600480360381019061058991906149bf565b611f02565b60405161059b9190614513565b60405180910390f35b3480156105af575f5ffd5b506105b8611f48565b005b3480156105c5575f5ffd5b506105e060048036038101906105db9190614792565b611f5b565b6040516105ed9190614513565b60405180910390f35b610610600480360381019061060b91906149ea565b611f85565b005b34801561061d575f5ffd5b5061063860048036038101906106339190614792565b6124d3565b604051610645919061456b565b60405180910390f35b348015610659575f5ffd5b50610674600480360381019061066f9190614d8f565b61251f565b005b348015610681575f5ffd5b5061069c6004803603810190610697919061463c565b6125b2565b005b3480156106a9575f5ffd5b506106b2612661565b6040516106bf919061456b565b60405180910390f35b3480156106d3575f5ffd5b506106ee60048036038101906106e991906149bf565b612688565b005b3480156106fb575f5ffd5b50610716600480360381019061071191906144d9565b612774565b6040516107239190614de5565b60405180910390f35b348015610737575f5ffd5b50610752600480360381019061074d91906144d9565b6127a1565b005b34801561075f575f5ffd5b506107686127fa565b6040516107759190614513565b60405180910390f35b348015610789575f5ffd5b506107a4600480360381019061079f91906144d9565b61289c565b6040516107b19190614513565b60405180910390f35b3480156107c5575f5ffd5b506107ce6128c7565b6040516107db919061456b565b60405180910390f35b3480156107ef575f5ffd5b506107f86128ee565b6040516108059190614513565b60405180910390f35b61082860048036038101906108239190614792565b6128f7565b005b348015610835575f5ffd5b50610850600480360381019061084b91906144d9565b612c1a565b005b34801561085d575f5ffd5b50610878600480360381019061087391906144d9565b612fec565b604051610885919061456b565b60405180910390f35b348015610899575f5ffd5b506108b460048036038101906108af91906149bf565b613025565b005b3480156108c1575f5ffd5b506108dc60048036038101906108d791906144d9565b6130a9565b6040516108e9919061456b565b60405180910390f35b60026001540361092e576040517f3ee5aeb500000000000000000000000000000000000000000000000000000000815260040160405180910390fd5b6002600181905550565b8060075f8473ffffffffffffffffffffffffffffffffffffffff1673ffffffffffffffffffffffffffffffffffffffff1681526020019081526020015f205f8282546109849190614e2b565b925050819055508173ffffffffffffffffffffffffffffffffffffffff167fe1fffcc4923d04b559f4d29a8bfc6cda04eb5b0d3c460751c2402c5c5cc9109c826040516109d19190614513565b60405180910390a25050565b60018081905550565b5f7f85572ffb000000000000000000000000000000000000000000000000000000007bffffffffffffffffffffffffffffffffffffffffffffffffffffffff1916827bffffffffffffffffffffffffffffffffffffffffffffffffffffffff19161480610ab057507f01ffc9a7000000000000000000000000000000000000000000000000000000007bffffffffffffffffffffffffffffffffffffffffffffffffffffffff1916827bffffffffffffffffffffffffffffffffffffffffffffffffffffffff1916145b9050919050565b5f5f610ac16127fa565b670de0b6b3a764000084610ad59190614e5e565b610adf9190614ecc565b905080915050919050565b5f60045f9054906101000a900473ffffffffffffffffffffffffffffffffffffffff16905090565b610b1a6108f2565b5f60085f8481526020019081526020015f205f8681526020019081526020015f206040518060c00160405290815f8201548152602001600182015f9054906101000a900473ffffffffffffffffffffffffffffffffffffffff1673ffffffffffffffffffffffffffffffffffffffff1673ffffffffffffffffffffffffffffffffffffffff168152602001600282015f9054906101000a900473ffffffffffffffffffffffffffffffffffffffff1673ffffffffffffffffffffffffffffffffffffffff1673ffffffffffffffffffffffffffffffffffffffff168152602001600382015481526020016004820154815260200160058201805480602002602001604051908101604052809291908181526020015f905b82821015610cd9578382905f5260205f20018054610c4e90614f29565b80601f0160208091040260200160405190810160405280929190818152602001828054610c7a90614f29565b8015610cc55780601f10610c9c57610100808354040283529160200191610cc5565b820191905f5260205f20905b815481529060010190602001808311610ca857829003601f168201915b505050505081526020019060010190610c31565b505050508152505090505f610cef600354610ab7565b90505f610cff8360800151610ab7565b90508181610d0d9190614e2b565b341015610d46576040517f412ec26600000000000000000000000000000000000000000000000000000000815260040160405180910390fd5b826040015173ffffffffffffffffffffffffffffffffffffffff163373ffffffffffffffffffffffffffffffffffffffff16887f5d4ef204a82e5a2794239b1556edc7237f1376964ec4b3d717fab786106e681834604051610da89190614513565b60405180910390a4825f0151877fd31715670b013aa9eab6ed5fcc44a002d79ec0e50400958949be55711f898b7860405160405180910390a35f8234610dee9190614f59565b90505f839050610e02856040015183610938565b610e0c3382610938565b5f610e16346113ed565b905060085f8981526020019081526020015f205f8b81526020019081526020015f205f5f82015f9055600182015f6101000a81549073ffffffffffffffffffffffffffffffffffffffff0219169055600282015f6101000a81549073ffffffffffffffffffffffffffffffffffffffff0219169055600382015f9055600482015f9055600582015f610ea89190614267565b5050600d5f8981526020019081526020015f205f875f015181526020019081526020015f205f90555f6040518060c00160405280600280811115610eef57610eee614f8c565b5b81526020018c81526020018b73ffffffffffffffffffffffffffffffffffffffff16815260200189151581526020018881526020018381525090507fc136c93abf788d70c05a4b0579ac7f54bebc39f1599174dd7ea4051b98213d86815f0151826020015183608001515f0151846080015160200151856080015160400151866080015160600151876040015188606001518960a00151604051610f9b99989796959493929190614fff565b60405180910390a1610fad89826130e2565b50505050505050610fbc6109dd565b50505050565b610fca6108f2565b60025f9054906101000a900473ffffffffffffffffffffffffffffffffffffffff1673ffffffffffffffffffffffffffffffffffffffff166391041959836040518263ffffffff1660e01b81526004016110249190614513565b602060405180830381865afa15801561103f573d5f5f3e3d5ffd5b505050506040513d601f19601f82011682018060405250810190611063919061509e565b1561109a576040517fe3af9e1600000000000000000000000000000000000000000000000000000000815260040160405180910390fd5b3373ffffffffffffffffffffffffffffffffffffffff1660025f9054906101000a900473ffffffffffffffffffffffffffffffffffffffff1673ffffffffffffffffffffffffffffffffffffffff16636352211e846040518263ffffffff1660e01b815260040161110b9190614513565b602060405180830381865afa158015611126573d5f5f3e3d5ffd5b505050506040513d601f19601f8201168201806040525081019061114a91906150dd565b73ffffffffffffffffffffffffffffffffffffffff1614611197576040517f580c755900000000000000000000000000000000000000000000000000000000815260040160405180910390fd5b5f60025f9054906101000a900473ffffffffffffffffffffffffffffffffffffffff1673ffffffffffffffffffffffffffffffffffffffff1663900472e5846040518263ffffffff1660e01b81526004016111f29190614513565b5f60405180830381865afa15801561120c573d5f5f3e3d5ffd5b505050506040513d5f823e3d601f19601f820116820180604052508101906112349190615284565b90506112dc8333844660025f9054906101000a900473ffffffffffffffffffffffffffffffffffffffff1673ffffffffffffffffffffffffffffffffffffffff1663fdcd8d3a896040518263ffffffff1660e01b81526004016112979190614513565b602060405180830381865afa1580156112b2573d5f5f3e3d5ffd5b505050506040513d601f19601f820116820180604052508101906112d691906152df565b866134f2565b60025f9054906101000a900473ffffffffffffffffffffffffffffffffffffffff1673ffffffffffffffffffffffffffffffffffffffff1663e80d7fec84466040518363ffffffff1660e01b815260040161133892919061530a565b5f604051808303815f87803b15801561134f575f5ffd5b505af1158015611361573d5f5f3e3d5ffd5b505050505061136e6109dd565b5050565b61137a6136d7565b6113826108f2565b600b5f8281526020019081526020015f205f6101000a81549073ffffffffffffffffffffffffffffffffffffffff0219169055807f39cbf56bb3fcd0bb78fef69f1b9b46257c6a4cfbf42bba54a1b9affdfc37f48360405160405180910390a26113ea6109dd565b50565b5f5f670de0b6b3a76400006114006127fa565b8461140b9190614e5e565b6114159190614ecc565b905080915050919050565b6114286108f2565b5f60075f3373ffffffffffffffffffffffffffffffffffffffff1673ffffffffffffffffffffffffffffffffffffffff1681526020019081526020015f205490505f81036114a2576040517f2849d15300000000000000000000000000000000000000000000000000000000815260040160405180910390fd5b6114ac338261375e565b5f3373ffffffffffffffffffffffffffffffffffffffff16476040516114d19061535e565b5f6040518083038185875af1925050503d805f811461150b576040519150601f19603f3d011682016040523d82523d5f602084013e611510565b606091505b505090508061154b576040517f3d33d02000000000000000000000000000000000000000000000000000000000815260040160405180910390fd5b50506115556109dd565b565b5f600554905090565b6115686136d7565b6115706108f2565b60095f8281526020019081526020015f205f6101000a81549067ffffffffffffffff0219169055600a5f8281526020019081526020015f205f6101000a81549073ffffffffffffffffffffffffffffffffffffffff0219169055600b5f8281526020019081526020015f205f6101000a81549073ffffffffffffffffffffffffffffffffffffffff0219169055600c5f8281526020019081526020015f205f6101000a81549073ffffffffffffffffffffffffffffffffffffffff0219169055807f6f16a56a321422b0943f17444e22842443899035391e47e74fd2eae02f1070d960405160405180910390a26116656109dd565b50565b345f81036116a2576040517fd81137a200000000000000000000000000000000000000000000000000000000815260040160405180910390fd5b6116aa6108f2565b5f6116b6600354610ab7565b9050803410156116f2576040517f412ec26600000000000000000000000000000000000000000000000000000000815260040160405180910390fd5b60025f9054906101000a900473ffffffffffffffffffffffffffffffffffffffff1673ffffffffffffffffffffffffffffffffffffffff166391041959876040518263ffffffff1660e01b815260040161174c9190614513565b602060405180830381865afa158015611767573d5f5f3e3d5ffd5b505050506040513d601f19601f8201168201806040525081019061178b919061509e565b156117c2576040517fe3af9e1600000000000000000000000000000000000000000000000000000000815260040160405180910390fd5b3373ffffffffffffffffffffffffffffffffffffffff1660025f9054906101000a900473ffffffffffffffffffffffffffffffffffffffff1673ffffffffffffffffffffffffffffffffffffffff16636352211e886040518263ffffffff1660e01b81526004016118339190614513565b602060405180830381865afa15801561184e573d5f5f3e3d5ffd5b505050506040513d601f19601f8201168201806040525081019061187291906150dd565b73ffffffffffffffffffffffffffffffffffffffff16146118bf576040517f580c755900000000000000000000000000000000000000000000000000000000815260040160405180910390fd5b6118c93334610938565b3373ffffffffffffffffffffffffffffffffffffffff16867f97cd4fb3e66398f066bd26c867b8a454bee3e3457f68fbd350bf657b4d9013f946878760405161191493929190615372565b60405180910390a360025f9054906101000a900473ffffffffffffffffffffffffffffffffffffffff1673ffffffffffffffffffffffffffffffffffffffff1663e80d7fec87866040518363ffffffff1660e01b815260040161197892919061530a565b5f604051808303815f87803b15801561198f575f5ffd5b505af11580156119a1573d5f5f3e3d5ffd5b505050505f60025f9054906101000a900473ffffffffffffffffffffffffffffffffffffffff1673ffffffffffffffffffffffffffffffffffffffff1663900472e5886040518263ffffffff1660e01b8152600401611a009190614513565b5f60405180830381865afa158015611a1a573d5f5f3e3d5ffd5b505050506040513d5f823e3d601f19601f82011682018060405250810190611a429190615284565b90505f6040518060c001604052805f6002811115611a6357611a62614f8c565b5b81526020015f81526020015f73ffffffffffffffffffffffffffffffffffffffff1681526020015f151581526020016040518060c001604052808b81526020013373ffffffffffffffffffffffffffffffffffffffff1681526020018a73ffffffffffffffffffffffffffffffffffffffff1681526020014681526020018881526020018581525081526020015f8152509050611b0086826130e2565b505050611b0b6109dd565b5050505050565b5f60025f9054906101000a900473ffffffffffffffffffffffffffffffffffffffff16905090565b5f611b46600354610ab7565b905090565b5f600a5f8381526020019081526020015f205f9054906101000a900473ffffffffffffffffffffffffffffffffffffffff169050919050565b611b8c6136d7565b611b946108f2565b8360095f8781526020019081526020015f205f6101000a81548167ffffffffffffffff021916908367ffffffffffffffff16021790555082600a5f8781526020019081526020015f205f6101000a81548173ffffffffffffffffffffffffffffffffffffffff021916908373ffffffffffffffffffffffffffffffffffffffff16021790555081600b5f8781526020019081526020015f205f6101000a81548173ffffffffffffffffffffffffffffffffffffffff021916908373ffffffffffffffffffffffffffffffffffffffff16021790555080600c5f8781526020019081526020015f205f6101000a81548173ffffffffffffffffffffffffffffffffffffffff021916908373ffffffffffffffffffffffffffffffffffffffff160217905550847ff47d46341715486739e63bb1e5e8aee041c4d7fa7e33bc16694051f958c36ee485858585604051611cee94939291906153a7565b60405180910390a2611cfe6109dd565b5050505050565b5f7f0000000000000000000000000000000000000000000000000000000000000000905090565b611d34614285565b60085f8481526020019081526020015f205f8381526020019081526020015f206040518060c00160405290815f8201548152602001600182015f9054906101000a900473ffffffffffffffffffffffffffffffffffffffff1673ffffffffffffffffffffffffffffffffffffffff1673ffffffffffffffffffffffffffffffffffffffff168152602001600282015f9054906101000a900473ffffffffffffffffffffffffffffffffffffffff1673ffffffffffffffffffffffffffffffffffffffff1673ffffffffffffffffffffffffffffffffffffffff168152602001600382015481526020016004820154815260200160058201805480602002602001604051908101604052809291908181526020015f905b82821015611ef2578382905f5260205f20018054611e6790614f29565b80601f0160208091040260200160405190810160405280929190818152602001828054611e9390614f29565b8015611ede5780601f10611eb557610100808354040283529160200191611ede565b820191905f5260205f20905b815481529060010190602001808311611ec157829003601f168201915b505050505081526020019060010190611e4a565b5050505081525050905092915050565b5f60075f8373ffffffffffffffffffffffffffffffffffffffff1673ffffffffffffffffffffffffffffffffffffffff1681526020019081526020015f20549050919050565b611f506136d7565b611f595f613803565b565b5f600d5f8481526020019081526020015f205f8381526020019081526020015f2054905092915050565b611f8d6108f2565b5f60085f4681526020019081526020015f205f8581526020019081526020015f206040518060c00160405290815f8201548152602001600182015f9054906101000a900473ffffffffffffffffffffffffffffffffffffffff1673ffffffffffffffffffffffffffffffffffffffff1673ffffffffffffffffffffffffffffffffffffffff168152602001600282015f9054906101000a900473ffffffffffffffffffffffffffffffffffffffff1673ffffffffffffffffffffffffffffffffffffffff1673ffffffffffffffffffffffffffffffffffffffff168152602001600382015481526020016004820154815260200160058201805480602002602001604051908101604052809291908181526020015f905b8282101561214c578382905f5260205f200180546120c190614f29565b80601f01602080910402602001604051908101604052809291908181526020018280546120ed90614f29565b80156121385780601f1061210f57610100808354040283529160200191612138565b820191905f5260205f20905b81548152906001019060200180831161211b57829003601f168201915b5050505050815260200190600101906120a4565b505050508152505090505f73ffffffffffffffffffffffffffffffffffffffff16816020015173ffffffffffffffffffffffffffffffffffffffff16036121bf576040517f2366d0aa00000000000000000000000000000000000000000000000000000000815260040160405180910390fd5b5f815f0151905060025f9054906101000a900473ffffffffffffffffffffffffffffffffffffffff1673ffffffffffffffffffffffffffffffffffffffff166391041959826040518263ffffffff1660e01b81526004016122209190614513565b602060405180830381865afa15801561223b573d5f5f3e3d5ffd5b505050506040513d601f19601f8201168201806040525081019061225f919061509e565b612295576040517f0e2ce6f400000000000000000000000000000000000000000000000000000000815260040160405180910390fd5b816020015173ffffffffffffffffffffffffffffffffffffffff1660025f9054906101000a900473ffffffffffffffffffffffffffffffffffffffff1673ffffffffffffffffffffffffffffffffffffffff16636352211e836040518263ffffffff1660e01b815260040161230a9190614513565b602060405180830381865afa158015612325573d5f5f3e3d5ffd5b505050506040513d601f19601f8201168201806040525081019061234991906150dd565b73ffffffffffffffffffffffffffffffffffffffff1614612396576040517f580c755900000000000000000000000000000000000000000000000000000000815260040160405180910390fd5b5f826080015190505f6123a882610ab7565b9050803410156123e4576040517f412ec26600000000000000000000000000000000000000000000000000000000815260040160405180910390fd5b3373ffffffffffffffffffffffffffffffffffffffff16877f3b599f6217e39be59216b60e543ce0d4c7d534fe64dd9d962334924e7819894e8360405161242b9190614513565b60405180910390a3835f0151877fd31715670b013aa9eab6ed5fcc44a002d79ec0e50400958949be55711f898b7860405160405180910390a3612472846040015182610938565b5f61248788865f015187602001518a8a6138c4565b915050806124c1576040517f3d33d02000000000000000000000000000000000000000000000000000000000815260040160405180910390fd5b50505050506124ce6109dd565b505050565b5f60085f8381526020019081526020015f205f8481526020019081526020015f206001015f9054906101000a900473ffffffffffffffffffffffffffffffffffffffff16905092915050565b6125276128c7565b73ffffffffffffffffffffffffffffffffffffffff163373ffffffffffffffffffffffffffffffffffffffff161461259657336040517fd7f7333400000000000000000000000000000000000000000000000000000000815260040161258d919061456b565b60405180910390fd5b61259e6108f2565b6125a781613c43565b6125af6109dd565b50565b6125ba6136d7565b6125c26108f2565b80600b5f8481526020019081526020015f205f6101000a81548173ffffffffffffffffffffffffffffffffffffffff021916908373ffffffffffffffffffffffffffffffffffffffff1602179055508073ffffffffffffffffffffffffffffffffffffffff16827f0982a3e4591270ec747f63ac7722b02b46e56259af55858ae96d229ed16b2c4a60405160405180910390a361265d6109dd565b5050565b5f5f5f9054906101000a900473ffffffffffffffffffffffffffffffffffffffff16905090565b6126906136d7565b8073ffffffffffffffffffffffffffffffffffffffff163373ffffffffffffffffffffffffffffffffffffffff167fc8e94678ac0f1d13e9dc3c6f8c26771248baf409469a55aba44c263d784029df60405160405180910390a360025f9054906101000a900473ffffffffffffffffffffffffffffffffffffffff1673ffffffffffffffffffffffffffffffffffffffff1663f2fde38b826040518263ffffffff1660e01b8152600401612744919061456b565b5f604051808303815f87803b15801561275b575f5ffd5b505af115801561276d573d5f5f3e3d5ffd5b5050505050565b5f60095f8381526020019081526020015f205f9054906101000a900467ffffffffffffffff169050919050565b6127a96136d7565b6127b16108f2565b806003819055507f139f8b9b3c9f9105c2c0c35889b60f24f77641850e5e6f276d1005f35886e17b816040516127e79190614513565b60405180910390a16127f76109dd565b50565b5f5f60045f9054906101000a900473ffffffffffffffffffffffffffffffffffffffff1690505f8173ffffffffffffffffffffffffffffffffffffffff1663feaf968c6040518163ffffffff1660e01b815260040160a060405180830381865afa15801561286a573d5f5f3e3d5ffd5b505050506040513d601f19601f8201168201806040525081019061288e919061545c565b505050915050809250505090565b5f5f6128a783610ab7565b90506128b4600354610ab7565b816128bf9190614e2b565b915050919050565b5f7f0000000000000000000000000000000000000000000000000000000000000000905090565b5f600354905090565b6128ff6108f2565b5f61290b600354610ab7565b905080341015612947576040517f412ec26600000000000000000000000000000000000000000000000000000000815260040160405180910390fd5b60025f9054906101000a900473ffffffffffffffffffffffffffffffffffffffff1673ffffffffffffffffffffffffffffffffffffffff166391041959836040518263ffffffff1660e01b81526004016129a19190614513565b602060405180830381865afa1580156129bc573d5f5f3e3d5ffd5b505050506040513d601f19601f820116820180604052508101906129e0919061509e565b612a16576040517f0e2ce6f400000000000000000000000000000000000000000000000000000000815260040160405180910390fd5b817f59e7729e8b8ff96f5343fdd7b1f614b4ff3b085a0c438e48b5d025213a64e87960405160405180910390a2815f7fd31715670b013aa9eab6ed5fcc44a002d79ec0e50400958949be55711f898b7860405160405180910390a3612a7b3334610938565b60025f9054906101000a900473ffffffffffffffffffffffffffffffffffffffff1673ffffffffffffffffffffffffffffffffffffffff16631361a3b6836040518263ffffffff1660e01b8152600401612ad59190614513565b5f604051808303815f87803b158015612aec575f5ffd5b505af1158015612afe573d5f5f3e3d5ffd5b505050505f6040518060c0016040528060016002811115612b2257612b21614f8c565b5b81526020015f81526020015f73ffffffffffffffffffffffffffffffffffffffff1681526020015f151581526020016040518060c001604052808681526020013373ffffffffffffffffffffffffffffffffffffffff1681526020013373ffffffffffffffffffffffffffffffffffffffff1681526020018781526020015f81526020015f67ffffffffffffffff811115612bc057612bbf614a3e565b5b604051908082528060200260200182016040528015612bf357816020015b6060815260200190600190039081612bde5790505b5081525081526020015f8152509050612c0c84826130e2565b5050612c166109dd565b5050565b612c226108f2565b5f600d5f4681526020019081526020015f205f8381526020019081526020015f205490505f60085f4681526020019081526020015f205f8381526020019081526020015f206040518060c00160405290815f8201548152602001600182015f9054906101000a900473ffffffffffffffffffffffffffffffffffffffff1673ffffffffffffffffffffffffffffffffffffffff1673ffffffffffffffffffffffffffffffffffffffff168152602001600282015f9054906101000a900473ffffffffffffffffffffffffffffffffffffffff1673ffffffffffffffffffffffffffffffffffffffff1673ffffffffffffffffffffffffffffffffffffffff168152602001600382015481526020016004820154815260200160058201805480602002602001604051908101604052809291908181526020015f905b82821015612e05578382905f5260205f20018054612d7a90614f29565b80601f0160208091040260200160405190810160405280929190818152602001828054612da690614f29565b8015612df15780601f10612dc857610100808354040283529160200191612df1565b820191905f5260205f20905b815481529060010190602001808311612dd457829003601f168201915b505050505081526020019060010190612d5d565b505050508152505090505f73ffffffffffffffffffffffffffffffffffffffff16816020015173ffffffffffffffffffffffffffffffffffffffff1603612e78576040517f2366d0aa00000000000000000000000000000000000000000000000000000000815260040160405180910390fd5b60025f9054906101000a900473ffffffffffffffffffffffffffffffffffffffff1673ffffffffffffffffffffffffffffffffffffffff166391041959825f01516040518263ffffffff1660e01b8152600401612ed59190614513565b602060405180830381865afa158015612ef0573d5f5f3e3d5ffd5b505050506040513d601f19601f82011682018060405250810190612f14919061509e565b612f4a576040517f0e2ce6f400000000000000000000000000000000000000000000000000000000815260040160405180910390fd5b612f55833346613ef3565b60025f9054906101000a900473ffffffffffffffffffffffffffffffffffffffff1673ffffffffffffffffffffffffffffffffffffffff16631361a3b6825f01516040518263ffffffff1660e01b8152600401612fb29190614513565b5f604051808303815f87803b158015612fc9575f5ffd5b505af1158015612fdb573d5f5f3e3d5ffd5b505050505050612fe96109dd565b50565b5f600b5f8381526020019081526020015f205f9054906101000a900473ffffffffffffffffffffffffffffffffffffffff169050919050565b61302d6136d7565b5f73ffffffffffffffffffffffffffffffffffffffff168173ffffffffffffffffffffffffffffffffffffffff160361309d575f6040517f1e4fbdf7000000000000000000000000000000000000000000000000000000008152600401613094919061456b565b60405180910390fd5b6130a681613803565b50565b5f600c5f8381526020019081526020015f205f9054906101000a900473ffffffffffffffffffffffffffffffffffffffff169050919050565b5f60095f4681526020019081526020015f205f9054906101000a900467ffffffffffffffff1690505f60095f8581526020019081526020015f205f9054906101000a900467ffffffffffffffff1690505f600a5f4681526020019081526020015f205f9054906101000a900473ffffffffffffffffffffffffffffffffffffffff1690505f600c5f4681526020019081526020015f205f9054906101000a900473ffffffffffffffffffffffffffffffffffffffff1690505f6040518060a00160405280600b5f8a81526020019081526020015f205f9054906101000a900473ffffffffffffffffffffffffffffffffffffffff166040516020016131e7919061456b565b60405160208183030381529060405281526020018760405160200161320c91906155fd565b60405160208183030381529060405281526020015f67ffffffffffffffff81111561323a57613239614a3e565b5b60405190808252806020026020018201604052801561327357816020015b6132606142e2565b8152602001906001900390816132585790505b50815260200160018081111561328c5761328b614f8c565b5b60065f9054906101000a900460ff1660018111156132ad576132ac614f8c565b5b146132b8575f6132ba565b845b73ffffffffffffffffffffffffffffffffffffffff16815260200160405180602001604052805f81525081525090505f8273ffffffffffffffffffffffffffffffffffffffff166320487ded86846040518363ffffffff1660e01b81526004016133259291906157cc565b602060405180830381865afa158015613340573d5f5f3e3d5ffd5b505050506040513d601f19601f8201168201806040525081019061336491906152df565b90505f613371338361375e565b60018081111561338457613383614f8c565b5b60065f9054906101000a900460ff1660018111156133a5576133a4614f8c565b5b0361342c578373ffffffffffffffffffffffffffffffffffffffff166396f4e9f987856040518363ffffffff1660e01b81526004016133e59291906157cc565b6020604051808303815f875af1158015613401573d5f5f3e3d5ffd5b505050506040513d601f19601f82011682018060405250810190613425919061580e565b90506134ac565b8373ffffffffffffffffffffffffffffffffffffffff166396f4e9f98388866040518463ffffffff1660e01b81526004016134689291906157cc565b60206040518083038185885af1158015613484573d5f5f3e3d5ffd5b50505050506040513d601f19601f820116820180604052508101906134a9919061580e565b90505b7f335d5a62e36301effb6a9c20dc36fabe446f4c19430d21437add0a61a406d0288188886040516134df93929190615848565b60405180910390a1505050505050505050565b5f60055490505f6040518060c001604052808981526020018873ffffffffffffffffffffffffffffffffffffffff1681526020018773ffffffffffffffffffffffffffffffffffffffff1681526020018681526020018581526020018481525090508060085f8781526020019081526020015f205f8481526020019081526020015f205f820151815f01556020820151816001015f6101000a81548173ffffffffffffffffffffffffffffffffffffffff021916908373ffffffffffffffffffffffffffffffffffffffff1602179055506040820151816002015f6101000a81548173ffffffffffffffffffffffffffffffffffffffff021916908373ffffffffffffffffffffffffffffffffffffffff160217905550606082015181600301556080820151816004015560a0820151816005019080519060200190613639929190614310565b5090505081600d5f8781526020019081526020015f205f8a81526020019081526020015f208190555060055f8154809291906136749061587d565b91905055508673ffffffffffffffffffffffffffffffffffffffff1688837f2f3db60459af0af5d3b21c32118f55f01d239ce41f1e0cf3461dcb782dbe223e4689896040516136c593929190615372565b60405180910390a45050505050505050565b6136df614260565b73ffffffffffffffffffffffffffffffffffffffff166136fd612661565b73ffffffffffffffffffffffffffffffffffffffff161461375c57613720614260565b6040517f118cdaa7000000000000000000000000000000000000000000000000000000008152600401613753919061456b565b60405180910390fd5b565b8060075f8473ffffffffffffffffffffffffffffffffffffffff1673ffffffffffffffffffffffffffffffffffffffff1681526020019081526020015f205f8282546137aa9190614f59565b925050819055508173ffffffffffffffffffffffffffffffffffffffff167f884edad9ce6fa2440d8a54cc123490eb96d2768479d49ff9c7366125a9424364826040516137f79190614513565b60405180910390a25050565b5f5f5f9054906101000a900473ffffffffffffffffffffffffffffffffffffffff169050815f5f6101000a81548173ffffffffffffffffffffffffffffffffffffffff021916908373ffffffffffffffffffffffffffffffffffffffff1602179055508173ffffffffffffffffffffffffffffffffffffffff168173ffffffffffffffffffffffffffffffffffffffff167f8be0079c531659141344cd1fd0a4f28419497f9722a3daafe3b4186f6b6457e060405160405180910390a35050565b5f5f5f5f90508573ffffffffffffffffffffffffffffffffffffffff1660025f9054906101000a900473ffffffffffffffffffffffffffffffffffffffff1673ffffffffffffffffffffffffffffffffffffffff16636352211e896040518263ffffffff1660e01b815260040161393b9190614513565b602060405180830381865afa158015613956573d5f5f3e3d5ffd5b505050506040513d601f19601f8201168201806040525081019061397a91906150dd565b73ffffffffffffffffffffffffffffffffffffffff16146139c7576040517f7ff80cd000000000000000000000000000000000000000000000000000000000815260040160405180910390fd5b60085f4681526020019081526020015f205f8981526020019081526020015f205f5f82015f9055600182015f6101000a81549073ffffffffffffffffffffffffffffffffffffffff0219169055600282015f6101000a81549073ffffffffffffffffffffffffffffffffffffffff0219169055600382015f9055600482015f9055600582015f613a579190614267565b5050600d5f4681526020019081526020015f205f8881526020019081526020015f205f90558315613b5c5760025f9054906101000a900473ffffffffffffffffffffffffffffffffffffffff1673ffffffffffffffffffffffffffffffffffffffff1663fcb75eae88876040518363ffffffff1660e01b8152600401613ade9291906158c4565b6020604051808303815f875af1158015613afa573d5f5f3e3d5ffd5b505050506040513d601f19601f82011682018060405250810190613b1e919061509e565b905080613b57576040517f3d33d02000000000000000000000000000000000000000000000000000000000815260040160405180910390fd5b613c32565b60025f9054906101000a900473ffffffffffffffffffffffffffffffffffffffff1673ffffffffffffffffffffffffffffffffffffffff1663b7760c8f88876040518363ffffffff1660e01b8152600401613bb89291906158c4565b6020604051808303815f875af1158015613bd4573d5f5f3e3d5ffd5b505050506040513d601f19601f82011682018060405250810190613bf8919061509e565b905080613c31576040517f3d33d02000000000000000000000000000000000000000000000000000000000815260040160405180910390fd5b5b878192509250509550959350505050565b5f8160600151806020019051810190613c5c9190615a80565b90507f46844d4d9d07fd01f84c55245ba4615666e0d9ef2073d1541a326d030734669a825f0151836020015160095f4681526020019081526020015f205f9054906101000a900467ffffffffffffffff16604051613cbc93929190615848565b60405180910390a17f920ca03615b3475f829fc9a50bed81845f1b5cd86e36a442d03334ac7d859a01815f0151826020015183608001515f0151846080015160200151856080015160400151866080015160600151876040015188606001518960a00151604051613d3599989796959493929190614fff565b60405180910390a15f6002811115613d5057613d4f614f8c565b5b815f01516002811115613d6657613d65614f8c565b5b03613dad57613da881608001515f0151826080015160200151836080015160400151846080015160600151856080015160800151866080015160a001516134f2565b613eef565b60016002811115613dc157613dc0614f8c565b5b815f01516002811115613dd757613dd6614f8c565b5b03613e0357613dfe81608001515f0151826080015160200151836080015160600151613ef3565b613eee565b600280811115613e1657613e15614f8c565b5b815f01516002811115613e2c57613e2b614f8c565b5b03613ebb57806040015173ffffffffffffffffffffffffffffffffffffffff1681602001517f3b599f6217e39be59216b60e543ce0d4c7d534fe64dd9d962334924e7819894e8360a00151604051613e849190614513565b60405180910390a3613eb4816020015182608001515f0151836080015160200151846040015185606001516138c4565b5050613eed565b6040517f5768651c00000000000000000000000000000000000000000000000000000000815260040160405180910390fd5b5b5b5050565b5f600d5f8381526020019081526020015f205f8581526020019081526020015f205490505f60085f8481526020019081526020015f205f8381526020019081526020015f206040518060c00160405290815f8201548152602001600182015f9054906101000a900473ffffffffffffffffffffffffffffffffffffffff1673ffffffffffffffffffffffffffffffffffffffff1673ffffffffffffffffffffffffffffffffffffffff168152602001600282015f9054906101000a900473ffffffffffffffffffffffffffffffffffffffff1673ffffffffffffffffffffffffffffffffffffffff1673ffffffffffffffffffffffffffffffffffffffff168152602001600382015481526020016004820154815260200160058201805480602002602001604051908101604052809291908181526020015f905b828210156140d6578382905f5260205f2001805461404b90614f29565b80601f016020809104026020016040519081016040528092919081815260200182805461407790614f29565b80156140c25780601f10614099576101008083540402835291602001916140c2565b820191905f5260205f20905b8154815290600101906020018083116140a557829003601f168201915b50505050508152602001906001019061402e565b505050508152505090508373ffffffffffffffffffffffffffffffffffffffff16816020015173ffffffffffffffffffffffffffffffffffffffff1614614149576040517f580c755900000000000000000000000000000000000000000000000000000000815260040160405180910390fd5b60085f8481526020019081526020015f205f8381526020019081526020015f205f5f82015f9055600182015f6101000a81549073ffffffffffffffffffffffffffffffffffffffff0219169055600282015f6101000a81549073ffffffffffffffffffffffffffffffffffffffff0219169055600382015f9055600482015f9055600582015f6141d99190614267565b5050600d5f8481526020019081526020015f205f8681526020019081526020015f205f9055817f6ecd7b702bc398299b70a9c417b14d16835121b9df1f7b3036ccf42ee990f6d460405160405180910390a284827fd31715670b013aa9eab6ed5fcc44a002d79ec0e50400958949be55711f898b7860405160405180910390a35050505050565b5f33905090565b5080545f8255905f5260205f20908101906142829190614367565b50565b6040518060c001604052805f81526020015f73ffffffffffffffffffffffffffffffffffffffff1681526020015f73ffffffffffffffffffffffffffffffffffffffff1681526020015f81526020015f8152602001606081525090565b60405180604001604052805f73ffffffffffffffffffffffffffffffffffffffff1681526020015f81525090565b828054828255905f5260205f20908101928215614356579160200282015b828111156143555782518290816143459190615c67565b509160200191906001019061432e565b5b5090506143639190614367565b5090565b5b80821115614386575f818161437d919061438a565b50600101614368565b5090565b50805461439690614f29565b5f825580601f106143a757506143c4565b601f0160209004905f5260205f20908101906143c391906143c7565b5b50565b5b808211156143de575f815f9055506001016143c8565b5090565b5f604051905090565b5f5ffd5b5f5ffd5b5f7fffffffff0000000000000000000000000000000000000000000000000000000082169050919050565b614427816143f3565b8114614431575f5ffd5b50565b5f813590506144428161441e565b92915050565b5f6020828403121561445d5761445c6143eb565b5b5f61446a84828501614434565b91505092915050565b5f8115159050919050565b61448781614473565b82525050565b5f6020820190506144a05f83018461447e565b92915050565b5f819050919050565b6144b8816144a6565b81146144c2575f5ffd5b50565b5f813590506144d3816144af565b92915050565b5f602082840312156144ee576144ed6143eb565b5b5f6144fb848285016144c5565b91505092915050565b61450d816144a6565b82525050565b5f6020820190506145265f830184614504565b92915050565b5f73ffffffffffffffffffffffffffffffffffffffff82169050919050565b5f6145558261452c565b9050919050565b6145658161454b565b82525050565b5f60208201905061457e5f83018461455c565b92915050565b61458d8161454b565b8114614597575f5ffd5b50565b5f813590506145a881614584565b92915050565b6145b781614473565b81146145c1575f5ffd5b50565b5f813590506145d2816145ae565b92915050565b5f5f5f5f608085870312156145f0576145ef6143eb565b5b5f6145fd878288016144c5565b945050602061460e8782880161459a565b935050604061461f878288016144c5565b9250506060614630878288016145c4565b91505092959194509250565b5f5f60408385031215614652576146516143eb565b5b5f61465f858286016144c5565b92505060206146708582860161459a565b9150509250929050565b5f5f5f5f60808587031215614692576146916143eb565b5b5f61469f878288016144c5565b94505060206146b08782880161459a565b93505060406146c1878288016144c5565b92505060606146d2878288016144c5565b91505092959194509250565b5f67ffffffffffffffff82169050919050565b6146fa816146de565b8114614704575f5ffd5b50565b5f81359050614715816146f1565b92915050565b5f5f5f5f5f60a08688031215614734576147336143eb565b5b5f614741888289016144c5565b955050602061475288828901614707565b94505060406147638882890161459a565b93505060606147748882890161459a565b92505060806147858882890161459a565b9150509295509295909350565b5f5f604083850312156147a8576147a76143eb565b5b5f6147b5858286016144c5565b92505060206147c6858286016144c5565b9150509250929050565b6147d9816144a6565b82525050565b6147e88161454b565b82525050565b5f81519050919050565b5f82825260208201905092915050565b5f819050602082019050919050565b5f81519050919050565b5f82825260208201905092915050565b8281835e5f83830152505050565b5f601f19601f8301169050919050565b5f61485982614817565b6148638185614821565b9350614873818560208601614831565b61487c8161483f565b840191505092915050565b5f614892838361484f565b905092915050565b5f602082019050919050565b5f6148b0826147ee565b6148ba81856147f8565b9350836020820285016148cc85614808565b805f5b8581101561490757848403895281516148e88582614887565b94506148f38361489a565b925060208a019950506001810190506148cf565b50829750879550505050505092915050565b5f60c083015f83015161492e5f8601826147d0565b50602083015161494160208601826147df565b50604083015161495460408601826147df565b50606083015161496760608601826147d0565b50608083015161497a60808601826147d0565b5060a083015184820360a086015261499282826148a6565b9150508091505092915050565b5f6020820190508181035f8301526149b78184614919565b905092915050565b5f602082840312156149d4576149d36143eb565b5b5f6149e18482850161459a565b91505092915050565b5f5f5f60608486031215614a0157614a006143eb565b5b5f614a0e868287016144c5565b9350506020614a1f8682870161459a565b9250506040614a30868287016145c4565b9150509250925092565b5f5ffd5b7f4e487b71000000000000000000000000000000000000000000000000000000005f52604160045260245ffd5b614a748261483f565b810181811067ffffffffffffffff82111715614a9357614a92614a3e565b5b80604052505050565b5f614aa56143e2565b9050614ab18282614a6b565b919050565b5f5ffd5b5f819050919050565b614acc81614aba565b8114614ad6575f5ffd5b50565b5f81359050614ae781614ac3565b92915050565b5f5ffd5b5f5ffd5b5f67ffffffffffffffff821115614b0f57614b0e614a3e565b5b614b188261483f565b9050602081019050919050565b828183375f83830152505050565b5f614b45614b4084614af5565b614a9c565b905082815260208101848484011115614b6157614b60614af1565b5b614b6c848285614b25565b509392505050565b5f82601f830112614b8857614b87614aed565b5b8135614b98848260208601614b33565b91505092915050565b5f67ffffffffffffffff821115614bbb57614bba614a3e565b5b602082029050602081019050919050565b5f5ffd5b5f60408284031215614be557614be4614a3a565b5b614bef6040614a9c565b90505f614bfe8482850161459a565b5f830152506020614c11848285016144c5565b60208301525092915050565b5f614c2f614c2a84614ba1565b614a9c565b90508083825260208201905060408402830185811115614c5257614c51614bcc565b5b835b81811015614c7b5780614c678882614bd0565b845260208401935050604081019050614c54565b5050509392505050565b5f82601f830112614c9957614c98614aed565b5b8135614ca9848260208601614c1d565b91505092915050565b5f60a08284031215614cc757614cc6614a3a565b5b614cd160a0614a9c565b90505f614ce084828501614ad9565b5f830152506020614cf384828501614707565b602083015250604082013567ffffffffffffffff811115614d1757614d16614ab6565b5b614d2384828501614b74565b604083015250606082013567ffffffffffffffff811115614d4757614d46614ab6565b5b614d5384828501614b74565b606083015250608082013567ffffffffffffffff811115614d7757614d76614ab6565b5b614d8384828501614c85565b60808301525092915050565b5f60208284031215614da457614da36143eb565b5b5f82013567ffffffffffffffff811115614dc157614dc06143ef565b5b614dcd84828501614cb2565b91505092915050565b614ddf816146de565b82525050565b5f602082019050614df85f830184614dd6565b92915050565b7f4e487b71000000000000000000000000000000000000000000000000000000005f52601160045260245ffd5b5f614e35826144a6565b9150614e40836144a6565b9250828201905080821115614e5857614e57614dfe565b5b92915050565b5f614e68826144a6565b9150614e73836144a6565b9250828202614e81816144a6565b91508282048414831517614e9857614e97614dfe565b5b5092915050565b7f4e487b71000000000000000000000000000000000000000000000000000000005f52601260045260245ffd5b5f614ed6826144a6565b9150614ee1836144a6565b925082614ef157614ef0614e9f565b5b828204905092915050565b7f4e487b71000000000000000000000000000000000000000000000000000000005f52602260045260245ffd5b5f6002820490506001821680614f4057607f821691505b602082108103614f5357614f52614efc565b5b50919050565b5f614f63826144a6565b9150614f6e836144a6565b9250828203905081811115614f8657614f85614dfe565b5b92915050565b7f4e487b71000000000000000000000000000000000000000000000000000000005f52602160045260245ffd5b60038110614fca57614fc9614f8c565b5b50565b5f819050614fda82614fb9565b919050565b5f614fe982614fcd565b9050919050565b614ff981614fdf565b82525050565b5f610120820190506150135f83018c614ff0565b615020602083018b614504565b61502d604083018a614504565b61503a606083018961455c565b615047608083018861455c565b61505460a0830187614504565b61506160c083018661455c565b61506e60e083018561447e565b61507c610100830184614504565b9a9950505050505050505050565b5f81519050615098816145ae565b92915050565b5f602082840312156150b3576150b26143eb565b5b5f6150c08482850161508a565b91505092915050565b5f815190506150d781614584565b92915050565b5f602082840312156150f2576150f16143eb565b5b5f6150ff848285016150c9565b91505092915050565b5f67ffffffffffffffff82111561512257615121614a3e565b5b602082029050602081019050919050565b5f67ffffffffffffffff82111561514d5761514c614a3e565b5b6151568261483f565b9050602081019050919050565b5f61517561517084615133565b614a9c565b90508281526020810184848401111561519157615190614af1565b5b61519c848285614831565b509392505050565b5f82601f8301126151b8576151b7614aed565b5b81516151c8848260208601615163565b91505092915050565b5f6151e36151de84615108565b614a9c565b9050808382526020820190506020840283018581111561520657615205614bcc565b5b835b8181101561524d57805167ffffffffffffffff81111561522b5761522a614aed565b5b80860161523889826151a4565b85526020850194505050602081019050615208565b5050509392505050565b5f82601f83011261526b5761526a614aed565b5b815161527b8482602086016151d1565b91505092915050565b5f60208284031215615299576152986143eb565b5b5f82015167ffffffffffffffff8111156152b6576152b56143ef565b5b6152c284828501615257565b91505092915050565b5f815190506152d9816144af565b92915050565b5f602082840312156152f4576152f36143eb565b5b5f615301848285016152cb565b91505092915050565b5f60408201905061531d5f830185614504565b61532a6020830184614504565b9392505050565b5f81905092915050565b50565b5f6153495f83615331565b91506153548261533b565b5f82019050919050565b5f6153688261533e565b9150819050919050565b5f6060820190506153855f830186614504565b6153926020830185614504565b61539f6040830184614504565b949350505050565b5f6080820190506153ba5f830187614dd6565b6153c7602083018661455c565b6153d4604083018561455c565b6153e1606083018461455c565b95945050505050565b5f69ffffffffffffffffffff82169050919050565b615408816153ea565b8114615412575f5ffd5b50565b5f81519050615423816153ff565b92915050565b5f819050919050565b61543b81615429565b8114615445575f5ffd5b50565b5f8151905061545681615432565b92915050565b5f5f5f5f5f60a08688031215615475576154746143eb565b5b5f61548288828901615415565b955050602061549388828901615448565b94505060406154a4888289016152cb565b93505060606154b5888289016152cb565b92505060806154c688828901615415565b9150509295509295909350565b6154dc81614fdf565b82525050565b6154eb81614473565b82525050565b5f60c083015f8301516155065f8601826147d0565b50602083015161551960208601826147df565b50604083015161552c60408601826147df565b50606083015161553f60608601826147d0565b50608083015161555260808601826147d0565b5060a083015184820360a086015261556a82826148a6565b9150508091505092915050565b5f60c083015f83015161558c5f8601826154d3565b50602083015161559f60208601826147d0565b5060408301516155b260408601826147df565b5060608301516155c560608601826154e2565b50608083015184820360808601526155dd82826154f1565b91505060a08301516155f260a08601826147d0565b508091505092915050565b5f6020820190508181035f8301526156158184615577565b905092915050565b5f81519050919050565b5f82825260208201905092915050565b5f6156418261561d565b61564b8185615627565b935061565b818560208601614831565b6156648161483f565b840191505092915050565b5f81519050919050565b5f82825260208201905092915050565b5f819050602082019050919050565b604082015f8201516156ac5f8501826147df565b5060208201516156bf60208501826147d0565b50505050565b5f6156d08383615698565b60408301905092915050565b5f602082019050919050565b5f6156f28261566f565b6156fc8185615679565b935061570783615689565b805f5b8381101561573757815161571e88826156c5565b9750615729836156dc565b92505060018101905061570a565b5085935050505092915050565b5f60a083015f8301518482035f86015261575e8282615637565b915050602083015184820360208601526157788282615637565b9150506040830151848203604086015261579282826156e8565b91505060608301516157a760608601826147df565b50608083015184820360808601526157bf8282615637565b9150508091505092915050565b5f6040820190506157df5f830185614dd6565b81810360208301526157f18184615744565b90509392505050565b5f8151905061580881614ac3565b92915050565b5f60208284031215615823576158226143eb565b5b5f615830848285016157fa565b91505092915050565b61584281614aba565b82525050565b5f60608201905061585b5f830186615839565b6158686020830185614dd6565b6158756040830184614dd6565b949350505050565b5f615887826144a6565b91507fffffffffffffffffffffffffffffffffffffffffffffffffffffffffffffffff82036158b9576158b8614dfe565b5b600182019050919050565b5f6040820190506158d75f830185614504565b6158e4602083018461455c565b9392505050565b600381106158f7575f5ffd5b50565b5f81519050615908816158eb565b92915050565b5f60c0828403121561592357615922614a3a565b5b61592d60c0614a9c565b90505f61593c848285016152cb565b5f83015250602061594f848285016150c9565b6020830152506040615963848285016150c9565b6040830152506060615977848285016152cb565b606083015250608061598b848285016152cb565b60808301525060a082015167ffffffffffffffff8111156159af576159ae614ab6565b5b6159bb84828501615257565b60a08301525092915050565b5f60c082840312156159dc576159db614a3a565b5b6159e660c0614a9c565b90505f6159f5848285016158fa565b5f830152506020615a08848285016152cb565b6020830152506040615a1c848285016150c9565b6040830152506060615a308482850161508a565b606083015250608082015167ffffffffffffffff811115615a5457615a53614ab6565b5b615a608482850161590e565b60808301525060a0615a74848285016152cb565b60a08301525092915050565b5f60208284031215615a9557615a946143eb565b5b5f82015167ffffffffffffffff811115615ab257615ab16143ef565b5b615abe848285016159c7565b91505092915050565b5f819050815f5260205f209050919050565b5f6020601f8301049050919050565b5f82821b905092915050565b5f60088302615b237fffffffffffffffffffffffffffffffffffffffffffffffffffffffffffffffff82615ae8565b615b2d8683615ae8565b95508019841693508086168417925050509392505050565b5f819050919050565b5f615b68615b63615b5e846144a6565b615b45565b6144a6565b9050919050565b5f819050919050565b615b8183615b4e565b615b95615b8d82615b6f565b848454615af4565b825550505050565b5f5f905090565b615bac615b9d565b615bb7818484615b78565b505050565b5b81811015615bda57615bcf5f82615ba4565b600181019050615bbd565b5050565b601f821115615c1f57615bf081615ac7565b615bf984615ad9565b81016020851015615c08578190505b615c1c615c1485615ad9565b830182615bbc565b50505b505050565b5f82821c905092915050565b5f615c3f5f1984600802615c24565b1980831691505092915050565b5f615c578383615c30565b9150826002028217905092915050565b615c7082614817565b67ffffffffffffffff811115615c8957615c88614a3e565b5b615c938254614f29565b615c9e828285615bde565b5f60209050601f831160018114615ccf575f8415615cbd578287015190505b615cc78582615c4c565b865550615d2e565b601f198416615cdd86615ac7565b5f5b82811015615d0457848901518255600182019150602085019450602081019050615cdf565b86831015615d215784890151615d1d601f891682615c30565b8355505b6001600288020188555050505b50505050505056fea26469706673582212204abac2335bb2f62b3e8b2b9c12bddfded18c75eae406bb56d50b389e43fdd46964736f6c634300081d0033","linkReferences":{}},"methodIdentifiers":{"addChainReceiver(uint256,address)":"86f7df7d","balanceOf(address)":"70a08231","buy(uint256,address,bool)":"7ad157b9","buyCrossSale(uint256,address,uint256,bool)":"1638c0b5","cancelCrossSale(uint256,uint256)":"b989733e","cancelSale(uint256)":"bd94b005","ccipReceive((bytes32,uint64,bytes,bytes,(address,uint256)[]))":"85572ffb","createCrossSale(uint256,address,uint256,uint256)":"368d2fb7","createSale(uint256,address)":"18e45b1f","deleteChainReceiver(uint256)":"199dfcf9","disableChain(uint256)":"33e67012","enableChain(uint256,uint64,address,address,address)":"4b473a42","getCCIPRouter()":"588cbd0e","getCcipCollateralInEth()":"474c43f5","getCcipCollateralInUsd()":"b412d0bc","getChainSelector(uint256)":"92e2106f","getDeCupAddress()":"44353b59","getEthUsdPrice()":"a0a8045e","getLinkAddress(uint256)":"48437e54","getPriceFeedAddress()":"0f0f30b2","getPriceInETH(uint256)":"0441b220","getPriceInETHIncludingCollateral(uint256)":"b07dc25d","getPriceInUsd(uint256)":"1bfc8a55","getReceiverAddress(uint256)":"ebc2527e","getRouter()":"b0f479a1","getRouterAddress(uint256)":"feae6d3b","getSaleCounter()":"2f06c7d5","getSaleIdByTokenId(uint256,uint256)":"71ef4db5","getSaleOrder(uint256,uint256)":"6b0b9b14","getSaleOwner(uint256,uint256)":"8265809b","owner()":"8da5cb5b","renounceOwnership()":"715018a6","setCcipCollateral(uint256)":"95f738e0","supportsInterface(bytes4)":"01ffc9a7","transferOwnership(address)":"f2fde38b","transferOwnershipOfDeCup(address)":"8f97a7c9","withdrawFunds()":"24600fc3"},"id":66}