{"abi":[{"type":"constructor","inputs":[{"name":"decupAddress","type":"address","internalType":"address"},{"name":"priceFeedAddress","type":"address","internalType":"address"},{"name":"destinationChainIds","type":"uint64[]","internalType":"uint64[]"},{"name":"destinationChainSelectors","type":"uint64[]","internalType":"uint64[]"},{"name":"linkTokens","type":"address[]","internalType":"address[]"},{"name":"routerAddress","type":"address[]","internalType":"address[]"}],"stateMutability":"nonpayable"},{"type":"receive","stateMutability":"payable"},{"type":"function","name":"addChainReceiver","inputs":[{"name":"chainId","type":"uint256","internalType":"uint256"},{"name":"receiverAddress","type":"address","internalType":"address"}],"outputs":[],"stateMutability":"nonpayable"},{"type":"function","name":"balanceOf","inputs":[{"name":"user","type":"address","internalType":"address"}],"outputs":[{"name":"","type":"uint256","internalType":"uint256"}],"stateMutability":"view"},{"type":"function","name":"buy","inputs":[{"name":"saleId","type":"uint256","internalType":"uint256"},{"name":"buyerBeneficiaryAddress","type":"address","internalType":"address"},{"name":"isBurn","type":"bool","internalType":"bool"}],"outputs":[],"stateMutability":"payable"},{"type":"function","name":"buyCrossSale","inputs":[{"name":"saleId","type":"uint256","internalType":"uint256"},{"name":"buyerBeneficiaryAddress","type":"address","internalType":"address"},{"name":"destinationChainId","type":"uint256","internalType":"uint256"},{"name":"isBurn","type":"bool","internalType":"bool"}],"outputs":[],"stateMutability":"payable"},{"type":"function","name":"cancelCrossSale","inputs":[{"name":"destinationChainId","type":"uint256","internalType":"uint256"},{"name":"tokenId","type":"uint256","internalType":"uint256"}],"outputs":[],"stateMutability":"payable"},{"type":"function","name":"cancelSale","inputs":[{"name":"tokenId","type":"uint256","internalType":"uint256"}],"outputs":[],"stateMutability":"nonpayable"},{"type":"function","name":"ccipReceive","inputs":[{"name":"message","type":"tuple","internalType":"struct Client.Any2EVMMessage","components":[{"name":"messageId","type":"bytes32","internalType":"bytes32"},{"name":"sourceChainSelector","type":"uint64","internalType":"uint64"},{"name":"sender","type":"bytes","internalType":"bytes"},{"name":"data","type":"bytes","internalType":"bytes"},{"name":"destTokenAmounts","type":"tuple[]","internalType":"struct Client.EVMTokenAmount[]","components":[{"name":"token","type":"address","internalType":"address"},{"name":"amount","type":"uint256","internalType":"uint256"}]}]}],"outputs":[],"stateMutability":"nonpayable"},{"type":"function","name":"createCrossSale","inputs":[{"name":"tokenId","type":"uint256","internalType":"uint256"},{"name":"beneficiaryAddress","type":"address","internalType":"address"},{"name":"destinationChainId","type":"uint256","internalType":"uint256"},{"name":"priceInUsd","type":"uint256","internalType":"uint256"}],"outputs":[],"stateMutability":"payable"},{"type":"function","name":"createSale","inputs":[{"name":"tokenId","type":"uint256","internalType":"uint256"},{"name":"beneficiaryAddress","type":"address","internalType":"address"}],"outputs":[],"stateMutability":"nonpayable"},{"type":"function","name":"deleteChainReceiver","inputs":[{"name":"chainId","type":"uint256","internalType":"uint256"}],"outputs":[],"stateMutability":"nonpayable"},{"type":"function","name":"disableChain","inputs":[{"name":"chainId","type":"uint256","internalType":"uint256"}],"outputs":[],"stateMutability":"nonpayable"},{"type":"function","name":"enableChain","inputs":[{"name":"chainId","type":"uint256","internalType":"uint256"},{"name":"chainSelector","type":"uint64","internalType":"uint64"},{"name":"linkAddress","type":"address","internalType":"address"},{"name":"receiverAddress","type":"address","internalType":"address"},{"name":"routerAddress","type":"address","internalType":"address"}],"outputs":[],"stateMutability":"nonpayable"},{"type":"function","name":"getCCIPRouter","inputs":[],"outputs":[{"name":"","type":"address","internalType":"address"}],"stateMutability":"view"},{"type":"function","name":"getCcipCollateralInEth","inputs":[],"outputs":[{"name":"","type":"uint256","internalType":"uint256"}],"stateMutability":"view"},{"type":"function","name":"getCcipCollateralInUsd","inputs":[],"outputs":[{"name":"","type":"uint256","internalType":"uint256"}],"stateMutability":"view"},{"type":"function","name":"getChainSelector","inputs":[{"name":"chainId","type":"uint256","internalType":"uint256"}],"outputs":[{"name":"","type":"uint64","internalType":"uint64"}],"stateMutability":"view"},{"type":"function","name":"getDeCupAddress","inputs":[],"outputs":[{"name":"","type":"address","internalType":"address"}],"stateMutability":"view"},{"type":"function","name":"getEthUsdPrice","inputs":[],"outputs":[{"name":"","type":"uint256","internalType":"uint256"}],"stateMutability":"view"},{"type":"function","name":"getLinkAddress","inputs":[{"name":"chainId","type":"uint256","internalType":"uint256"}],"outputs":[{"name":"","type":"address","internalType":"address"}],"stateMutability":"view"},{"type":"function","name":"getPriceFeedAddress","inputs":[],"outputs":[{"name":"","type":"address","internalType":"address"}],"stateMutability":"view"},{"type":"function","name":"getPriceInETH","inputs":[{"name":"priceInUSD","type":"uint256","internalType":"uint256"}],"outputs":[{"name":"","type":"uint256","internalType":"uint256"}],"stateMutability":"view"},{"type":"function","name":"getPriceInETHIncludingCollateral","inputs":[{"name":"priceInUSD","type":"uint256","internalType":"uint256"}],"outputs":[{"name":"","type":"uint256","internalType":"uint256"}],"stateMutability":"view"},{"type":"function","name":"getPriceInUsd","inputs":[{"name":"priceInETH","type":"uint256","internalType":"uint256"}],"outputs":[{"name":"","type":"uint256","internalType":"uint256"}],"stateMutability":"view"},{"type":"function","name":"getReceiverAddress","inputs":[{"name":"chainId","type":"uint256","internalType":"uint256"}],"outputs":[{"name":"","type":"address","internalType":"address"}],"stateMutability":"view"},{"type":"function","name":"getRouter","inputs":[],"outputs":[{"name":"","type":"address","internalType":"address"}],"stateMutability":"view"},{"type":"function","name":"getRouterAddress","inputs":[{"name":"chainId","type":"uint256","internalType":"uint256"}],"outputs":[{"name":"","type":"address","internalType":"address"}],"stateMutability":"view"},{"type":"function","name":"getSaleCounter","inputs":[],"outputs":[{"name":"","type":"uint256","internalType":"uint256"}],"stateMutability":"view"},{"type":"function","name":"getSaleIdByTokenId","inputs":[{"name":"chainId","type":"uint256","internalType":"uint256"},{"name":"tokenId","type":"uint256","internalType":"uint256"}],"outputs":[{"name":"","type":"uint256","internalType":"uint256"}],"stateMutability":"view"},{"type":"function","name":"getSaleOrder","inputs":[{"name":"chainId","type":"uint256","internalType":"uint256"},{"name":"saleId","type":"uint256","internalType":"uint256"}],"outputs":[{"name":"","type":"tuple","internalType":"struct DeCupManager.Order","components":[{"name":"tokenId","type":"uint256","internalType":"uint256"},{"name":"sellerAddress","type":"address","internalType":"address"},{"name":"beneficiaryAddress","type":"address","internalType":"address"},{"name":"chainId","type":"uint256","internalType":"uint256"},{"name":"priceInUsd","type":"uint256","internalType":"uint256"},{"name":"assetsInfo","type":"string[]","internalType":"string[]"}]}],"stateMutability":"view"},{"type":"function","name":"getSaleOwner","inputs":[{"name":"saleId","type":"uint256","internalType":"uint256"},{"name":"chainId","type":"uint256","internalType":"uint256"}],"outputs":[{"name":"","type":"address","internalType":"address"}],"stateMutability":"view"},{"type":"function","name":"owner","inputs":[],"outputs":[{"name":"","type":"address","internalType":"address"}],"stateMutability":"view"},{"type":"function","name":"renounceOwnership","inputs":[],"outputs":[],"stateMutability":"nonpayable"},{"type":"function","name":"setCcipCollateral","inputs":[{"name":"amount","type":"uint256","internalType":"uint256"}],"outputs":[],"stateMutability":"nonpayable"},{"type":"function","name":"supportsInterface","inputs":[{"name":"interfaceId","type":"bytes4","internalType":"bytes4"}],"outputs":[{"name":"","type":"bool","internalType":"bool"}],"stateMutability":"view"},{"type":"function","name":"transferOwnership","inputs":[{"name":"newOwner","type":"address","internalType":"address"}],"outputs":[],"stateMutability":"nonpayable"},{"type":"function","name":"transferOwnershipOfDeCup","inputs":[{"name":"newOwner","type":"address","internalType":"address"}],"outputs":[],"stateMutability":"nonpayable"},{"type":"function","name":"withdrawFunds","inputs":[],"outputs":[],"stateMutability":"nonpayable"},{"type":"event","name":"Buy","inputs":[{"name":"saleId","type":"uint256","indexed":true,"internalType":"uint256"},{"name":"buyerAddress","type":"address","indexed":true,"internalType":"address"},{"name":"amountPaied","type":"uint256","indexed":false,"internalType":"uint256"}],"anonymous":false},{"type":"event","name":"BuyCrossSale","inputs":[{"name":"saleId","type":"uint256","indexed":true,"internalType":"uint256"},{"name":"buyerAddress","type":"address","indexed":true,"internalType":"address"},{"name":"amountPaied","type":"uint256","indexed":false,"internalType":"uint256"},{"name":"sellerAddress","type":"address","indexed":true,"internalType":"address"}],"anonymous":false},{"type":"event","name":"CancelCrossSale","inputs":[{"name":"tokenId","type":"uint256","indexed":true,"internalType":"uint256"}],"anonymous":false},{"type":"event","name":"CancelSale","inputs":[{"name":"saleId","type":"uint256","indexed":true,"internalType":"uint256"}],"anonymous":false},{"type":"event","name":"CreateCrossSale","inputs":[{"name":"tokenId","type":"uint256","indexed":true,"internalType":"uint256"},{"name":"sellerAddress","type":"address","indexed":true,"internalType":"address"},{"name":"sourceChainId","type":"uint256","indexed":false,"internalType":"uint256"},{"name":"destinationChainId","type":"uint256","indexed":false,"internalType":"uint256"},{"name":"priceInUsd","type":"uint256","indexed":false,"internalType":"uint256"}],"anonymous":false},{"type":"event","name":"CreateSale","inputs":[{"name":"saleId","type":"uint256","indexed":true,"internalType":"uint256"},{"name":"tokenId","type":"uint256","indexed":true,"internalType":"uint256"},{"name":"sellerAddress","type":"address","indexed":true,"internalType":"address"},{"name":"sourceChainId","type":"uint256","indexed":false,"internalType":"uint256"},{"name":"destinationChainId","type":"uint256","indexed":false,"internalType":"uint256"},{"name":"priceInUsd","type":"uint256","indexed":false,"internalType":"uint256"}],"anonymous":false},{"type":"event","name":"CrossChainDataReceived","inputs":[{"name":"action","type":"uint8","indexed":false,"internalType":"enum DeCupManager.CrossChainAction"},{"name":"saleId","type":"uint256","indexed":false,"internalType":"uint256"},{"name":"tokenId","type":"uint256","indexed":false,"internalType":"uint256"},{"name":"sellerAddress","type":"address","indexed":false,"internalType":"address"},{"name":"beneficiaryAddress","type":"address","indexed":false,"internalType":"address"},{"name":"chainId","type":"uint256","indexed":false,"internalType":"uint256"},{"name":"buyerAddress","type":"address","indexed":false,"internalType":"address"},{"name":"isBurn","type":"bool","indexed":false,"internalType":"bool"},{"name":"priceInUsd","type":"uint256","indexed":false,"internalType":"uint256"}],"anonymous":false},{"type":"event","name":"CrossChainDataSent","inputs":[{"name":"action","type":"uint8","indexed":false,"internalType":"enum DeCupManager.CrossChainAction"},{"name":"saleId","type":"uint256","indexed":false,"internalType":"uint256"},{"name":"tokenId","type":"uint256","indexed":false,"internalType":"uint256"},{"name":"sellerAddress","type":"address","indexed":false,"internalType":"address"},{"name":"beneficiaryAddress","type":"address","indexed":false,"internalType":"address"},{"name":"chainId","type":"uint256","indexed":false,"internalType":"uint256"},{"name":"buyerAddress","type":"address","indexed":false,"internalType":"address"},{"name":"isBurn","type":"bool","indexed":false,"internalType":"bool"},{"name":"priceInUsd","type":"uint256","indexed":false,"internalType":"uint256"}],"anonymous":false},{"type":"event","name":"CrossChainReceived","inputs":[{"name":"messageId","type":"bytes32","indexed":false,"internalType":"bytes32"},{"name":"sourceChainSelector","type":"uint64","indexed":false,"internalType":"uint64"},{"name":"destinationChainSelector","type":"uint64","indexed":false,"internalType":"uint64"}],"anonymous":false},{"type":"event","name":"CrossChainSent","inputs":[{"name":"messageId","type":"bytes32","indexed":false,"internalType":"bytes32"},{"name":"sourceChainSelector","type":"uint64","indexed":false,"internalType":"uint64"},{"name":"destinationChainSelector","type":"uint64","indexed":false,"internalType":"uint64"}],"anonymous":false},{"type":"event","name":"Deposit","inputs":[{"name":"user","type":"address","indexed":true,"internalType":"address"},{"name":"amount","type":"uint256","indexed":false,"internalType":"uint256"}],"anonymous":false},{"type":"event","name":"OwnershipTransferred","inputs":[{"name":"previousOwner","type":"address","indexed":true,"internalType":"address"},{"name":"newOwner","type":"address","indexed":true,"internalType":"address"}],"anonymous":false},{"type":"event","name":"SaleDeleted","inputs":[{"name":"saleId","type":"uint256","indexed":true,"internalType":"uint256"},{"name":"tokenId","type":"uint256","indexed":true,"internalType":"uint256"}],"anonymous":false},{"type":"event","name":"Withdraw","inputs":[{"name":"user","type":"address","indexed":true,"internalType":"address"},{"name":"amount","type":"uint256","indexed":false,"internalType":"uint256"}],"anonymous":false},{"type":"error","name":"DeCupManager__InsufficientETH","inputs":[]},{"type":"error","name":"DeCupManager__InsufficientFunds","inputs":[]},{"type":"error","name":"DeCupManager__InvalidAction","inputs":[]},{"type":"error","name":"DeCupManager__InvalidRouter","inputs":[{"name":"","type":"address","internalType":"address"},{"name":"","type":"uint256","internalType":"uint256"}]},{"type":"error","name":"DeCupManager__MoreThanZero","inputs":[]},{"type":"error","name":"DeCupManager__NotOwner","inputs":[]},{"type":"error","name":"DeCupManager__NotRouter","inputs":[]},{"type":"error","name":"DeCupManager__NotTokenOwner","inputs":[]},{"type":"error","name":"DeCupManager__SaleNotFound","inputs":[]},{"type":"error","name":"DeCupManager__TokenListedForSale","inputs":[]},{"type":"error","name":"DeCupManager__TokenNotListedForSale","inputs":[]},{"type":"error","name":"DeCupManager__TransferFailed","inputs":[]},{"type":"error","name":"InvalidRouter","inputs":[{"name":"router","type":"address","internalType":"address"}]},{"type":"error","name":"OwnableInvalidOwner","inputs":[{"name":"owner","type":"address","internalType":"address"}]},{"type":"error","name":"OwnableUnauthorizedAccount","inputs":[{"name":"account","type":"address","internalType":"address"}]},{"type":"error","name":"ReentrancyGuardReentrantCall","inputs":[]}],"bytecode":{"object":"0x60e06040525f60065f6101000a81548160ff02191690836001811115610028576100276105d8565b5b0217905550348015610038575f5ffd5b5060405161656c38038061656c833981810160405281019061005a91906108bd565b62aa36a746146100855780600181518110610078576100776109b6565b5b60200260200101516100a1565b805f81518110610098576100976109b6565b5b60200260200101515b335f73ffffffffffffffffffffffffffffffffffffffff168173ffffffffffffffffffffffffffffffffffffffff1603610112575f6040517f1e4fbdf700000000000000000000000000000000000000000000000000000000815260040161010991906109f2565b60405180910390fd5b6101218161051760201b60201c565b505f73ffffffffffffffffffffffffffffffffffffffff168173ffffffffffffffffffffffffffffffffffffffff1603610192575f6040517fd7f7333400000000000000000000000000000000000000000000000000000000815260040161018991906109f2565b60405180910390fd5b8073ffffffffffffffffffffffffffffffffffffffff1660808173ffffffffffffffffffffffffffffffffffffffff168152505050600180819055508560025f6101000a81548173ffffffffffffffffffffffffffffffffffffffff021916908373ffffffffffffffffffffffffffffffffffffffff1602179055508460045f6101000a81548173ffffffffffffffffffffffffffffffffffffffff021916908373ffffffffffffffffffffffffffffffffffffffff160217905550631dcd65006003819055505f5f90505b84518110156104035783818151811061027a576102796109b6565b5b602002602001015160095f878481518110610298576102976109b6565b5b602002602001015167ffffffffffffffff1681526020019081526020015f205f6101000a81548167ffffffffffffffff021916908367ffffffffffffffff1602179055508281815181106102ef576102ee6109b6565b5b6020026020010151600a5f87848151811061030d5761030c6109b6565b5b602002602001015167ffffffffffffffff1681526020019081526020015f205f6101000a81548173ffffffffffffffffffffffffffffffffffffffff021916908373ffffffffffffffffffffffffffffffffffffffff16021790555081818151811061037c5761037b6109b6565b5b6020026020010151600c5f87848151811061039a576103996109b6565b5b602002602001015167ffffffffffffffff1681526020019081526020015f205f6101000a81548173ffffffffffffffffffffffffffffffffffffffff021916908373ffffffffffffffffffffffffffffffffffffffff160217905550808060010191505061025e565b50600c5f4681526020019081526020015f205f9054906101000a900473ffffffffffffffffffffffffffffffffffffffff1673ffffffffffffffffffffffffffffffffffffffff1660808173ffffffffffffffffffffffffffffffffffffffff1681525050600a5f4681526020019081526020015f205f9054906101000a900473ffffffffffffffffffffffffffffffffffffffff1673ffffffffffffffffffffffffffffffffffffffff1660a08173ffffffffffffffffffffffffffffffffffffffff168152505060095f4681526020019081526020015f205f9054906101000a900467ffffffffffffffff1667ffffffffffffffff1660c08167ffffffffffffffff1681525050505050505050610a0b565b5f5f5f9054906101000a900473ffffffffffffffffffffffffffffffffffffffff169050815f5f6101000a81548173ffffffffffffffffffffffffffffffffffffffff021916908373ffffffffffffffffffffffffffffffffffffffff1602179055508173ffffffffffffffffffffffffffffffffffffffff168173ffffffffffffffffffffffffffffffffffffffff167f8be0079c531659141344cd1fd0a4f28419497f9722a3daafe3b4186f6b6457e060405160405180910390a35050565b7f4e487b71000000000000000000000000000000000000000000000000000000005f52602160045260245ffd5b5f604051905090565b5f5ffd5b5f5ffd5b5f73ffffffffffffffffffffffffffffffffffffffff82169050919050565b5f61063f82610616565b9050919050565b61064f81610635565b8114610659575f5ffd5b50565b5f8151905061066a81610646565b92915050565b5f5ffd5b5f601f19601f8301169050919050565b7f4e487b71000000000000000000000000000000000000000000000000000000005f52604160045260245ffd5b6106ba82610674565b810181811067ffffffffffffffff821117156106d9576106d8610684565b5b80604052505050565b5f6106eb610605565b90506106f782826106b1565b919050565b5f67ffffffffffffffff82111561071657610715610684565b5b602082029050602081019050919050565b5f5ffd5b5f67ffffffffffffffff82169050919050565b6107478161072b565b8114610751575f5ffd5b50565b5f815190506107628161073e565b92915050565b5f61077a610775846106fc565b6106e2565b9050808382526020820190506020840283018581111561079d5761079c610727565b5b835b818110156107c657806107b28882610754565b84526020840193505060208101905061079f565b5050509392505050565b5f82601f8301126107e4576107e3610670565b5b81516107f4848260208601610768565b91505092915050565b5f67ffffffffffffffff82111561081757610816610684565b5b602082029050602081019050919050565b5f61083a610835846107fd565b6106e2565b9050808382526020820190506020840283018581111561085d5761085c610727565b5b835b818110156108865780610872888261065c565b84526020840193505060208101905061085f565b5050509392505050565b5f82601f8301126108a4576108a3610670565b5b81516108b4848260208601610828565b91505092915050565b5f5f5f5f5f5f60c087890312156108d7576108d661060e565b5b5f6108e489828a0161065c565b96505060206108f589828a0161065c565b955050604087015167ffffffffffffffff81111561091657610915610612565b5b61092289828a016107d0565b945050606087015167ffffffffffffffff81111561094357610942610612565b5b61094f89828a016107d0565b935050608087015167ffffffffffffffff8111156109705761096f610612565b5b61097c89828a01610890565b92505060a087015167ffffffffffffffff81111561099d5761099c610612565b5b6109a989828a01610890565b9150509295509295509295565b7f4e487b71000000000000000000000000000000000000000000000000000000005f52603260045260245ffd5b6109ec81610635565b82525050565b5f602082019050610a055f8301846109e3565b92915050565b60805160a05160c051615b36610a365f395f50505f50505f8181611c6c01526127590152615b365ff3fe60806040526004361061021d575f3560e01c8063715018a61161012257806395f738e0116100aa578063b989733e1161006e578063b989733e1461080e578063bd94b0051461082a578063ebc2527e14610852578063f2fde38b1461088e578063feae6d3b146108b657610278565b806395f738e01461072c578063a0a8045e14610754578063b07dc25d1461077e578063b0f479a1146107ba578063b412d0bc146107e457610278565b806385572ffb116100f157806385572ffb1461064e57806386f7df7d146106765780638da5cb5b1461069e5780638f97a7c9146106c857806392e2106f146106f057610278565b8063715018a6146105a457806371ef4db5146105ba5780637ad157b9146105f65780638265809b1461061257610278565b806333e67012116101a557806348437e541161017457806348437e541461049e5780634b473a42146104da578063588cbd0e146105025780636b0b9b141461052c57806370a082311461056857610278565b806333e6701214610406578063368d2fb71461042e57806344353b591461044a578063474c43f51461047457610278565b806318e45b1f116101ec57806318e45b1f1461033a578063199dfcf9146103625780631bfc8a551461038a57806324600fc3146103c65780632f06c7d5146103dc57610278565b806301ffc9a71461027c5780630441b220146102b85780630f0f30b2146102f45780631638c0b51461031e57610278565b3661027857345f810361025c576040517fd81137a200000000000000000000000000000000000000000000000000000000815260040160405180910390fd5b6102646108f2565b61026e3334610938565b6102766109dd565b005b5f5ffd5b348015610287575f5ffd5b506102a2600480360381019061029d919061427c565b6109e6565b6040516102af91906142c1565b60405180910390f35b3480156102c3575f5ffd5b506102de60048036038101906102d9919061430d565b610ab7565b6040516102eb9190614347565b60405180910390f35b3480156102ff575f5ffd5b50610308610aea565b604051610315919061439f565b60405180910390f35b6103386004803603810190610333919061440c565b610b12565b005b348015610345575f5ffd5b50610360600480360381019061035b9190614470565b610fc2565b005b34801561036d575f5ffd5b506103886004803603810190610383919061430d565b611370565b005b348015610395575f5ffd5b506103b060048036038101906103ab919061430d565b6113be565b6040516103bd9190614347565b60405180910390f35b3480156103d1575f5ffd5b506103da6113f1565b005b3480156103e7575f5ffd5b506103f0611528565b6040516103fd9190614347565b60405180910390f35b348015610411575f5ffd5b5061042c6004803603810190610427919061430d565b611531565b005b610448600480360381019061044391906144ae565b61160c565b005b348015610455575f5ffd5b5061045e611ab4565b60405161046b919061439f565b60405180910390f35b34801561047f575f5ffd5b50610488611adc565b6040516104959190614347565b60405180910390f35b3480156104a9575f5ffd5b506104c460048036038101906104bf919061430d565b611aed565b6040516104d1919061439f565b60405180910390f35b3480156104e5575f5ffd5b5061050060048036038101906104fb919061454f565b611b26565b005b34801561050d575f5ffd5b50610516611c69565b604051610523919061439f565b60405180910390f35b348015610537575f5ffd5b50610552600480360381019061054d91906145c6565b611c90565b60405161055f91906147d3565b60405180910390f35b348015610573575f5ffd5b5061058e600480360381019061058991906147f3565b611e66565b60405161059b9190614347565b60405180910390f35b3480156105af575f5ffd5b506105b8611eac565b005b3480156105c5575f5ffd5b506105e060048036038101906105db91906145c6565b611ebf565b6040516105ed9190614347565b60405180910390f35b610610600480360381019061060b919061481e565b611ee9565b005b34801561061d575f5ffd5b50610638600480360381019061063391906145c6565b612437565b604051610645919061439f565b60405180910390f35b348015610659575f5ffd5b50610674600480360381019061066f9190614bc3565b612483565b005b348015610681575f5ffd5b5061069c60048036038101906106979190614470565b612516565b005b3480156106a9575f5ffd5b506106b2612581565b6040516106bf919061439f565b60405180910390f35b3480156106d3575f5ffd5b506106ee60048036038101906106e991906147f3565b6125a8565b005b3480156106fb575f5ffd5b506107166004803603810190610711919061430d565b61263a565b6040516107239190614c19565b60405180910390f35b348015610737575f5ffd5b50610752600480360381019061074d919061430d565b612667565b005b34801561075f575f5ffd5b50610768612689565b6040516107759190614347565b60405180910390f35b348015610789575f5ffd5b506107a4600480360381019061079f919061430d565b61272b565b6040516107b19190614347565b60405180910390f35b3480156107c5575f5ffd5b506107ce612756565b6040516107db919061439f565b60405180910390f35b3480156107ef575f5ffd5b506107f861277d565b6040516108059190614347565b60405180910390f35b610828600480360381019061082391906145c6565b612786565b005b348015610835575f5ffd5b50610850600480360381019061084b919061430d565b612aa9565b005b34801561085d575f5ffd5b506108786004803603810190610873919061430d565b612e7b565b604051610885919061439f565b60405180910390f35b348015610899575f5ffd5b506108b460048036038101906108af91906147f3565b612eb4565b005b3480156108c1575f5ffd5b506108dc60048036038101906108d7919061430d565b612f38565b6040516108e9919061439f565b60405180910390f35b60026001540361092e576040517f3ee5aeb500000000000000000000000000000000000000000000000000000000815260040160405180910390fd5b6002600181905550565b8060075f8473ffffffffffffffffffffffffffffffffffffffff1673ffffffffffffffffffffffffffffffffffffffff1681526020019081526020015f205f8282546109849190614c5f565b925050819055508173ffffffffffffffffffffffffffffffffffffffff167fe1fffcc4923d04b559f4d29a8bfc6cda04eb5b0d3c460751c2402c5c5cc9109c826040516109d19190614347565b60405180910390a25050565b60018081905550565b5f7f85572ffb000000000000000000000000000000000000000000000000000000007bffffffffffffffffffffffffffffffffffffffffffffffffffffffff1916827bffffffffffffffffffffffffffffffffffffffffffffffffffffffff19161480610ab057507f01ffc9a7000000000000000000000000000000000000000000000000000000007bffffffffffffffffffffffffffffffffffffffffffffffffffffffff1916827bffffffffffffffffffffffffffffffffffffffffffffffffffffffff1916145b9050919050565b5f5f610ac1612689565b670de0b6b3a764000084610ad59190614c92565b610adf9190614d00565b905080915050919050565b5f60045f9054906101000a900473ffffffffffffffffffffffffffffffffffffffff16905090565b610b1a6108f2565b5f60085f8481526020019081526020015f205f8681526020019081526020015f206040518060c00160405290815f8201548152602001600182015f9054906101000a900473ffffffffffffffffffffffffffffffffffffffff1673ffffffffffffffffffffffffffffffffffffffff1673ffffffffffffffffffffffffffffffffffffffff168152602001600282015f9054906101000a900473ffffffffffffffffffffffffffffffffffffffff1673ffffffffffffffffffffffffffffffffffffffff1673ffffffffffffffffffffffffffffffffffffffff168152602001600382015481526020016004820154815260200160058201805480602002602001604051908101604052809291908181526020015f905b82821015610cd9578382905f5260205f20018054610c4e90614d5d565b80601f0160208091040260200160405190810160405280929190818152602001828054610c7a90614d5d565b8015610cc55780601f10610c9c57610100808354040283529160200191610cc5565b820191905f5260205f20905b815481529060010190602001808311610ca857829003601f168201915b505050505081526020019060010190610c31565b505050508152505090505f610cef600354610ab7565b90505f610cff8360800151610ab7565b90508181610d0d9190614c5f565b341015610d46576040517f412ec26600000000000000000000000000000000000000000000000000000000815260040160405180910390fd5b826040015173ffffffffffffffffffffffffffffffffffffffff163373ffffffffffffffffffffffffffffffffffffffff16887f5d4ef204a82e5a2794239b1556edc7237f1376964ec4b3d717fab786106e681834604051610da89190614347565b60405180910390a4825f0151877fd31715670b013aa9eab6ed5fcc44a002d79ec0e50400958949be55711f898b7860405160405180910390a35f8234610dee9190614d8d565b90505f839050610e02856040015183610938565b610e0c3382610938565b5f610e16346113be565b905060085f8981526020019081526020015f205f8b81526020019081526020015f205f5f82015f9055600182015f6101000a81549073ffffffffffffffffffffffffffffffffffffffff0219169055600282015f6101000a81549073ffffffffffffffffffffffffffffffffffffffff0219169055600382015f9055600482015f9055600582015f610ea8919061409b565b5050600d5f8981526020019081526020015f205f875f015181526020019081526020015f205f90555f6040518060c00160405280600280811115610eef57610eee614dc0565b5b81526020018c81526020018b73ffffffffffffffffffffffffffffffffffffffff16815260200189151581526020018881526020018381525090507fc136c93abf788d70c05a4b0579ac7f54bebc39f1599174dd7ea4051b98213d86815f0151826020015183608001515f0151846080015160200151856080015160400151866080015160600151876040015188606001518960a00151604051610f9b99989796959493929190614e33565b60405180910390a1610fad8982612f71565b50505050505050610fbc6109dd565b50505050565b610fca6108f2565b60025f9054906101000a900473ffffffffffffffffffffffffffffffffffffffff1673ffffffffffffffffffffffffffffffffffffffff166391041959836040518263ffffffff1660e01b81526004016110249190614347565b602060405180830381865afa15801561103f573d5f5f3e3d5ffd5b505050506040513d601f19601f820116820180604052508101906110639190614ed2565b1561109a576040517fe3af9e1600000000000000000000000000000000000000000000000000000000815260040160405180910390fd5b3373ffffffffffffffffffffffffffffffffffffffff1660025f9054906101000a900473ffffffffffffffffffffffffffffffffffffffff1673ffffffffffffffffffffffffffffffffffffffff16636352211e846040518263ffffffff1660e01b815260040161110b9190614347565b602060405180830381865afa158015611126573d5f5f3e3d5ffd5b505050506040513d601f19601f8201168201806040525081019061114a9190614f11565b73ffffffffffffffffffffffffffffffffffffffff1614611197576040517f580c755900000000000000000000000000000000000000000000000000000000815260040160405180910390fd5b5f60025f9054906101000a900473ffffffffffffffffffffffffffffffffffffffff1673ffffffffffffffffffffffffffffffffffffffff1663900472e5846040518263ffffffff1660e01b81526004016111f29190614347565b5f60405180830381865afa15801561120c573d5f5f3e3d5ffd5b505050506040513d5f823e3d601f19601f8201168201806040525081019061123491906150b8565b90506112dc8333844660025f9054906101000a900473ffffffffffffffffffffffffffffffffffffffff1673ffffffffffffffffffffffffffffffffffffffff1663fdcd8d3a896040518263ffffffff1660e01b81526004016112979190614347565b602060405180830381865afa1580156112b2573d5f5f3e3d5ffd5b505050506040513d601f19601f820116820180604052508101906112d69190615113565b86613381565b60025f9054906101000a900473ffffffffffffffffffffffffffffffffffffffff1673ffffffffffffffffffffffffffffffffffffffff1663c7857fb5846040518263ffffffff1660e01b81526004016113369190614347565b5f604051808303815f87803b15801561134d575f5ffd5b505af115801561135f573d5f5f3e3d5ffd5b505050505061136c6109dd565b5050565b611378613566565b6113806108f2565b600b5f8281526020019081526020015f205f6101000a81549073ffffffffffffffffffffffffffffffffffffffff02191690556113bb6109dd565b50565b5f5f670de0b6b3a76400006113d1612689565b846113dc9190614c92565b6113e69190614d00565b905080915050919050565b6113f96108f2565b5f60075f3373ffffffffffffffffffffffffffffffffffffffff1673ffffffffffffffffffffffffffffffffffffffff1681526020019081526020015f205490505f8103611473576040517f2849d15300000000000000000000000000000000000000000000000000000000815260040160405180910390fd5b61147d33826135ed565b5f3373ffffffffffffffffffffffffffffffffffffffff16476040516114a29061516b565b5f6040518083038185875af1925050503d805f81146114dc576040519150601f19603f3d011682016040523d82523d5f602084013e6114e1565b606091505b505090508061151c576040517f3d33d02000000000000000000000000000000000000000000000000000000000815260040160405180910390fd5b50506115266109dd565b565b5f600554905090565b611539613566565b6115416108f2565b60095f8281526020019081526020015f205f6101000a81549067ffffffffffffffff0219169055600a5f8281526020019081526020015f205f6101000a81549073ffffffffffffffffffffffffffffffffffffffff0219169055600b5f8281526020019081526020015f205f6101000a81549073ffffffffffffffffffffffffffffffffffffffff0219169055600c5f8281526020019081526020015f205f6101000a81549073ffffffffffffffffffffffffffffffffffffffff02191690556116096109dd565b50565b345f8103611646576040517fd81137a200000000000000000000000000000000000000000000000000000000815260040160405180910390fd5b61164e6108f2565b5f61165a600354610ab7565b905080341015611696576040517f412ec26600000000000000000000000000000000000000000000000000000000815260040160405180910390fd5b60025f9054906101000a900473ffffffffffffffffffffffffffffffffffffffff1673ffffffffffffffffffffffffffffffffffffffff166391041959876040518263ffffffff1660e01b81526004016116f09190614347565b602060405180830381865afa15801561170b573d5f5f3e3d5ffd5b505050506040513d601f19601f8201168201806040525081019061172f9190614ed2565b15611766576040517fe3af9e1600000000000000000000000000000000000000000000000000000000815260040160405180910390fd5b3373ffffffffffffffffffffffffffffffffffffffff1660025f9054906101000a900473ffffffffffffffffffffffffffffffffffffffff1673ffffffffffffffffffffffffffffffffffffffff16636352211e886040518263ffffffff1660e01b81526004016117d79190614347565b602060405180830381865afa1580156117f2573d5f5f3e3d5ffd5b505050506040513d601f19601f820116820180604052508101906118169190614f11565b73ffffffffffffffffffffffffffffffffffffffff1614611863576040517f580c755900000000000000000000000000000000000000000000000000000000815260040160405180910390fd5b61186d3334610938565b3373ffffffffffffffffffffffffffffffffffffffff16867f97cd4fb3e66398f066bd26c867b8a454bee3e3457f68fbd350bf657b4d9013f94687876040516118b89392919061517f565b60405180910390a360025f9054906101000a900473ffffffffffffffffffffffffffffffffffffffff1673ffffffffffffffffffffffffffffffffffffffff1663c7857fb5876040518263ffffffff1660e01b815260040161191a9190614347565b5f604051808303815f87803b158015611931575f5ffd5b505af1158015611943573d5f5f3e3d5ffd5b505050505f60025f9054906101000a900473ffffffffffffffffffffffffffffffffffffffff1673ffffffffffffffffffffffffffffffffffffffff1663900472e5886040518263ffffffff1660e01b81526004016119a29190614347565b5f60405180830381865afa1580156119bc573d5f5f3e3d5ffd5b505050506040513d5f823e3d601f19601f820116820180604052508101906119e491906150b8565b90505f6040518060c001604052805f6002811115611a0557611a04614dc0565b5b81526020015f81526020015f73ffffffffffffffffffffffffffffffffffffffff1681526020015f151581526020016040518060c001604052808b81526020013373ffffffffffffffffffffffffffffffffffffffff1681526020018a73ffffffffffffffffffffffffffffffffffffffff1681526020014681526020018881526020018581525081526020015f8152509050611aa28682612f71565b505050611aad6109dd565b5050505050565b5f60025f9054906101000a900473ffffffffffffffffffffffffffffffffffffffff16905090565b5f611ae8600354610ab7565b905090565b5f600a5f8381526020019081526020015f205f9054906101000a900473ffffffffffffffffffffffffffffffffffffffff169050919050565b611b2e613566565b611b366108f2565b8360095f8781526020019081526020015f205f6101000a81548167ffffffffffffffff021916908367ffffffffffffffff16021790555082600a5f8781526020019081526020015f205f6101000a81548173ffffffffffffffffffffffffffffffffffffffff021916908373ffffffffffffffffffffffffffffffffffffffff16021790555081600b5f8781526020019081526020015f205f6101000a81548173ffffffffffffffffffffffffffffffffffffffff021916908373ffffffffffffffffffffffffffffffffffffffff16021790555080600c5f8781526020019081526020015f205f6101000a81548173ffffffffffffffffffffffffffffffffffffffff021916908373ffffffffffffffffffffffffffffffffffffffff160217905550611c626109dd565b5050505050565b5f7f0000000000000000000000000000000000000000000000000000000000000000905090565b611c986140b9565b60085f8481526020019081526020015f205f8381526020019081526020015f206040518060c00160405290815f8201548152602001600182015f9054906101000a900473ffffffffffffffffffffffffffffffffffffffff1673ffffffffffffffffffffffffffffffffffffffff1673ffffffffffffffffffffffffffffffffffffffff168152602001600282015f9054906101000a900473ffffffffffffffffffffffffffffffffffffffff1673ffffffffffffffffffffffffffffffffffffffff1673ffffffffffffffffffffffffffffffffffffffff168152602001600382015481526020016004820154815260200160058201805480602002602001604051908101604052809291908181526020015f905b82821015611e56578382905f5260205f20018054611dcb90614d5d565b80601f0160208091040260200160405190810160405280929190818152602001828054611df790614d5d565b8015611e425780601f10611e1957610100808354040283529160200191611e42565b820191905f5260205f20905b815481529060010190602001808311611e2557829003601f168201915b505050505081526020019060010190611dae565b5050505081525050905092915050565b5f60075f8373ffffffffffffffffffffffffffffffffffffffff1673ffffffffffffffffffffffffffffffffffffffff1681526020019081526020015f20549050919050565b611eb4613566565b611ebd5f613692565b565b5f600d5f8481526020019081526020015f205f8381526020019081526020015f2054905092915050565b611ef16108f2565b5f60085f4681526020019081526020015f205f8581526020019081526020015f206040518060c00160405290815f8201548152602001600182015f9054906101000a900473ffffffffffffffffffffffffffffffffffffffff1673ffffffffffffffffffffffffffffffffffffffff1673ffffffffffffffffffffffffffffffffffffffff168152602001600282015f9054906101000a900473ffffffffffffffffffffffffffffffffffffffff1673ffffffffffffffffffffffffffffffffffffffff1673ffffffffffffffffffffffffffffffffffffffff168152602001600382015481526020016004820154815260200160058201805480602002602001604051908101604052809291908181526020015f905b828210156120b0578382905f5260205f2001805461202590614d5d565b80601f016020809104026020016040519081016040528092919081815260200182805461205190614d5d565b801561209c5780601f106120735761010080835404028352916020019161209c565b820191905f5260205f20905b81548152906001019060200180831161207f57829003601f168201915b505050505081526020019060010190612008565b505050508152505090505f73ffffffffffffffffffffffffffffffffffffffff16816020015173ffffffffffffffffffffffffffffffffffffffff1603612123576040517f2366d0aa00000000000000000000000000000000000000000000000000000000815260040160405180910390fd5b5f815f0151905060025f9054906101000a900473ffffffffffffffffffffffffffffffffffffffff1673ffffffffffffffffffffffffffffffffffffffff166391041959826040518263ffffffff1660e01b81526004016121849190614347565b602060405180830381865afa15801561219f573d5f5f3e3d5ffd5b505050506040513d601f19601f820116820180604052508101906121c39190614ed2565b6121f9576040517f0e2ce6f400000000000000000000000000000000000000000000000000000000815260040160405180910390fd5b816020015173ffffffffffffffffffffffffffffffffffffffff1660025f9054906101000a900473ffffffffffffffffffffffffffffffffffffffff1673ffffffffffffffffffffffffffffffffffffffff16636352211e836040518263ffffffff1660e01b815260040161226e9190614347565b602060405180830381865afa158015612289573d5f5f3e3d5ffd5b505050506040513d601f19601f820116820180604052508101906122ad9190614f11565b73ffffffffffffffffffffffffffffffffffffffff16146122fa576040517f580c755900000000000000000000000000000000000000000000000000000000815260040160405180910390fd5b5f826080015190505f61230c82610ab7565b905080341015612348576040517f412ec26600000000000000000000000000000000000000000000000000000000815260040160405180910390fd5b3373ffffffffffffffffffffffffffffffffffffffff16877f3b599f6217e39be59216b60e543ce0d4c7d534fe64dd9d962334924e7819894e8360405161238f9190614347565b60405180910390a3835f0151877fd31715670b013aa9eab6ed5fcc44a002d79ec0e50400958949be55711f898b7860405160405180910390a36123d6846040015182610938565b5f6123eb88865f015187602001518a8a613753565b91505080612425576040517f3d33d02000000000000000000000000000000000000000000000000000000000815260040160405180910390fd5b50505050506124326109dd565b505050565b5f60085f8381526020019081526020015f205f8481526020019081526020015f206001015f9054906101000a900473ffffffffffffffffffffffffffffffffffffffff16905092915050565b61248b612756565b73ffffffffffffffffffffffffffffffffffffffff163373ffffffffffffffffffffffffffffffffffffffff16146124fa57336040517fd7f733340000000000000000000000000000000000000000000000000000000081526004016124f1919061439f565b60405180910390fd5b6125026108f2565b61250b81613ad2565b6125136109dd565b50565b61251e613566565b6125266108f2565b80600b5f8481526020019081526020015f205f6101000a81548173ffffffffffffffffffffffffffffffffffffffff021916908373ffffffffffffffffffffffffffffffffffffffff16021790555061257d6109dd565b5050565b5f5f5f9054906101000a900473ffffffffffffffffffffffffffffffffffffffff16905090565b6125b0613566565b60025f9054906101000a900473ffffffffffffffffffffffffffffffffffffffff1673ffffffffffffffffffffffffffffffffffffffff1663f2fde38b826040518263ffffffff1660e01b815260040161260a919061439f565b5f604051808303815f87803b158015612621575f5ffd5b505af1158015612633573d5f5f3e3d5ffd5b5050505050565b5f60095f8381526020019081526020015f205f9054906101000a900467ffffffffffffffff169050919050565b61266f613566565b6126776108f2565b806003819055506126866109dd565b50565b5f5f60045f9054906101000a900473ffffffffffffffffffffffffffffffffffffffff1690505f8173ffffffffffffffffffffffffffffffffffffffff1663feaf968c6040518163ffffffff1660e01b815260040160a060405180830381865afa1580156126f9573d5f5f3e3d5ffd5b505050506040513d601f19601f8201168201806040525081019061271d9190615226565b505050915050809250505090565b5f5f61273683610ab7565b9050612743600354610ab7565b8161274e9190614c5f565b915050919050565b5f7f0000000000000000000000000000000000000000000000000000000000000000905090565b5f600354905090565b61278e6108f2565b5f61279a600354610ab7565b9050803410156127d6576040517f412ec26600000000000000000000000000000000000000000000000000000000815260040160405180910390fd5b60025f9054906101000a900473ffffffffffffffffffffffffffffffffffffffff1673ffffffffffffffffffffffffffffffffffffffff166391041959836040518263ffffffff1660e01b81526004016128309190614347565b602060405180830381865afa15801561284b573d5f5f3e3d5ffd5b505050506040513d601f19601f8201168201806040525081019061286f9190614ed2565b6128a5576040517f0e2ce6f400000000000000000000000000000000000000000000000000000000815260040160405180910390fd5b817f59e7729e8b8ff96f5343fdd7b1f614b4ff3b085a0c438e48b5d025213a64e87960405160405180910390a2815f7fd31715670b013aa9eab6ed5fcc44a002d79ec0e50400958949be55711f898b7860405160405180910390a361290a3334610938565b60025f9054906101000a900473ffffffffffffffffffffffffffffffffffffffff1673ffffffffffffffffffffffffffffffffffffffff16631361a3b6836040518263ffffffff1660e01b81526004016129649190614347565b5f604051808303815f87803b15801561297b575f5ffd5b505af115801561298d573d5f5f3e3d5ffd5b505050505f6040518060c00160405280600160028111156129b1576129b0614dc0565b5b81526020015f81526020015f73ffffffffffffffffffffffffffffffffffffffff1681526020015f151581526020016040518060c001604052808681526020013373ffffffffffffffffffffffffffffffffffffffff1681526020013373ffffffffffffffffffffffffffffffffffffffff1681526020018781526020015f81526020015f67ffffffffffffffff811115612a4f57612a4e614872565b5b604051908082528060200260200182016040528015612a8257816020015b6060815260200190600190039081612a6d5790505b5081525081526020015f8152509050612a9b8482612f71565b5050612aa56109dd565b5050565b612ab16108f2565b5f600d5f4681526020019081526020015f205f8381526020019081526020015f205490505f60085f4681526020019081526020015f205f8381526020019081526020015f206040518060c00160405290815f8201548152602001600182015f9054906101000a900473ffffffffffffffffffffffffffffffffffffffff1673ffffffffffffffffffffffffffffffffffffffff1673ffffffffffffffffffffffffffffffffffffffff168152602001600282015f9054906101000a900473ffffffffffffffffffffffffffffffffffffffff1673ffffffffffffffffffffffffffffffffffffffff1673ffffffffffffffffffffffffffffffffffffffff168152602001600382015481526020016004820154815260200160058201805480602002602001604051908101604052809291908181526020015f905b82821015612c94578382905f5260205f20018054612c0990614d5d565b80601f0160208091040260200160405190810160405280929190818152602001828054612c3590614d5d565b8015612c805780601f10612c5757610100808354040283529160200191612c80565b820191905f5260205f20905b815481529060010190602001808311612c6357829003601f168201915b505050505081526020019060010190612bec565b505050508152505090505f73ffffffffffffffffffffffffffffffffffffffff16816020015173ffffffffffffffffffffffffffffffffffffffff1603612d07576040517f2366d0aa00000000000000000000000000000000000000000000000000000000815260040160405180910390fd5b60025f9054906101000a900473ffffffffffffffffffffffffffffffffffffffff1673ffffffffffffffffffffffffffffffffffffffff166391041959825f01516040518263ffffffff1660e01b8152600401612d649190614347565b602060405180830381865afa158015612d7f573d5f5f3e3d5ffd5b505050506040513d601f19601f82011682018060405250810190612da39190614ed2565b612dd9576040517f0e2ce6f400000000000000000000000000000000000000000000000000000000815260040160405180910390fd5b612de4833346613d27565b60025f9054906101000a900473ffffffffffffffffffffffffffffffffffffffff1673ffffffffffffffffffffffffffffffffffffffff16631361a3b6825f01516040518263ffffffff1660e01b8152600401612e419190614347565b5f604051808303815f87803b158015612e58575f5ffd5b505af1158015612e6a573d5f5f3e3d5ffd5b505050505050612e786109dd565b50565b5f600b5f8381526020019081526020015f205f9054906101000a900473ffffffffffffffffffffffffffffffffffffffff169050919050565b612ebc613566565b5f73ffffffffffffffffffffffffffffffffffffffff168173ffffffffffffffffffffffffffffffffffffffff1603612f2c575f6040517f1e4fbdf7000000000000000000000000000000000000000000000000000000008152600401612f23919061439f565b60405180910390fd5b612f3581613692565b50565b5f600c5f8381526020019081526020015f205f9054906101000a900473ffffffffffffffffffffffffffffffffffffffff169050919050565b5f60095f4681526020019081526020015f205f9054906101000a900467ffffffffffffffff1690505f60095f8581526020019081526020015f205f9054906101000a900467ffffffffffffffff1690505f600a5f4681526020019081526020015f205f9054906101000a900473ffffffffffffffffffffffffffffffffffffffff1690505f600c5f4681526020019081526020015f205f9054906101000a900473ffffffffffffffffffffffffffffffffffffffff1690505f6040518060a00160405280600b5f8a81526020019081526020015f205f9054906101000a900473ffffffffffffffffffffffffffffffffffffffff16604051602001613076919061439f565b60405160208183030381529060405281526020018760405160200161309b91906153c7565b60405160208183030381529060405281526020015f67ffffffffffffffff8111156130c9576130c8614872565b5b60405190808252806020026020018201604052801561310257816020015b6130ef614116565b8152602001906001900390816130e75790505b50815260200160018081111561311b5761311a614dc0565b5b60065f9054906101000a900460ff16600181111561313c5761313b614dc0565b5b14613147575f613149565b845b73ffffffffffffffffffffffffffffffffffffffff16815260200160405180602001604052805f81525081525090505f8273ffffffffffffffffffffffffffffffffffffffff166320487ded86846040518363ffffffff1660e01b81526004016131b4929190615596565b602060405180830381865afa1580156131cf573d5f5f3e3d5ffd5b505050506040513d601f19601f820116820180604052508101906131f39190615113565b90505f61320033836135ed565b60018081111561321357613212614dc0565b5b60065f9054906101000a900460ff16600181111561323457613233614dc0565b5b036132bb578373ffffffffffffffffffffffffffffffffffffffff166396f4e9f987856040518363ffffffff1660e01b8152600401613274929190615596565b6020604051808303815f875af1158015613290573d5f5f3e3d5ffd5b505050506040513d601f19601f820116820180604052508101906132b491906155d8565b905061333b565b8373ffffffffffffffffffffffffffffffffffffffff166396f4e9f98388866040518463ffffffff1660e01b81526004016132f7929190615596565b60206040518083038185885af1158015613313573d5f5f3e3d5ffd5b50505050506040513d601f19601f8201168201806040525081019061333891906155d8565b90505b7f335d5a62e36301effb6a9c20dc36fabe446f4c19430d21437add0a61a406d02881888860405161336e93929190615612565b60405180910390a1505050505050505050565b5f60055490505f6040518060c001604052808981526020018873ffffffffffffffffffffffffffffffffffffffff1681526020018773ffffffffffffffffffffffffffffffffffffffff1681526020018681526020018581526020018481525090508060085f8781526020019081526020015f205f8481526020019081526020015f205f820151815f01556020820151816001015f6101000a81548173ffffffffffffffffffffffffffffffffffffffff021916908373ffffffffffffffffffffffffffffffffffffffff1602179055506040820151816002015f6101000a81548173ffffffffffffffffffffffffffffffffffffffff021916908373ffffffffffffffffffffffffffffffffffffffff160217905550606082015181600301556080820151816004015560a08201518160050190805190602001906134c8929190614144565b5090505081600d5f8781526020019081526020015f205f8a81526020019081526020015f208190555060055f81548092919061350390615647565b91905055508673ffffffffffffffffffffffffffffffffffffffff1688837f2f3db60459af0af5d3b21c32118f55f01d239ce41f1e0cf3461dcb782dbe223e4689896040516135549392919061517f565b60405180910390a45050505050505050565b61356e614094565b73ffffffffffffffffffffffffffffffffffffffff1661358c612581565b73ffffffffffffffffffffffffffffffffffffffff16146135eb576135af614094565b6040517f118cdaa70000000000000000000000000000000000000000000000000000000081526004016135e2919061439f565b60405180910390fd5b565b8060075f8473ffffffffffffffffffffffffffffffffffffffff1673ffffffffffffffffffffffffffffffffffffffff1681526020019081526020015f205f8282546136399190614d8d565b925050819055508173ffffffffffffffffffffffffffffffffffffffff167f884edad9ce6fa2440d8a54cc123490eb96d2768479d49ff9c7366125a9424364826040516136869190614347565b60405180910390a25050565b5f5f5f9054906101000a900473ffffffffffffffffffffffffffffffffffffffff169050815f5f6101000a81548173ffffffffffffffffffffffffffffffffffffffff021916908373ffffffffffffffffffffffffffffffffffffffff1602179055508173ffffffffffffffffffffffffffffffffffffffff168173ffffffffffffffffffffffffffffffffffffffff167f8be0079c531659141344cd1fd0a4f28419497f9722a3daafe3b4186f6b6457e060405160405180910390a35050565b5f5f5f5f90508573ffffffffffffffffffffffffffffffffffffffff1660025f9054906101000a900473ffffffffffffffffffffffffffffffffffffffff1673ffffffffffffffffffffffffffffffffffffffff16636352211e896040518263ffffffff1660e01b81526004016137ca9190614347565b602060405180830381865afa1580156137e5573d5f5f3e3d5ffd5b505050506040513d601f19601f820116820180604052508101906138099190614f11565b73ffffffffffffffffffffffffffffffffffffffff1614613856576040517f7ff80cd000000000000000000000000000000000000000000000000000000000815260040160405180910390fd5b60085f4681526020019081526020015f205f8981526020019081526020015f205f5f82015f9055600182015f6101000a81549073ffffffffffffffffffffffffffffffffffffffff0219169055600282015f6101000a81549073ffffffffffffffffffffffffffffffffffffffff0219169055600382015f9055600482015f9055600582015f6138e6919061409b565b5050600d5f4681526020019081526020015f205f8881526020019081526020015f205f905583156139eb5760025f9054906101000a900473ffffffffffffffffffffffffffffffffffffffff1673ffffffffffffffffffffffffffffffffffffffff1663fcb75eae88876040518363ffffffff1660e01b815260040161396d92919061568e565b6020604051808303815f875af1158015613989573d5f5f3e3d5ffd5b505050506040513d601f19601f820116820180604052508101906139ad9190614ed2565b9050806139e6576040517f3d33d02000000000000000000000000000000000000000000000000000000000815260040160405180910390fd5b613ac1565b60025f9054906101000a900473ffffffffffffffffffffffffffffffffffffffff1673ffffffffffffffffffffffffffffffffffffffff1663b7760c8f88876040518363ffffffff1660e01b8152600401613a4792919061568e565b6020604051808303815f875af1158015613a63573d5f5f3e3d5ffd5b505050506040513d601f19601f82011682018060405250810190613a879190614ed2565b905080613ac0576040517f3d33d02000000000000000000000000000000000000000000000000000000000815260040160405180910390fd5b5b878192509250509550959350505050565b5f8160600151806020019051810190613aeb919061584a565b90507f46844d4d9d07fd01f84c55245ba4615666e0d9ef2073d1541a326d030734669a825f0151836020015160095f4681526020019081526020015f205f9054906101000a900467ffffffffffffffff16604051613b4b93929190615612565b60405180910390a17f920ca03615b3475f829fc9a50bed81845f1b5cd86e36a442d03334ac7d859a01815f0151826020015183608001515f0151846080015160200151856080015160400151866080015160600151876040015188606001518960a00151604051613bc499989796959493929190614e33565b60405180910390a15f6002811115613bdf57613bde614dc0565b5b815f01516002811115613bf557613bf4614dc0565b5b03613c3c57613c3781608001515f0151826080015160200151836080015160400151846080015160600151856080015160800151866080015160a00151613381565b613d23565b60016002811115613c5057613c4f614dc0565b5b815f01516002811115613c6657613c65614dc0565b5b03613c9257613c8d81608001515f0151826080015160200151836080015160600151613d27565b613d22565b600280811115613ca557613ca4614dc0565b5b815f01516002811115613cbb57613cba614dc0565b5b03613cef57613ce8816020015182608001515f015183608001516020015184604001518560600151613753565b5050613d21565b6040517f5768651c00000000000000000000000000000000000000000000000000000000815260040160405180910390fd5b5b5b5050565b5f600d5f8381526020019081526020015f205f8581526020019081526020015f205490505f60085f8481526020019081526020015f205f8381526020019081526020015f206040518060c00160405290815f8201548152602001600182015f9054906101000a900473ffffffffffffffffffffffffffffffffffffffff1673ffffffffffffffffffffffffffffffffffffffff1673ffffffffffffffffffffffffffffffffffffffff168152602001600282015f9054906101000a900473ffffffffffffffffffffffffffffffffffffffff1673ffffffffffffffffffffffffffffffffffffffff1673ffffffffffffffffffffffffffffffffffffffff168152602001600382015481526020016004820154815260200160058201805480602002602001604051908101604052809291908181526020015f905b82821015613f0a578382905f5260205f20018054613e7f90614d5d565b80601f0160208091040260200160405190810160405280929190818152602001828054613eab90614d5d565b8015613ef65780601f10613ecd57610100808354040283529160200191613ef6565b820191905f5260205f20905b815481529060010190602001808311613ed957829003601f168201915b505050505081526020019060010190613e62565b505050508152505090508373ffffffffffffffffffffffffffffffffffffffff16816020015173ffffffffffffffffffffffffffffffffffffffff1614613f7d576040517f580c755900000000000000000000000000000000000000000000000000000000815260040160405180910390fd5b60085f8481526020019081526020015f205f8381526020019081526020015f205f5f82015f9055600182015f6101000a81549073ffffffffffffffffffffffffffffffffffffffff0219169055600282015f6101000a81549073ffffffffffffffffffffffffffffffffffffffff0219169055600382015f9055600482015f9055600582015f61400d919061409b565b5050600d5f8481526020019081526020015f205f8681526020019081526020015f205f9055817f6ecd7b702bc398299b70a9c417b14d16835121b9df1f7b3036ccf42ee990f6d460405160405180910390a284827fd31715670b013aa9eab6ed5fcc44a002d79ec0e50400958949be55711f898b7860405160405180910390a35050505050565b5f33905090565b5080545f8255905f5260205f20908101906140b6919061419b565b50565b6040518060c001604052805f81526020015f73ffffffffffffffffffffffffffffffffffffffff1681526020015f73ffffffffffffffffffffffffffffffffffffffff1681526020015f81526020015f8152602001606081525090565b60405180604001604052805f73ffffffffffffffffffffffffffffffffffffffff1681526020015f81525090565b828054828255905f5260205f2090810192821561418a579160200282015b828111156141895782518290816141799190615a31565b5091602001919060010190614162565b5b509050614197919061419b565b5090565b5b808211156141ba575f81816141b191906141be565b5060010161419c565b5090565b5080546141ca90614d5d565b5f825580601f106141db57506141f8565b601f0160209004905f5260205f20908101906141f791906141fb565b5b50565b5b80821115614212575f815f9055506001016141fc565b5090565b5f604051905090565b5f5ffd5b5f5ffd5b5f7fffffffff0000000000000000000000000000000000000000000000000000000082169050919050565b61425b81614227565b8114614265575f5ffd5b50565b5f8135905061427681614252565b92915050565b5f602082840312156142915761429061421f565b5b5f61429e84828501614268565b91505092915050565b5f8115159050919050565b6142bb816142a7565b82525050565b5f6020820190506142d45f8301846142b2565b92915050565b5f819050919050565b6142ec816142da565b81146142f6575f5ffd5b50565b5f81359050614307816142e3565b92915050565b5f602082840312156143225761432161421f565b5b5f61432f848285016142f9565b91505092915050565b614341816142da565b82525050565b5f60208201905061435a5f830184614338565b92915050565b5f73ffffffffffffffffffffffffffffffffffffffff82169050919050565b5f61438982614360565b9050919050565b6143998161437f565b82525050565b5f6020820190506143b25f830184614390565b92915050565b6143c18161437f565b81146143cb575f5ffd5b50565b5f813590506143dc816143b8565b92915050565b6143eb816142a7565b81146143f5575f5ffd5b50565b5f81359050614406816143e2565b92915050565b5f5f5f5f608085870312156144245761442361421f565b5b5f614431878288016142f9565b9450506020614442878288016143ce565b9350506040614453878288016142f9565b9250506060614464878288016143f8565b91505092959194509250565b5f5f604083850312156144865761448561421f565b5b5f614493858286016142f9565b92505060206144a4858286016143ce565b9150509250929050565b5f5f5f5f608085870312156144c6576144c561421f565b5b5f6144d3878288016142f9565b94505060206144e4878288016143ce565b93505060406144f5878288016142f9565b9250506060614506878288016142f9565b91505092959194509250565b5f67ffffffffffffffff82169050919050565b61452e81614512565b8114614538575f5ffd5b50565b5f8135905061454981614525565b92915050565b5f5f5f5f5f60a086880312156145685761456761421f565b5b5f614575888289016142f9565b95505060206145868882890161453b565b9450506040614597888289016143ce565b93505060606145a8888289016143ce565b92505060806145b9888289016143ce565b9150509295509295909350565b5f5f604083850312156145dc576145db61421f565b5b5f6145e9858286016142f9565b92505060206145fa858286016142f9565b9150509250929050565b61460d816142da565b82525050565b61461c8161437f565b82525050565b5f81519050919050565b5f82825260208201905092915050565b5f819050602082019050919050565b5f81519050919050565b5f82825260208201905092915050565b8281835e5f83830152505050565b5f601f19601f8301169050919050565b5f61468d8261464b565b6146978185614655565b93506146a7818560208601614665565b6146b081614673565b840191505092915050565b5f6146c68383614683565b905092915050565b5f602082019050919050565b5f6146e482614622565b6146ee818561462c565b9350836020820285016147008561463c565b805f5b8581101561473b578484038952815161471c85826146bb565b9450614727836146ce565b925060208a01995050600181019050614703565b50829750879550505050505092915050565b5f60c083015f8301516147625f860182614604565b5060208301516147756020860182614613565b5060408301516147886040860182614613565b50606083015161479b6060860182614604565b5060808301516147ae6080860182614604565b5060a083015184820360a08601526147c682826146da565b9150508091505092915050565b5f6020820190508181035f8301526147eb818461474d565b905092915050565b5f602082840312156148085761480761421f565b5b5f614815848285016143ce565b91505092915050565b5f5f5f606084860312156148355761483461421f565b5b5f614842868287016142f9565b9350506020614853868287016143ce565b9250506040614864868287016143f8565b9150509250925092565b5f5ffd5b7f4e487b71000000000000000000000000000000000000000000000000000000005f52604160045260245ffd5b6148a882614673565b810181811067ffffffffffffffff821117156148c7576148c6614872565b5b80604052505050565b5f6148d9614216565b90506148e5828261489f565b919050565b5f5ffd5b5f819050919050565b614900816148ee565b811461490a575f5ffd5b50565b5f8135905061491b816148f7565b92915050565b5f5ffd5b5f5ffd5b5f67ffffffffffffffff82111561494357614942614872565b5b61494c82614673565b9050602081019050919050565b828183375f83830152505050565b5f61497961497484614929565b6148d0565b90508281526020810184848401111561499557614994614925565b5b6149a0848285614959565b509392505050565b5f82601f8301126149bc576149bb614921565b5b81356149cc848260208601614967565b91505092915050565b5f67ffffffffffffffff8211156149ef576149ee614872565b5b602082029050602081019050919050565b5f5ffd5b5f60408284031215614a1957614a1861486e565b5b614a2360406148d0565b90505f614a32848285016143ce565b5f830152506020614a45848285016142f9565b60208301525092915050565b5f614a63614a5e846149d5565b6148d0565b90508083825260208201905060408402830185811115614a8657614a85614a00565b5b835b81811015614aaf5780614a9b8882614a04565b845260208401935050604081019050614a88565b5050509392505050565b5f82601f830112614acd57614acc614921565b5b8135614add848260208601614a51565b91505092915050565b5f60a08284031215614afb57614afa61486e565b5b614b0560a06148d0565b90505f614b148482850161490d565b5f830152506020614b278482850161453b565b602083015250604082013567ffffffffffffffff811115614b4b57614b4a6148ea565b5b614b57848285016149a8565b604083015250606082013567ffffffffffffffff811115614b7b57614b7a6148ea565b5b614b87848285016149a8565b606083015250608082013567ffffffffffffffff811115614bab57614baa6148ea565b5b614bb784828501614ab9565b60808301525092915050565b5f60208284031215614bd857614bd761421f565b5b5f82013567ffffffffffffffff811115614bf557614bf4614223565b5b614c0184828501614ae6565b91505092915050565b614c1381614512565b82525050565b5f602082019050614c2c5f830184614c0a565b92915050565b7f4e487b71000000000000000000000000000000000000000000000000000000005f52601160045260245ffd5b5f614c69826142da565b9150614c74836142da565b9250828201905080821115614c8c57614c8b614c32565b5b92915050565b5f614c9c826142da565b9150614ca7836142da565b9250828202614cb5816142da565b91508282048414831517614ccc57614ccb614c32565b5b5092915050565b7f4e487b71000000000000000000000000000000000000000000000000000000005f52601260045260245ffd5b5f614d0a826142da565b9150614d15836142da565b925082614d2557614d24614cd3565b5b828204905092915050565b7f4e487b71000000000000000000000000000000000000000000000000000000005f52602260045260245ffd5b5f6002820490506001821680614d7457607f821691505b602082108103614d8757614d86614d30565b5b50919050565b5f614d97826142da565b9150614da2836142da565b9250828203905081811115614dba57614db9614c32565b5b92915050565b7f4e487b71000000000000000000000000000000000000000000000000000000005f52602160045260245ffd5b60038110614dfe57614dfd614dc0565b5b50565b5f819050614e0e82614ded565b919050565b5f614e1d82614e01565b9050919050565b614e2d81614e13565b82525050565b5f61012082019050614e475f83018c614e24565b614e54602083018b614338565b614e61604083018a614338565b614e6e6060830189614390565b614e7b6080830188614390565b614e8860a0830187614338565b614e9560c0830186614390565b614ea260e08301856142b2565b614eb0610100830184614338565b9a9950505050505050505050565b5f81519050614ecc816143e2565b92915050565b5f60208284031215614ee757614ee661421f565b5b5f614ef484828501614ebe565b91505092915050565b5f81519050614f0b816143b8565b92915050565b5f60208284031215614f2657614f2561421f565b5b5f614f3384828501614efd565b91505092915050565b5f67ffffffffffffffff821115614f5657614f55614872565b5b602082029050602081019050919050565b5f67ffffffffffffffff821115614f8157614f80614872565b5b614f8a82614673565b9050602081019050919050565b5f614fa9614fa484614f67565b6148d0565b905082815260208101848484011115614fc557614fc4614925565b5b614fd0848285614665565b509392505050565b5f82601f830112614fec57614feb614921565b5b8151614ffc848260208601614f97565b91505092915050565b5f61501761501284614f3c565b6148d0565b9050808382526020820190506020840283018581111561503a57615039614a00565b5b835b8181101561508157805167ffffffffffffffff81111561505f5761505e614921565b5b80860161506c8982614fd8565b8552602085019450505060208101905061503c565b5050509392505050565b5f82601f83011261509f5761509e614921565b5b81516150af848260208601615005565b91505092915050565b5f602082840312156150cd576150cc61421f565b5b5f82015167ffffffffffffffff8111156150ea576150e9614223565b5b6150f68482850161508b565b91505092915050565b5f8151905061510d816142e3565b92915050565b5f602082840312156151285761512761421f565b5b5f615135848285016150ff565b91505092915050565b5f81905092915050565b50565b5f6151565f8361513e565b915061516182615148565b5f82019050919050565b5f6151758261514b565b9150819050919050565b5f6060820190506151925f830186614338565b61519f6020830185614338565b6151ac6040830184614338565b949350505050565b5f69ffffffffffffffffffff82169050919050565b6151d2816151b4565b81146151dc575f5ffd5b50565b5f815190506151ed816151c9565b92915050565b5f819050919050565b615205816151f3565b811461520f575f5ffd5b50565b5f81519050615220816151fc565b92915050565b5f5f5f5f5f60a0868803121561523f5761523e61421f565b5b5f61524c888289016151df565b955050602061525d88828901615212565b945050604061526e888289016150ff565b935050606061527f888289016150ff565b9250506080615290888289016151df565b9150509295509295909350565b6152a681614e13565b82525050565b6152b5816142a7565b82525050565b5f60c083015f8301516152d05f860182614604565b5060208301516152e36020860182614613565b5060408301516152f66040860182614613565b5060608301516153096060860182614604565b50608083015161531c6080860182614604565b5060a083015184820360a086015261533482826146da565b9150508091505092915050565b5f60c083015f8301516153565f86018261529d565b5060208301516153696020860182614604565b50604083015161537c6040860182614613565b50606083015161538f60608601826152ac565b50608083015184820360808601526153a782826152bb565b91505060a08301516153bc60a0860182614604565b508091505092915050565b5f6020820190508181035f8301526153df8184615341565b905092915050565b5f81519050919050565b5f82825260208201905092915050565b5f61540b826153e7565b61541581856153f1565b9350615425818560208601614665565b61542e81614673565b840191505092915050565b5f81519050919050565b5f82825260208201905092915050565b5f819050602082019050919050565b604082015f8201516154765f850182614613565b5060208201516154896020850182614604565b50505050565b5f61549a8383615462565b60408301905092915050565b5f602082019050919050565b5f6154bc82615439565b6154c68185615443565b93506154d183615453565b805f5b838110156155015781516154e8888261548f565b97506154f3836154a6565b9250506001810190506154d4565b5085935050505092915050565b5f60a083015f8301518482035f8601526155288282615401565b915050602083015184820360208601526155428282615401565b9150506040830151848203604086015261555c82826154b2565b91505060608301516155716060860182614613565b50608083015184820360808601526155898282615401565b9150508091505092915050565b5f6040820190506155a95f830185614c0a565b81810360208301526155bb818461550e565b90509392505050565b5f815190506155d2816148f7565b92915050565b5f602082840312156155ed576155ec61421f565b5b5f6155fa848285016155c4565b91505092915050565b61560c816148ee565b82525050565b5f6060820190506156255f830186615603565b6156326020830185614c0a565b61563f6040830184614c0a565b949350505050565b5f615651826142da565b91507fffffffffffffffffffffffffffffffffffffffffffffffffffffffffffffffff820361568357615682614c32565b5b600182019050919050565b5f6040820190506156a15f830185614338565b6156ae6020830184614390565b9392505050565b600381106156c1575f5ffd5b50565b5f815190506156d2816156b5565b92915050565b5f60c082840312156156ed576156ec61486e565b5b6156f760c06148d0565b90505f615706848285016150ff565b5f83015250602061571984828501614efd565b602083015250604061572d84828501614efd565b6040830152506060615741848285016150ff565b6060830152506080615755848285016150ff565b60808301525060a082015167ffffffffffffffff811115615779576157786148ea565b5b6157858482850161508b565b60a08301525092915050565b5f60c082840312156157a6576157a561486e565b5b6157b060c06148d0565b90505f6157bf848285016156c4565b5f8301525060206157d2848285016150ff565b60208301525060406157e684828501614efd565b60408301525060606157fa84828501614ebe565b606083015250608082015167ffffffffffffffff81111561581e5761581d6148ea565b5b61582a848285016156d8565b60808301525060a061583e848285016150ff565b60a08301525092915050565b5f6020828403121561585f5761585e61421f565b5b5f82015167ffffffffffffffff81111561587c5761587b614223565b5b61588884828501615791565b91505092915050565b5f819050815f5260205f209050919050565b5f6020601f8301049050919050565b5f82821b905092915050565b5f600883026158ed7fffffffffffffffffffffffffffffffffffffffffffffffffffffffffffffffff826158b2565b6158f786836158b2565b95508019841693508086168417925050509392505050565b5f819050919050565b5f61593261592d615928846142da565b61590f565b6142da565b9050919050565b5f819050919050565b61594b83615918565b61595f61595782615939565b8484546158be565b825550505050565b5f5f905090565b615976615967565b615981818484615942565b505050565b5b818110156159a4576159995f8261596e565b600181019050615987565b5050565b601f8211156159e9576159ba81615891565b6159c3846158a3565b810160208510156159d2578190505b6159e66159de856158a3565b830182615986565b50505b505050565b5f82821c905092915050565b5f615a095f19846008026159ee565b1980831691505092915050565b5f615a2183836159fa565b9150826002028217905092915050565b615a3a8261464b565b67ffffffffffffffff811115615a5357615a52614872565b5b615a5d8254614d5d565b615a688282856159a8565b5f60209050601f831160018114615a99575f8415615a87578287015190505b615a918582615a16565b865550615af8565b601f198416615aa786615891565b5f5b82811015615ace57848901518255600182019150602085019450602081019050615aa9565b86831015615aeb5784890151615ae7601f8916826159fa565b8355505b6001600288020188555050505b50505050505056fea2646970667358221220baacd805c7d28fd327f6a2b8de06e1b6b2c3c6fa5e6f4a0acf193db5717bbb4664736f6c634300081d0033","linkReferences":{}},"methodIdentifiers":{"addChainReceiver(uint256,address)":"86f7df7d","balanceOf(address)":"70a08231","buy(uint256,address,bool)":"7ad157b9","buyCrossSale(uint256,address,uint256,bool)":"1638c0b5","cancelCrossSale(uint256,uint256)":"b989733e","cancelSale(uint256)":"bd94b005","ccipReceive((bytes32,uint64,bytes,bytes,(address,uint256)[]))":"85572ffb","createCrossSale(uint256,address,uint256,uint256)":"368d2fb7","createSale(uint256,address)":"18e45b1f","deleteChainReceiver(uint256)":"199dfcf9","disableChain(uint256)":"33e67012","enableChain(uint256,uint64,address,address,address)":"4b473a42","getCCIPRouter()":"588cbd0e","getCcipCollateralInEth()":"474c43f5","getCcipCollateralInUsd()":"b412d0bc","getChainSelector(uint256)":"92e2106f","getDeCupAddress()":"44353b59","getEthUsdPrice()":"a0a8045e","getLinkAddress(uint256)":"48437e54","getPriceFeedAddress()":"0f0f30b2","getPriceInETH(uint256)":"0441b220","getPriceInETHIncludingCollateral(uint256)":"b07dc25d","getPriceInUsd(uint256)":"1bfc8a55","getReceiverAddress(uint256)":"ebc2527e","getRouter()":"b0f479a1","getRouterAddress(uint256)":"feae6d3b","getSaleCounter()":"2f06c7d5","getSaleIdByTokenId(uint256,uint256)":"71ef4db5","getSaleOrder(uint256,uint256)":"6b0b9b14","getSaleOwner(uint256,uint256)":"8265809b","owner()":"8da5cb5b","renounceOwnership()":"715018a6","setCcipCollateral(uint256)":"95f738e0","supportsInterface(bytes4)":"01ffc9a7","transferOwnership(address)":"f2fde38b","transferOwnershipOfDeCup(address)":"8f97a7c9","withdrawFunds()":"24600fc3"},"id":66}