{"abi":[{"type":"constructor","inputs":[{"name":"_baseSvgImageUri","type":"string","internalType":"string"},{"name":"_tokenAddresses","type":"address[]","internalType":"address[]"},{"name":"_priceFeedAddresses","type":"address[]","internalType":"address[]"},{"name":"_defaultPriceFeed","type":"address","internalType":"address"},{"name":"_defaultSymbol","type":"string","internalType":"string"}],"stateMutability":"nonpayable"},{"type":"receive","stateMutability":"payable"},{"type":"function","name":"addNativeCollateralToExistingCup","inputs":[{"name":"tokenId","type":"uint256","internalType":"uint256"}],"outputs":[],"stateMutability":"payable"},{"type":"function","name":"addTokenCollateralToExistingCup","inputs":[{"name":"tokenAddress","type":"address","internalType":"address"},{"name":"amount","type":"uint256","internalType":"uint256"},{"name":"tokenId","type":"uint256","internalType":"uint256"}],"outputs":[],"stateMutability":"nonpayable"},{"type":"function","name":"approve","inputs":[{"name":"to","type":"address","internalType":"address"},{"name":"tokenId","type":"uint256","internalType":"uint256"}],"outputs":[],"stateMutability":"nonpayable"},{"type":"function","name":"balanceOf","inputs":[{"name":"owner","type":"address","internalType":"address"}],"outputs":[{"name":"","type":"uint256","internalType":"uint256"}],"stateMutability":"view"},{"type":"function","name":"burn","inputs":[{"name":"tokenId","type":"uint256","internalType":"uint256"}],"outputs":[],"stateMutability":"nonpayable"},{"type":"function","name":"depositMultipleAssetsAndMint","inputs":[{"name":"tokenAddresses","type":"address[]","internalType":"address[]"},{"name":"amounts","type":"uint256[]","internalType":"uint256[]"}],"outputs":[],"stateMutability":"payable"},{"type":"function","name":"depositSingleAssetAndMint","inputs":[{"name":"tokenAddress","type":"address","internalType":"address"},{"name":"amount","type":"uint256","internalType":"uint256"}],"outputs":[],"stateMutability":"payable"},{"type":"function","name":"getApproved","inputs":[{"name":"tokenId","type":"uint256","internalType":"uint256"}],"outputs":[{"name":"","type":"address","internalType":"address"}],"stateMutability":"view"},{"type":"function","name":"getAssetValueInUsd","inputs":[{"name":"tokenAddress","type":"address","internalType":"address"},{"name":"amount","type":"uint256","internalType":"uint256"}],"outputs":[{"name":"","type":"uint256","internalType":"uint256"}],"stateMutability":"view"},{"type":"function","name":"getAssetsInfo","inputs":[{"name":"tokenId","type":"uint256","internalType":"uint256"}],"outputs":[{"name":"","type":"string[]","internalType":"string[]"}],"stateMutability":"view"},{"type":"function","name":"getCollateralBalance","inputs":[{"name":"tokenId","type":"uint256","internalType":"uint256"},{"name":"tokenAddress","type":"address","internalType":"address"}],"outputs":[{"name":"","type":"uint256","internalType":"uint256"}],"stateMutability":"view"},{"type":"function","name":"getIsListedForSale","inputs":[{"name":"tokenId","type":"uint256","internalType":"uint256"}],"outputs":[{"name":"","type":"bool","internalType":"bool"}],"stateMutability":"view"},{"type":"function","name":"getIsListedForSaleOnChain","inputs":[{"name":"tokenId","type":"uint256","internalType":"uint256"}],"outputs":[{"name":"","type":"uint256","internalType":"uint256"}],"stateMutability":"view"},{"type":"function","name":"getTokenCounter","inputs":[],"outputs":[{"name":"","type":"uint256","internalType":"uint256"}],"stateMutability":"view"},{"type":"function","name":"getTokenPriceInUsd","inputs":[{"name":"tokenId","type":"uint256","internalType":"uint256"}],"outputs":[{"name":"","type":"uint256","internalType":"uint256"}],"stateMutability":"view"},{"type":"function","name":"isApprovedForAll","inputs":[{"name":"owner","type":"address","internalType":"address"},{"name":"operator","type":"address","internalType":"address"}],"outputs":[{"name":"","type":"bool","internalType":"bool"}],"stateMutability":"view"},{"type":"function","name":"listForSale","inputs":[{"name":"tokenId","type":"uint256","internalType":"uint256"},{"name":"chainId","type":"uint256","internalType":"uint256"}],"outputs":[],"stateMutability":"nonpayable"},{"type":"function","name":"name","inputs":[],"outputs":[{"name":"","type":"string","internalType":"string"}],"stateMutability":"view"},{"type":"function","name":"owner","inputs":[],"outputs":[{"name":"","type":"address","internalType":"address"}],"stateMutability":"view"},{"type":"function","name":"ownerOf","inputs":[{"name":"tokenId","type":"uint256","internalType":"uint256"}],"outputs":[{"name":"","type":"address","internalType":"address"}],"stateMutability":"view"},{"type":"function","name":"removeFromSale","inputs":[{"name":"tokenId","type":"uint256","internalType":"uint256"}],"outputs":[],"stateMutability":"nonpayable"},{"type":"function","name":"renounceOwnership","inputs":[],"outputs":[],"stateMutability":"nonpayable"},{"type":"function","name":"safeTransferFrom","inputs":[{"name":"from","type":"address","internalType":"address"},{"name":"to","type":"address","internalType":"address"},{"name":"tokenId","type":"uint256","internalType":"uint256"}],"outputs":[],"stateMutability":"nonpayable"},{"type":"function","name":"safeTransferFrom","inputs":[{"name":"from","type":"address","internalType":"address"},{"name":"to","type":"address","internalType":"address"},{"name":"tokenId","type":"uint256","internalType":"uint256"},{"name":"data","type":"bytes","internalType":"bytes"}],"outputs":[],"stateMutability":"nonpayable"},{"type":"function","name":"setApprovalForAll","inputs":[{"name":"operator","type":"address","internalType":"address"},{"name":"approved","type":"bool","internalType":"bool"}],"outputs":[],"stateMutability":"nonpayable"},{"type":"function","name":"supportsInterface","inputs":[{"name":"interfaceId","type":"bytes4","internalType":"bytes4"}],"outputs":[{"name":"","type":"bool","internalType":"bool"}],"stateMutability":"view"},{"type":"function","name":"symbol","inputs":[],"outputs":[{"name":"","type":"string","internalType":"string"}],"stateMutability":"view"},{"type":"function","name":"tokenURI","inputs":[{"name":"_tokenId","type":"uint256","internalType":"uint256"}],"outputs":[{"name":"","type":"string","internalType":"string"}],"stateMutability":"view"},{"type":"function","name":"transfer","inputs":[{"name":"tokenId","type":"uint256","internalType":"uint256"},{"name":"to","type":"address","internalType":"address"}],"outputs":[{"name":"","type":"bool","internalType":"bool"}],"stateMutability":"nonpayable"},{"type":"function","name":"transferAndBurn","inputs":[{"name":"tokenId","type":"uint256","internalType":"uint256"},{"name":"to","type":"address","internalType":"address"}],"outputs":[{"name":"","type":"bool","internalType":"bool"}],"stateMutability":"nonpayable"},{"type":"function","name":"transferFrom","inputs":[{"name":"from","type":"address","internalType":"address"},{"name":"to","type":"address","internalType":"address"},{"name":"tokenId","type":"uint256","internalType":"uint256"}],"outputs":[],"stateMutability":"nonpayable"},{"type":"function","name":"transferOwnership","inputs":[{"name":"newOwner","type":"address","internalType":"address"}],"outputs":[],"stateMutability":"nonpayable"},{"type":"event","name":"Approval","inputs":[{"name":"owner","type":"address","indexed":true,"internalType":"address"},{"name":"approved","type":"address","indexed":true,"internalType":"address"},{"name":"tokenId","type":"uint256","indexed":true,"internalType":"uint256"}],"anonymous":false},{"type":"event","name":"ApprovalForAll","inputs":[{"name":"owner","type":"address","indexed":true,"internalType":"address"},{"name":"operator","type":"address","indexed":true,"internalType":"address"},{"name":"approved","type":"bool","indexed":false,"internalType":"bool"}],"anonymous":false},{"type":"event","name":"Burn","inputs":[{"name":"tokenId","type":"uint256","indexed":true,"internalType":"uint256"}],"anonymous":false},{"type":"event","name":"DepositERC20Token","inputs":[{"name":"from","type":"address","indexed":true,"internalType":"address"},{"name":"tokenId","type":"uint256","indexed":true,"internalType":"uint256"},{"name":"token","type":"address","indexed":true,"internalType":"address"},{"name":"amount","type":"uint256","indexed":false,"internalType":"uint256"}],"anonymous":false},{"type":"event","name":"DepositNativeCurrency","inputs":[{"name":"from","type":"address","indexed":true,"internalType":"address"},{"name":"tokenId","type":"uint256","indexed":true,"internalType":"uint256"},{"name":"amount","type":"uint256","indexed":false,"internalType":"uint256"}],"anonymous":false},{"type":"event","name":"OwnershipTransferred","inputs":[{"name":"previousOwner","type":"address","indexed":true,"internalType":"address"},{"name":"newOwner","type":"address","indexed":true,"internalType":"address"}],"anonymous":false},{"type":"event","name":"TokenListedForSale","inputs":[{"name":"tokenId","type":"uint256","indexed":true,"internalType":"uint256"},{"name":"chainId","type":"uint256","indexed":true,"internalType":"uint256"}],"anonymous":false},{"type":"event","name":"TokenRemovedFromSale","inputs":[{"name":"tokenId","type":"uint256","indexed":true,"internalType":"uint256"}],"anonymous":false},{"type":"event","name":"Transfer","inputs":[{"name":"from","type":"address","indexed":true,"internalType":"address"},{"name":"to","type":"address","indexed":true,"internalType":"address"},{"name":"tokenId","type":"uint256","indexed":true,"internalType":"uint256"}],"anonymous":false},{"type":"event","name":"TransferAndBurn","inputs":[{"name":"tokenId","type":"uint256","indexed":true,"internalType":"uint256"}],"anonymous":false},{"type":"event","name":"WithdrawERC20Token","inputs":[{"name":"to","type":"address","indexed":true,"internalType":"address"},{"name":"token","type":"address","indexed":true,"internalType":"address"},{"name":"amount","type":"uint256","indexed":false,"internalType":"uint256"}],"anonymous":false},{"type":"event","name":"WithdrawNativeCurrency","inputs":[{"name":"to","type":"address","indexed":true,"internalType":"address"},{"name":"amount","type":"uint256","indexed":false,"internalType":"uint256"}],"anonymous":false},{"type":"error","name":"DeCup__AllowedTokenAddressesMustNotBeEmpty","inputs":[]},{"type":"error","name":"DeCup__AmountMustBeGreaterThanZero","inputs":[]},{"type":"error","name":"DeCup__InsufficientBalance","inputs":[]},{"type":"error","name":"DeCup__NotAllowedToken","inputs":[]},{"type":"error","name":"DeCup__NotOwner","inputs":[]},{"type":"error","name":"DeCup__NotOwnerOrManager","inputs":[]},{"type":"error","name":"DeCup__NotTokenOwner","inputs":[]},{"type":"error","name":"DeCup__PriceFeedAddressesMustNotBeEmpty","inputs":[]},{"type":"error","name":"DeCup__TokenAddressesAndAmountsMusBeSameLength","inputs":[]},{"type":"error","name":"DeCup__TokenAddressesAndPriceFeedAddressesMusBeSameLength","inputs":[]},{"type":"error","name":"DeCup__TokenDoesNotExist","inputs":[]},{"type":"error","name":"DeCup__TokenIsListedForSale","inputs":[]},{"type":"error","name":"DeCup__TokenIsNotListedForSale","inputs":[]},{"type":"error","name":"DeCup__TransferFailed","inputs":[]},{"type":"error","name":"ERC721IncorrectOwner","inputs":[{"name":"sender","type":"address","internalType":"address"},{"name":"tokenId","type":"uint256","internalType":"uint256"},{"name":"owner","type":"address","internalType":"address"}]},{"type":"error","name":"ERC721InsufficientApproval","inputs":[{"name":"operator","type":"address","internalType":"address"},{"name":"tokenId","type":"uint256","internalType":"uint256"}]},{"type":"error","name":"ERC721InvalidApprover","inputs":[{"name":"approver","type":"address","internalType":"address"}]},{"type":"error","name":"ERC721InvalidOperator","inputs":[{"name":"operator","type":"address","internalType":"address"}]},{"type":"error","name":"ERC721InvalidOwner","inputs":[{"name":"owner","type":"address","internalType":"address"}]},{"type":"error","name":"ERC721InvalidReceiver","inputs":[{"name":"receiver","type":"address","internalType":"address"}]},{"type":"error","name":"ERC721InvalidSender","inputs":[{"name":"sender","type":"address","internalType":"address"}]},{"type":"error","name":"ERC721NonexistentToken","inputs":[{"name":"tokenId","type":"uint256","internalType":"uint256"}]},{"type":"error","name":"OwnableInvalidOwner","inputs":[{"name":"owner","type":"address","internalType":"address"}]},{"type":"error","name":"OwnableUnauthorizedAccount","inputs":[{"name":"account","type":"address","internalType":"address"}]},{"type":"error","name":"ReentrancyGuardReentrantCall","inputs":[]}],"bytecode":{"object":"0x60a060405234801561000f575f5ffd5b50604051616b77380380616b778339818101604052810190610031919061064f565b336040518060400160405280600581526020017f44654375700000000000000000000000000000000000000000000000000000008152506040518060400160405280600381526020017f4443540000000000000000000000000000000000000000000000000000000000815250815f90816100ac9190610946565b5080600190816100bc9190610946565b5050505f73ffffffffffffffffffffffffffffffffffffffff168173ffffffffffffffffffffffffffffffffffffffff160361012f575f6040517f1e4fbdf70000000000000000000000000000000000000000000000000000000081526004016101269190610a24565b60405180910390fd5b61013e8161032160201b60201c565b5060016007819055505f845103610181576040517f058e32ea00000000000000000000000000000000000000000000000000000000815260040160405180910390fd5b5f8351036101bb576040517f1ebe240500000000000000000000000000000000000000000000000000000000815260040160405180910390fd5b82518451146101f6576040517f48cdfcb100000000000000000000000000000000000000000000000000000000815260040160405180910390fd5b5f5b84518110156102bb5783818151811061021457610213610a3d565b5b6020026020010151600c5f87848151811061023257610231610a3d565b5b602002602001015173ffffffffffffffffffffffffffffffffffffffff1673ffffffffffffffffffffffffffffffffffffffff1681526020019081526020015f205f6101000a81548173ffffffffffffffffffffffffffffffffffffffff021916908373ffffffffffffffffffffffffffffffffffffffff1602179055508060010190506101f8565b505f60088190555084600990816102d29190610946565b508173ffffffffffffffffffffffffffffffffffffffff1660808173ffffffffffffffffffffffffffffffffffffffff168152505080600a90816103169190610946565b505050505050610a6a565b5f60065f9054906101000a900473ffffffffffffffffffffffffffffffffffffffff1690508160065f6101000a81548173ffffffffffffffffffffffffffffffffffffffff021916908373ffffffffffffffffffffffffffffffffffffffff1602179055508173ffffffffffffffffffffffffffffffffffffffff168173ffffffffffffffffffffffffffffffffffffffff167f8be0079c531659141344cd1fd0a4f28419497f9722a3daafe3b4186f6b6457e060405160405180910390a35050565b5f604051905090565b5f5ffd5b5f5ffd5b5f5ffd5b5f5ffd5b5f601f19601f8301169050919050565b7f4e487b71000000000000000000000000000000000000000000000000000000005f52604160045260245ffd5b610443826103fd565b810181811067ffffffffffffffff821117156104625761046161040d565b5b80604052505050565b5f6104746103e4565b9050610480828261043a565b919050565b5f67ffffffffffffffff82111561049f5761049e61040d565b5b6104a8826103fd565b9050602081019050919050565b8281835e5f83830152505050565b5f6104d56104d084610485565b61046b565b9050828152602081018484840111156104f1576104f06103f9565b5b6104fc8482856104b5565b509392505050565b5f82601f830112610518576105176103f5565b5b81516105288482602086016104c3565b91505092915050565b5f67ffffffffffffffff82111561054b5761054a61040d565b5b602082029050602081019050919050565b5f5ffd5b5f73ffffffffffffffffffffffffffffffffffffffff82169050919050565b5f61058982610560565b9050919050565b6105998161057f565b81146105a3575f5ffd5b50565b5f815190506105b481610590565b92915050565b5f6105cc6105c784610531565b61046b565b905080838252602082019050602084028301858111156105ef576105ee61055c565b5b835b81811015610618578061060488826105a6565b8452602084019350506020810190506105f1565b5050509392505050565b5f82601f830112610636576106356103f5565b5b81516106468482602086016105ba565b91505092915050565b5f5f5f5f5f60a08688031215610668576106676103ed565b5b5f86015167ffffffffffffffff811115610685576106846103f1565b5b61069188828901610504565b955050602086015167ffffffffffffffff8111156106b2576106b16103f1565b5b6106be88828901610622565b945050604086015167ffffffffffffffff8111156106df576106de6103f1565b5b6106eb88828901610622565b93505060606106fc888289016105a6565b925050608086015167ffffffffffffffff81111561071d5761071c6103f1565b5b61072988828901610504565b9150509295509295909350565b5f81519050919050565b7f4e487b71000000000000000000000000000000000000000000000000000000005f52602260045260245ffd5b5f600282049050600182168061078457607f821691505b60208210810361079757610796610740565b5b50919050565b5f819050815f5260205f209050919050565b5f6020601f8301049050919050565b5f82821b905092915050565b5f600883026107f97fffffffffffffffffffffffffffffffffffffffffffffffffffffffffffffffff826107be565b61080386836107be565b95508019841693508086168417925050509392505050565b5f819050919050565b5f819050919050565b5f61084761084261083d8461081b565b610824565b61081b565b9050919050565b5f819050919050565b6108608361082d565b61087461086c8261084e565b8484546107ca565b825550505050565b5f5f905090565b61088b61087c565b610896818484610857565b505050565b5b818110156108b9576108ae5f82610883565b60018101905061089c565b5050565b601f8211156108fe576108cf8161079d565b6108d8846107af565b810160208510156108e7578190505b6108fb6108f3856107af565b83018261089b565b50505b505050565b5f82821c905092915050565b5f61091e5f1984600802610903565b1980831691505092915050565b5f610936838361090f565b9150826002028217905092915050565b61094f82610736565b67ffffffffffffffff8111156109685761096761040d565b5b610972825461076d565b61097d8282856108bd565b5f60209050601f8311600181146109ae575f841561099c578287015190505b6109a6858261092b565b865550610a0d565b601f1984166109bc8661079d565b5f5b828110156109e3578489015182556001820191506020850194506020810190506109be565b86831015610a0057848901516109fc601f89168261090f565b8355505b6001600288020188555050505b505050505050565b610a1e8161057f565b82525050565b5f602082019050610a375f830184610a15565b92915050565b7f4e487b71000000000000000000000000000000000000000000000000000000005f52603260045260245ffd5b6080516160f5610a825f395f6135b201526160f55ff3fe6080604052600436106101e6575f3560e01c8063715018a611610101578063b7760c8f11610094578063e985e9c511610063578063e985e9c514610891578063f2fde38b146108cd578063fcb75eae146108f5578063fdcd8d3a146109315761037f565b8063b7760c8f146107c9578063b88d4fde14610805578063c87b56dd1461082d578063e80d7fec146108695761037f565b806395d89b41116100d057806395d89b411461071f5780639ec9949414610749578063a22cb46514610765578063aacc92a41461078d5761037f565b8063715018a6146106675780638da5cb5b1461067d578063900472e5146106a757806391041959146106e35761037f565b8063427a7540116101795780635637c1aa116101485780635637c1aa146105895780636352211e146105c55780636e02007d1461060157806370a082311461062b5761037f565b8063427a7540146104e157806342842e0e146104fd57806342966c68146105255780634e3006841461054d5761037f565b8063095ea7b3116101b5578063095ea7b31461044d5780631361a3b61461047557806323b872dd1461049d5780633e9bee72146104c55761037f565b806301ffc9a714610383578063034f7673146103bf57806306fdde03146103e7578063081812fc146104115761037f565b3661037f57345f8103610225576040517f365d2eeb00000000000000000000000000000000000000000000000000000000815260040160405180910390fd5b61022d61096d565b5f600854905034600d5f8381526020019081526020015f205f5f73ffffffffffffffffffffffffffffffffffffffff1673ffffffffffffffffffffffffffffffffffffffff1681526020019081526020015f205f82825461028e9190614940565b92505081905550600b5f8281526020019081526020015f205f908060018154018082558091505060019003905f5260205f20015f9091909190916101000a81548173ffffffffffffffffffffffffffffffffffffffff021916908373ffffffffffffffffffffffffffffffffffffffff160217905550803373ffffffffffffffffffffffffffffffffffffffff167f5ff1c2a4e2c2f4fea5d0601c68159c1cc003f2d8f550ed6d1950fec318c438ed3460405161034b9190614982565b60405180910390a361035d33826109b3565b60085f81548092919061036f9061499b565b91905055505061037d6109d0565b005b5f5ffd5b34801561038e575f5ffd5b506103a960048036038101906103a49190614a48565b6109da565b6040516103b69190614a8d565b60405180910390f35b3480156103ca575f5ffd5b506103e560048036038101906103e09190614b2a565b610abb565b005b3480156103f2575f5ffd5b506103fb610ed5565b6040516104089190614bea565b60405180910390f35b34801561041c575f5ffd5b5061043760048036038101906104329190614c0a565b610f64565b6040516104449190614c44565b60405180910390f35b348015610458575f5ffd5b50610473600480360381019061046e9190614c5d565b610f7f565b005b348015610480575f5ffd5b5061049b60048036038101906104969190614c0a565b610f95565b005b3480156104a8575f5ffd5b506104c360048036038101906104be9190614c9b565b6110c3565b005b6104df60048036038101906104da9190614c5d565b6111c2565b005b6104fb60048036038101906104f69190614c0a565b6114d2565b005b348015610508575f5ffd5b50610523600480360381019061051e9190614c9b565b61175a565b005b348015610530575f5ffd5b5061054b60048036038101906105469190614c0a565b611779565b005b348015610558575f5ffd5b50610573600480360381019061056e9190614ceb565b611941565b6040516105809190614982565b60405180910390f35b348015610594575f5ffd5b506105af60048036038101906105aa9190614c5d565b611997565b6040516105bc9190614982565b60405180910390f35b3480156105d0575f5ffd5b506105eb60048036038101906105e69190614c0a565b611a8f565b6040516105f89190614c44565b60405180910390f35b34801561060c575f5ffd5b50610615611aa0565b6040516106229190614982565b60405180910390f35b348015610636575f5ffd5b50610651600480360381019061064c9190614d29565b611aa9565b60405161065e9190614982565b60405180910390f35b348015610672575f5ffd5b5061067b611b5f565b005b348015610688575f5ffd5b50610691611b72565b60405161069e9190614c44565b60405180910390f35b3480156106b2575f5ffd5b506106cd60048036038101906106c89190614c0a565b611b9a565b6040516106da9190614e57565b60405180910390f35b3480156106ee575f5ffd5b5061070960048036038101906107049190614c0a565b611ef4565b6040516107169190614a8d565b60405180910390f35b34801561072a575f5ffd5b50610733611f1a565b6040516107409190614bea565b60405180910390f35b610763600480360381019061075e9190615077565b611faa565b005b348015610770575f5ffd5b5061078b60048036038101906107869190615117565b61248d565b005b348015610798575f5ffd5b506107b360048036038101906107ae9190614c0a565b6124a3565b6040516107c09190614982565b60405180910390f35b3480156107d4575f5ffd5b506107ef60048036038101906107ea9190614ceb565b612511565b6040516107fc9190614a8d565b60405180910390f35b348015610810575f5ffd5b5061082b60048036038101906108269190615205565b612690565b005b348015610838575f5ffd5b50610853600480360381019061084e9190614c0a565b6126b5565b6040516108609190614bea565b60405180910390f35b348015610874575f5ffd5b5061088f600480360381019061088a9190615285565b612a9c565b005b34801561089c575f5ffd5b506108b760048036038101906108b291906152c3565b612bd0565b6040516108c49190614a8d565b60405180910390f35b3480156108d8575f5ffd5b506108f360048036038101906108ee9190614d29565b612c5e565b005b348015610900575f5ffd5b5061091b60048036038101906109169190614ceb565b612ce2565b6040516109289190614a8d565b60405180910390f35b34801561093c575f5ffd5b5061095760048036038101906109529190614c0a565b612ea0565b6040516109649190614982565b60405180910390f35b6002600754036109a9576040517f3ee5aeb500000000000000000000000000000000000000000000000000000000815260040160405180910390fd5b6002600781905550565b6109cc828260405180602001604052805f815250612f45565b5050565b6001600781905550565b5f7f80ac58cd000000000000000000000000000000000000000000000000000000007bffffffffffffffffffffffffffffffffffffffffffffffffffffffff1916827bffffffffffffffffffffffffffffffffffffffffffffffffffffffff19161480610aa457507f5b5e139f000000000000000000000000000000000000000000000000000000007bffffffffffffffffffffffffffffffffffffffffffffffffffffffff1916827bffffffffffffffffffffffffffffffffffffffffffffffffffffffff1916145b80610ab45750610ab382612f68565b5b9050919050565b803373ffffffffffffffffffffffffffffffffffffffff16610adc82611a8f565b73ffffffffffffffffffffffffffffffffffffffff1614610b29576040517f82e5b88300000000000000000000000000000000000000000000000000000000815260040160405180910390fd5b81600e5f8281526020019081526020015f205f9054906101000a900460ff1615610b7f576040517fe33c265000000000000000000000000000000000000000000000000000000000815260040160405180910390fd5b835f8103610bb9576040517f365d2eeb00000000000000000000000000000000000000000000000000000000815260040160405180910390fd5b610bc161096d565b5f73ffffffffffffffffffffffffffffffffffffffff16600c5f8873ffffffffffffffffffffffffffffffffffffffff1673ffffffffffffffffffffffffffffffffffffffff1681526020019081526020015f205f9054906101000a900473ffffffffffffffffffffffffffffffffffffffff1673ffffffffffffffffffffffffffffffffffffffff1603610c82576040517fcab509ef00000000000000000000000000000000000000000000000000000000815260040160405180910390fd5b5f600d5f8681526020019081526020015f205f8873ffffffffffffffffffffffffffffffffffffffff1673ffffffffffffffffffffffffffffffffffffffff1681526020019081526020015f205403610d4557600b5f8581526020019081526020015f2086908060018154018082558091505060019003905f5260205f20015f9091909190916101000a81548173ffffffffffffffffffffffffffffffffffffffff021916908373ffffffffffffffffffffffffffffffffffffffff1602179055505b84600d5f8681526020019081526020015f205f8873ffffffffffffffffffffffffffffffffffffffff1673ffffffffffffffffffffffffffffffffffffffff1681526020019081526020015f205f828254610da09190614940565b925050819055508573ffffffffffffffffffffffffffffffffffffffff16843373ffffffffffffffffffffffffffffffffffffffff167fb62f08cb3803756e5db42279c4e516b0414ee9257afce24cfe568383e23b4e5288604051610e059190614982565b60405180910390a45f8673ffffffffffffffffffffffffffffffffffffffff166323b872dd3330896040518463ffffffff1660e01b8152600401610e4b93929190615301565b6020604051808303815f875af1158015610e67573d5f5f3e3d5ffd5b505050506040513d601f19601f82011682018060405250810190610e8b919061534a565b905080610ec4576040517f2ae1638500000000000000000000000000000000000000000000000000000000815260040160405180910390fd5b50610ecd6109d0565b505050505050565b60605f8054610ee3906153a2565b80601f0160208091040260200160405190810160405280929190818152602001828054610f0f906153a2565b8015610f5a5780601f10610f3157610100808354040283529160200191610f5a565b820191905f5260205f20905b815481529060010190602001808311610f3d57829003601f168201915b5050505050905090565b5f610f6e82612fd1565b50610f7882613057565b9050919050565b610f918282610f8c613090565b613097565b5050565b3373ffffffffffffffffffffffffffffffffffffffff16610fb4611b72565b73ffffffffffffffffffffffffffffffffffffffff1614611001576040517f726a4f0300000000000000000000000000000000000000000000000000000000815260040160405180910390fd5b600e5f8281526020019081526020015f205f9054906101000a900460ff16611055576040517f0ab36bca00000000000000000000000000000000000000000000000000000000815260040160405180910390fd5b5f600e5f8381526020019081526020015f205f6101000a81548160ff0219169083151502179055505f600f5f8381526020019081526020015f2081905550807fccd0b7af52bf5f08ec6781299e66283301e612d1ca1ffceab3579a6364073c3060405160405180910390a250565b5f73ffffffffffffffffffffffffffffffffffffffff168273ffffffffffffffffffffffffffffffffffffffff1603611133575f6040517f64a0ae9200000000000000000000000000000000000000000000000000000000815260040161112a9190614c44565b60405180910390fd5b5f6111468383611141613090565b6130a9565b90508373ffffffffffffffffffffffffffffffffffffffff168173ffffffffffffffffffffffffffffffffffffffff16146111bc578382826040517f64283d7b0000000000000000000000000000000000000000000000000000000081526004016111b3939291906153d2565b60405180910390fd5b50505050565b805f81036111fc576040517f365d2eeb00000000000000000000000000000000000000000000000000000000815260040160405180910390fd5b61120461096d565b5f73ffffffffffffffffffffffffffffffffffffffff16600c5f8573ffffffffffffffffffffffffffffffffffffffff1673ffffffffffffffffffffffffffffffffffffffff1681526020019081526020015f205f9054906101000a900473ffffffffffffffffffffffffffffffffffffffff1673ffffffffffffffffffffffffffffffffffffffff16036112c5576040517fcab509ef00000000000000000000000000000000000000000000000000000000815260040160405180910390fd5b5f60085490508373ffffffffffffffffffffffffffffffffffffffff16813373ffffffffffffffffffffffffffffffffffffffff167fb62f08cb3803756e5db42279c4e516b0414ee9257afce24cfe568383e23b4e52866040516113299190614982565b60405180910390a482600d5f8381526020019081526020015f205f8673ffffffffffffffffffffffffffffffffffffffff1673ffffffffffffffffffffffffffffffffffffffff1681526020019081526020015f205f82825461138c9190614940565b92505081905550600b5f8281526020019081526020015f2084908060018154018082558091505060019003905f5260205f20015f9091909190916101000a81548173ffffffffffffffffffffffffffffffffffffffff021916908373ffffffffffffffffffffffffffffffffffffffff16021790555061140c33826132b4565b5f8473ffffffffffffffffffffffffffffffffffffffff166323b872dd3330876040518463ffffffff1660e01b815260040161144a93929190615301565b6020604051808303815f875af1158015611466573d5f5f3e3d5ffd5b505050506040513d601f19601f8201168201806040525081019061148a919061534a565b9050806114c3576040517f2ae1638500000000000000000000000000000000000000000000000000000000815260040160405180910390fd5b50506114cd6109d0565b505050565b803373ffffffffffffffffffffffffffffffffffffffff166114f382611a8f565b73ffffffffffffffffffffffffffffffffffffffff1614611540576040517f82e5b88300000000000000000000000000000000000000000000000000000000815260040160405180910390fd5b81600e5f8281526020019081526020015f205f9054906101000a900460ff1615611596576040517fe33c265000000000000000000000000000000000000000000000000000000000815260040160405180910390fd5b345f81036115d0576040517f365d2eeb00000000000000000000000000000000000000000000000000000000815260040160405180910390fd5b6115d861096d565b5f600d5f8681526020019081526020015f205f5f73ffffffffffffffffffffffffffffffffffffffff1673ffffffffffffffffffffffffffffffffffffffff1681526020019081526020015f20540361169b57600b5f8581526020019081526020015f205f908060018154018082558091505060019003905f5260205f20015f9091909190916101000a81548173ffffffffffffffffffffffffffffffffffffffff021916908373ffffffffffffffffffffffffffffffffffffffff1602179055505b34600d5f8681526020019081526020015f205f5f73ffffffffffffffffffffffffffffffffffffffff1673ffffffffffffffffffffffffffffffffffffffff1681526020019081526020015f205f8282546116f69190614940565b92505081905550833373ffffffffffffffffffffffffffffffffffffffff167f5ff1c2a4e2c2f4fea5d0601c68159c1cc003f2d8f550ed6d1950fec318c438ed346040516117449190614982565b60405180910390a36117546109d0565b50505050565b61177483838360405180602001604052805f815250612690565b505050565b805f73ffffffffffffffffffffffffffffffffffffffff1661179a82611a8f565b73ffffffffffffffffffffffffffffffffffffffff16036117e7576040517fa9d62d2800000000000000000000000000000000000000000000000000000000815260040160405180910390fd5b813373ffffffffffffffffffffffffffffffffffffffff1661180882611a8f565b73ffffffffffffffffffffffffffffffffffffffff161415801561185f57503373ffffffffffffffffffffffffffffffffffffffff16611846611b72565b73ffffffffffffffffffffffffffffffffffffffff1614155b15611896576040517f90b0e2ab00000000000000000000000000000000000000000000000000000000815260040160405180910390fd5b82600e5f8281526020019081526020015f205f9054906101000a900460ff16156118ec576040517fe33c265000000000000000000000000000000000000000000000000000000000815260040160405180910390fd5b6118f461096d565b837fb90306ad06b2a6ff86ddc9327db583062895ef6540e62dc50add009db5b356eb60405160405180910390a261192a846132d9565b611933846134f9565b61193b6109d0565b50505050565b5f600d5f8481526020019081526020015f205f8373ffffffffffffffffffffffffffffffffffffffff1673ffffffffffffffffffffffffffffffffffffffff1681526020019081526020015f2054905092915050565b5f5f6119a28461357b565b90505f5f73ffffffffffffffffffffffffffffffffffffffff168573ffffffffffffffffffffffffffffffffffffffff1614611a4d578473ffffffffffffffffffffffffffffffffffffffff1663313ce5676040518163ffffffff1660e01b8152600401602060405180830381865afa158015611a21573d5f5f3e3d5ffd5b505050506040513d601f19601f82011682018060405250810190611a45919061543d565b60ff16611a50565b60125b905080600a611a5f9190615597565b846402540be40084611a7191906155e1565b611a7b91906155e1565b611a85919061564f565b9250505092915050565b5f611a9982612fd1565b9050919050565b5f600854905090565b5f5f73ffffffffffffffffffffffffffffffffffffffff168273ffffffffffffffffffffffffffffffffffffffff1603611b1a575f6040517f89c62b64000000000000000000000000000000000000000000000000000000008152600401611b119190614c44565b60405180910390fd5b60035f8373ffffffffffffffffffffffffffffffffffffffff1673ffffffffffffffffffffffffffffffffffffffff1681526020019081526020015f20549050919050565b611b676136b6565b611b705f61373d565b565b5f60065f9054906101000a900473ffffffffffffffffffffffffffffffffffffffff16905090565b60605f600b5f8481526020019081526020015f20805480602002602001604051908101604052809291908181526020018280548015611c2b57602002820191905f5260205f20905b815f9054906101000a900473ffffffffffffffffffffffffffffffffffffffff1673ffffffffffffffffffffffffffffffffffffffff1681526020019060010190808311611be2575b505050505090505f815167ffffffffffffffff811115611c4e57611c4d614e7b565b5b604051908082528060200260200182016040528015611c8157816020015b6060815260200190600190039081611c6c5790505b5090505f5f90505b8251811015611ee9575f838281518110611ca657611ca561567f565b5b602002602001015190505f600d5f8881526020019081526020015f205f8373ffffffffffffffffffffffffffffffffffffffff1673ffffffffffffffffffffffffffffffffffffffff1681526020019081526020015f205490505f73ffffffffffffffffffffffffffffffffffffffff168273ffffffffffffffffffffffffffffffffffffffff1603611d8157600a611d3e82613800565b604051602001611d4f9291906157c2565b604051602081830303815290604052848481518110611d7157611d7061567f565b5b6020026020010181905250611edc565b5f8273ffffffffffffffffffffffffffffffffffffffff1663313ce5676040518163ffffffff1660e01b8152600401602060405180830381865afa158015611dcb573d5f5f3e3d5ffd5b505050506040513d601f19601f82011682018060405250810190611def919061543d565b60ff1690505f81600a611e029190615597565b670de0b6b3a764000084611e1691906155e1565b611e20919061564f565b90508373ffffffffffffffffffffffffffffffffffffffff166395d89b416040518163ffffffff1660e01b81526004015f60405180830381865afa158015611e6a573d5f5f3e3d5ffd5b505050506040513d5f823e3d601f19601f82011682018060405250810190611e92919061588e565b611e9b82613800565b604051602001611eac9291906158d5565b604051602081830303815290604052868681518110611ece57611ecd61567f565b5b602002602001018190525050505b8260010192505050611c89565b508092505050919050565b5f600e5f8381526020019081526020015f205f9054906101000a900460ff169050919050565b606060018054611f29906153a2565b80601f0160208091040260200160405190810160405280929190818152602001828054611f55906153a2565b8015611fa05780601f10611f7757610100808354040283529160200191611fa0565b820191905f5260205f20905b815481529060010190602001808311611f8357829003601f168201915b5050505050905090565b611fb261096d565b8051825114611fed576040517fec791e3800000000000000000000000000000000000000000000000000000000815260040160405180910390fd5b5f82511480611ffc57505f8151145b15612033576040517f365d2eeb00000000000000000000000000000000000000000000000000000000815260040160405180910390fd5b5f60085490505f34111561216257803373ffffffffffffffffffffffffffffffffffffffff167f5ff1c2a4e2c2f4fea5d0601c68159c1cc003f2d8f550ed6d1950fec318c438ed346040516120889190614982565b60405180910390a334600d5f8381526020019081526020015f205f5f73ffffffffffffffffffffffffffffffffffffffff1673ffffffffffffffffffffffffffffffffffffffff1681526020019081526020015f205f8282546120eb9190614940565b92505081905550600b5f8281526020019081526020015f205f908060018154018082558091505060019003905f5260205f20015f9091909190916101000a81548173ffffffffffffffffffffffffffffffffffffffff021916908373ffffffffffffffffffffffffffffffffffffffff1602179055505b61216c33826132b4565b5f835190505f5b8181101561247e575f84828151811061218f5761218e61567f565b5b6020026020010151036121ce576040517f365d2eeb00000000000000000000000000000000000000000000000000000000815260040160405180910390fd5b8481815181106121e1576121e061567f565b5b602002602001015173ffffffffffffffffffffffffffffffffffffffff16833373ffffffffffffffffffffffffffffffffffffffff167fb62f08cb3803756e5db42279c4e516b0414ee9257afce24cfe568383e23b4e5287858151811061224b5761224a61567f565b5b60200260200101516040516122609190614982565b60405180910390a483818151811061227b5761227a61567f565b5b6020026020010151600d5f8581526020019081526020015f205f8784815181106122a8576122a761567f565b5b602002602001015173ffffffffffffffffffffffffffffffffffffffff1673ffffffffffffffffffffffffffffffffffffffff1681526020019081526020015f205f8282546122f79190614940565b92505081905550600b5f8481526020019081526020015f208582815181106123225761232161567f565b5b6020026020010151908060018154018082558091505060019003905f5260205f20015f9091909190916101000a81548173ffffffffffffffffffffffffffffffffffffffff021916908373ffffffffffffffffffffffffffffffffffffffff1602179055505f85828151811061239b5761239a61567f565b5b602002602001015173ffffffffffffffffffffffffffffffffffffffff166323b872dd33308886815181106123d3576123d261567f565b5b60200260200101516040518463ffffffff1660e01b81526004016123f993929190615301565b6020604051808303815f875af1158015612415573d5f5f3e3d5ffd5b505050506040513d601f19601f82011682018060405250810190612439919061534a565b905080612472576040517f2ae1638500000000000000000000000000000000000000000000000000000000815260040160405180910390fd5b81600101915050612173565b5050506124896109d0565b5050565b61249f612498613090565b8383613959565b5050565b5f600e5f8381526020019081526020015f205f9054906101000a900460ff166124f8576040517f0ab36bca00000000000000000000000000000000000000000000000000000000815260040160405180910390fd5b600f5f8381526020019081526020015f20549050919050565b5f825f73ffffffffffffffffffffffffffffffffffffffff1661253382611a8f565b73ffffffffffffffffffffffffffffffffffffffff1603612580576040517fa9d62d2800000000000000000000000000000000000000000000000000000000815260040160405180910390fd5b3373ffffffffffffffffffffffffffffffffffffffff1661259f611b72565b73ffffffffffffffffffffffffffffffffffffffff16146125ec576040517f726a4f0300000000000000000000000000000000000000000000000000000000815260040160405180910390fd5b83600e5f8281526020019081526020015f205f9054906101000a900460ff16612641576040517f0ab36bca00000000000000000000000000000000000000000000000000000000815260040160405180910390fd5b61264961096d565b600e5f8681526020019081526020015f205f6101000a81549060ff021916905561267c61267586611a8f565b8587613ac2565b600192506126886109d0565b505092915050565b61269b8484846110c3565b6126af6126a6613090565b85858585613c2a565b50505050565b60605f600b5f8481526020019081526020015f2080548060200260200160405190810160405280929190818152602001828054801561274657602002820191905f5260205f20905b815f9054906101000a900473ffffffffffffffffffffffffffffffffffffffff1673ffffffffffffffffffffffffffffffffffffffff16815260200190600101908083116126fd575b505050505090505f60605f61275a86613800565b90505f5b84518110156129b5575f85828151811061277b5761277a61567f565b5b602002602001015190505f600d5f8a81526020019081526020015f205f8373ffffffffffffffffffffffffffffffffffffffff1673ffffffffffffffffffffffffffffffffffffffff1681526020019081526020015f205490505f6127e08383611997565b905080876127ee9190614940565b96505f5f73ffffffffffffffffffffffffffffffffffffffff168473ffffffffffffffffffffffffffffffffffffffff1614612899578373ffffffffffffffffffffffffffffffffffffffff166395d89b416040518163ffffffff1660e01b81526004015f60405180830381865afa15801561286c573d5f5f3e3d5ffd5b505050506040513d5f823e3d601f19601f82011682018060405250810190612894919061588e565b612923565b600a80546128a6906153a2565b80601f01602080910402602001604051908101604052809291908181526020018280546128d2906153a2565b801561291d5780601f106128f45761010080835404028352916020019161291d565b820191905f5260205f20905b81548152906001019060200180831161290057829003601f168201915b50505050505b9050865f86116129415760405180602001604052805f815250612978565b6040518060400160405280600181526020017f2c000000000000000000000000000000000000000000000000000000000000008152505b8261298286613800565b6040516020016129959493929190615a25565b60405160208183030381529060405296508460010194505050505061275e565b50670de0b6b3a7640000836129ca919061564f565b92505f6129d684613800565b90506129e0613dd6565b612a70836129ec610ed5565b8585865f8a5111612a0b5760405180602001604052805f815250612a42565b6040518060400160405280600181526020017f2c000000000000000000000000000000000000000000000000000000000000008152505b8a6009604051602001612a5c989796959493929190615cf9565b604051602081830303815290604052613e13565b604051602001612a81929190615dcd565b60405160208183030381529060405295505050505050919050565b3373ffffffffffffffffffffffffffffffffffffffff16612abb611b72565b73ffffffffffffffffffffffffffffffffffffffff1614612b08576040517f726a4f0300000000000000000000000000000000000000000000000000000000815260040160405180910390fd5b81600e5f8281526020019081526020015f205f9054906101000a900460ff1615612b5e576040517fe33c265000000000000000000000000000000000000000000000000000000000815260040160405180910390fd5b6001600e5f8581526020019081526020015f205f6101000a81548160ff02191690831515021790555081600f5f8581526020019081526020015f208190555081837f3491649a16c326ca305ed14319c0106222d41417a0c19ec2ced6ec98e615824960405160405180910390a3505050565b5f60055f8473ffffffffffffffffffffffffffffffffffffffff1673ffffffffffffffffffffffffffffffffffffffff1681526020019081526020015f205f8373ffffffffffffffffffffffffffffffffffffffff1673ffffffffffffffffffffffffffffffffffffffff1681526020019081526020015f205f9054906101000a900460ff16905092915050565b612c666136b6565b5f73ffffffffffffffffffffffffffffffffffffffff168173ffffffffffffffffffffffffffffffffffffffff1603612cd6575f6040517f1e4fbdf7000000000000000000000000000000000000000000000000000000008152600401612ccd9190614c44565b60405180910390fd5b612cdf8161373d565b50565b5f825f73ffffffffffffffffffffffffffffffffffffffff16612d0482611a8f565b73ffffffffffffffffffffffffffffffffffffffff1603612d51576040517fa9d62d2800000000000000000000000000000000000000000000000000000000815260040160405180910390fd5b3373ffffffffffffffffffffffffffffffffffffffff16612d70611b72565b73ffffffffffffffffffffffffffffffffffffffff1614612dbd576040517f726a4f0300000000000000000000000000000000000000000000000000000000815260040160405180910390fd5b83600e5f8281526020019081526020015f205f9054906101000a900460ff16612e12576040517f0ab36bca00000000000000000000000000000000000000000000000000000000815260040160405180910390fd5b612e1a61096d565b600e5f8681526020019081526020015f205f6101000a81549060ff0219169055847f0d11e56cd3378fbf69207798b35740d49738bfe641fdc8ef9357e37d9ed64d5c60405160405180910390a2612e7a612e7386611a8f565b8587613ac2565b612e83856132d9565b612e8c856134f9565b60019250612e986109d0565b505092915050565b5f5f73ffffffffffffffffffffffffffffffffffffffff16612ec183611a8f565b73ffffffffffffffffffffffffffffffffffffffff1603612f0e576040517fa9d62d2800000000000000000000000000000000000000000000000000000000815260040160405180910390fd5b5f612f1883613e40565b9050670de0b6b3a76400006305f5e10082612f3391906155e1565b612f3d919061564f565b915050919050565b612f4f8383613f93565b612f63612f5a613090565b5f858585613c2a565b505050565b5f7f01ffc9a7000000000000000000000000000000000000000000000000000000007bffffffffffffffffffffffffffffffffffffffffffffffffffffffff1916827bffffffffffffffffffffffffffffffffffffffffffffffffffffffff1916149050919050565b5f5f612fdc83614086565b90505f73ffffffffffffffffffffffffffffffffffffffff168173ffffffffffffffffffffffffffffffffffffffff160361304e57826040517f7e2732890000000000000000000000000000000000000000000000000000000081526004016130459190614982565b60405180910390fd5b80915050919050565b5f60045f8381526020019081526020015f205f9054906101000a900473ffffffffffffffffffffffffffffffffffffffff169050919050565b5f33905090565b6130a483838360016140bf565b505050565b5f5f6130b484614086565b90505f73ffffffffffffffffffffffffffffffffffffffff168373ffffffffffffffffffffffffffffffffffffffff16146130f5576130f481848661427e565b5b5f73ffffffffffffffffffffffffffffffffffffffff168173ffffffffffffffffffffffffffffffffffffffff1614613180576131345f855f5f6140bf565b600160035f8373ffffffffffffffffffffffffffffffffffffffff1673ffffffffffffffffffffffffffffffffffffffff1681526020019081526020015f205f82825403925050819055505b5f73ffffffffffffffffffffffffffffffffffffffff168573ffffffffffffffffffffffffffffffffffffffff16146131ff57600160035f8773ffffffffffffffffffffffffffffffffffffffff1673ffffffffffffffffffffffffffffffffffffffff1681526020019081526020015f205f82825401925050819055505b8460025f8681526020019081526020015f205f6101000a81548173ffffffffffffffffffffffffffffffffffffffff021916908373ffffffffffffffffffffffffffffffffffffffff160217905550838573ffffffffffffffffffffffffffffffffffffffff168273ffffffffffffffffffffffffffffffffffffffff167fddf252ad1be2c89b69c2b068fc378daa952ba7f163c4a11628f55a4df523b3ef60405160405180910390a4809150509392505050565b6132be82826109b3565b60085f8154809291906132d09061499b565b91905055505050565b5f600b5f8381526020019081526020015f2080548060200260200160405190810160405280929190818152602001828054801561336857602002820191905f5260205f20905b815f9054906101000a900473ffffffffffffffffffffffffffffffffffffffff1673ffffffffffffffffffffffffffffffffffffffff168152602001906001019080831161331f575b50505050509050600b5f8381526020019081526020015f205f61338b91906148d1565b5f815190505f5b818110156134f3575f73ffffffffffffffffffffffffffffffffffffffff168382815181106133c4576133c361567f565b5b602002602001015173ffffffffffffffffffffffffffffffffffffffff160361345c5761345784600d5f8781526020019081526020015f205f8685815181106134105761340f61567f565b5b602002602001015173ffffffffffffffffffffffffffffffffffffffff1673ffffffffffffffffffffffffffffffffffffffff1681526020019081526020015f2054614341565b6134e8565b6134e7848483815181106134735761347261567f565b5b6020026020010151600d5f8881526020019081526020015f205f8786815181106134a05761349f61567f565b5b602002602001015173ffffffffffffffffffffffffffffffffffffffff1673ffffffffffffffffffffffffffffffffffffffff1681526020019081526020015f20546144cb565b5b806001019050613392565b50505050565b5f6135055f835f6130a9565b90505f73ffffffffffffffffffffffffffffffffffffffff168173ffffffffffffffffffffffffffffffffffffffff160361357757816040517f7e27328900000000000000000000000000000000000000000000000000000000815260040161356e9190614982565b60405180910390fd5b5050565b5f5f5f73ffffffffffffffffffffffffffffffffffffffff168373ffffffffffffffffffffffffffffffffffffffff16036135d8577f00000000000000000000000000000000000000000000000000000000000000009050613638565b600c5f8473ffffffffffffffffffffffffffffffffffffffff1673ffffffffffffffffffffffffffffffffffffffff1681526020019081526020015f205f9054906101000a900473ffffffffffffffffffffffffffffffffffffffff1690505b5f8173ffffffffffffffffffffffffffffffffffffffff1663feaf968c6040518163ffffffff1660e01b815260040160a060405180830381865afa158015613682573d5f5f3e3d5ffd5b505050506040513d601f19601f820116820180604052508101906136a69190615e76565b5050509150508092505050919050565b6136be613090565b73ffffffffffffffffffffffffffffffffffffffff166136dc611b72565b73ffffffffffffffffffffffffffffffffffffffff161461373b576136ff613090565b6040517f118cdaa70000000000000000000000000000000000000000000000000000000081526004016137329190614c44565b60405180910390fd5b565b5f60065f9054906101000a900473ffffffffffffffffffffffffffffffffffffffff1690508160065f6101000a81548173ffffffffffffffffffffffffffffffffffffffff021916908373ffffffffffffffffffffffffffffffffffffffff1602179055508173ffffffffffffffffffffffffffffffffffffffff168173ffffffffffffffffffffffffffffffffffffffff167f8be0079c531659141344cd1fd0a4f28419497f9722a3daafe3b4186f6b6457e060405160405180910390a35050565b60605f8203613846576040518060400160405280600181526020017f30000000000000000000000000000000000000000000000000000000000000008152509050613954565b5f8290505f5b5f821461387557808061385e9061499b565b915050600a8261386e919061564f565b915061384c565b5f8167ffffffffffffffff8111156138905761388f614e7b565b5b6040519080825280601f01601f1916602001820160405280156138c25781602001600182028036833780820191505090505b5090505b5f851461394d576001826138da9190615eed565b9150600a856138e99190615f20565b60306138f59190614940565b60f81b81838151811061390b5761390a61567f565b5b60200101907effffffffffffffffffffffffffffffffffffffffffffffffffffffffffffff191690815f1a905350600a85613946919061564f565b94506138c6565b8093505050505b919050565b5f73ffffffffffffffffffffffffffffffffffffffff168273ffffffffffffffffffffffffffffffffffffffff16036139c957816040517f5b08ba180000000000000000000000000000000000000000000000000000000081526004016139c09190614c44565b60405180910390fd5b8060055f8573ffffffffffffffffffffffffffffffffffffffff1673ffffffffffffffffffffffffffffffffffffffff1681526020019081526020015f205f8473ffffffffffffffffffffffffffffffffffffffff1673ffffffffffffffffffffffffffffffffffffffff1681526020019081526020015f205f6101000a81548160ff0219169083151502179055508173ffffffffffffffffffffffffffffffffffffffff168373ffffffffffffffffffffffffffffffffffffffff167f17307eab39ab6107e8899845ad3d59bd9653f200f220920489ca2b5937696c3183604051613ab59190614a8d565b60405180910390a3505050565b5f73ffffffffffffffffffffffffffffffffffffffff168273ffffffffffffffffffffffffffffffffffffffff1603613b32575f6040517f64a0ae92000000000000000000000000000000000000000000000000000000008152600401613b299190614c44565b60405180910390fd5b5f613b3e83835f6130a9565b90505f73ffffffffffffffffffffffffffffffffffffffff168173ffffffffffffffffffffffffffffffffffffffff1603613bb057816040517f7e273289000000000000000000000000000000000000000000000000000000008152600401613ba79190614982565b60405180910390fd5b8373ffffffffffffffffffffffffffffffffffffffff168173ffffffffffffffffffffffffffffffffffffffff1614613c24578382826040517f64283d7b000000000000000000000000000000000000000000000000000000008152600401613c1b939291906153d2565b60405180910390fd5b50505050565b5f8373ffffffffffffffffffffffffffffffffffffffff163b1115613dcf578273ffffffffffffffffffffffffffffffffffffffff1663150b7a02868685856040518563ffffffff1660e01b8152600401613c889493929190615f98565b6020604051808303815f875af1925050508015613cc357506040513d601f19601f82011682018060405250810190613cc09190615ff6565b60015b613d44573d805f8114613cf1576040519150601f19603f3d011682016040523d82523d5f602084013e613cf6565b606091505b505f815103613d3c57836040517f64a0ae92000000000000000000000000000000000000000000000000000000008152600401613d339190614c44565b60405180910390fd5b805181602001fd5b63150b7a0260e01b7bffffffffffffffffffffffffffffffffffffffffffffffffffffffff1916817bffffffffffffffffffffffffffffffffffffffffffffffffffffffff191614613dcd57836040517f64a0ae92000000000000000000000000000000000000000000000000000000008152600401613dc49190614c44565b60405180910390fd5b505b5050505050565b60606040518060400160405280601d81526020017f646174613a6170706c69636174696f6e2f6a736f6e3b6261736536342c000000815250905090565b6060613e3982604051806060016040528060408152602001616080604091396001614682565b9050919050565b5f5f600b5f8481526020019081526020015f20805480602002602001604051908101604052809291908181526020018280548015613ed057602002820191905f5260205f20905b815f9054906101000a900473ffffffffffffffffffffffffffffffffffffffff1673ffffffffffffffffffffffffffffffffffffffff1681526020019060010190808311613e87575b505050505090505f5f90505f5b8251811015613f8857613f70838281518110613efc57613efb61567f565b5b6020026020010151600d5f8881526020019081526020015f205f868581518110613f2957613f2861567f565b5b602002602001015173ffffffffffffffffffffffffffffffffffffffff1673ffffffffffffffffffffffffffffffffffffffff1681526020019081526020015f2054611997565b82613f7b9190614940565b9150806001019050613edd565b508092505050919050565b5f73ffffffffffffffffffffffffffffffffffffffff168273ffffffffffffffffffffffffffffffffffffffff1603614003575f6040517f64a0ae92000000000000000000000000000000000000000000000000000000008152600401613ffa9190614c44565b60405180910390fd5b5f61400f83835f6130a9565b90505f73ffffffffffffffffffffffffffffffffffffffff168173ffffffffffffffffffffffffffffffffffffffff1614614081575f6040517f73c6ac6e0000000000000000000000000000000000000000000000000000000081526004016140789190614c44565b60405180910390fd5b505050565b5f60025f8381526020019081526020015f205f9054906101000a900473ffffffffffffffffffffffffffffffffffffffff169050919050565b80806140f757505f73ffffffffffffffffffffffffffffffffffffffff168273ffffffffffffffffffffffffffffffffffffffff1614155b15614229575f61410684612fd1565b90505f73ffffffffffffffffffffffffffffffffffffffff168373ffffffffffffffffffffffffffffffffffffffff161415801561417057508273ffffffffffffffffffffffffffffffffffffffff168173ffffffffffffffffffffffffffffffffffffffff1614155b801561418357506141818184612bd0565b155b156141c557826040517fa9fbf51f0000000000000000000000000000000000000000000000000000000081526004016141bc9190614c44565b60405180910390fd5b811561422757838573ffffffffffffffffffffffffffffffffffffffff168273ffffffffffffffffffffffffffffffffffffffff167f8c5be1e5ebec7d5bd14f71427d1e84f3dd0314c0f7b2291e5b200ac8c7c3b92560405160405180910390a45b505b8360045f8581526020019081526020015f205f6101000a81548173ffffffffffffffffffffffffffffffffffffffff021916908373ffffffffffffffffffffffffffffffffffffffff16021790555050505050565b614289838383614811565b61433c575f73ffffffffffffffffffffffffffffffffffffffff168373ffffffffffffffffffffffffffffffffffffffff16036142fd57806040517f7e2732890000000000000000000000000000000000000000000000000000000081526004016142f49190614982565b60405180910390fd5b81816040517f177e802f000000000000000000000000000000000000000000000000000000008152600401614333929190616021565b60405180910390fd5b505050565b5f61434b83611a8f565b905081471015614387576040517f6e950c1200000000000000000000000000000000000000000000000000000000815260040160405180910390fd5b5f600d5f8581526020019081526020015f205f5f73ffffffffffffffffffffffffffffffffffffffff1673ffffffffffffffffffffffffffffffffffffffff1681526020019081526020015f20819055508073ffffffffffffffffffffffffffffffffffffffff167fb324a903f71474419dc3b14914940179d7f8713766efe895419449a40f1e3aa98360405161441e9190614982565b60405180910390a25f8173ffffffffffffffffffffffffffffffffffffffff168360405161444b9061606b565b5f6040518083038185875af1925050503d805f8114614485576040519150601f19603f3d011682016040523d82523d5f602084013e61448a565b606091505b50509050806144c5576040517f2ae1638500000000000000000000000000000000000000000000000000000000815260040160405180910390fd5b50505050565b805f8103614505576040517f365d2eeb00000000000000000000000000000000000000000000000000000000815260040160405180910390fd5b5f600d5f8681526020019081526020015f205f8573ffffffffffffffffffffffffffffffffffffffff1673ffffffffffffffffffffffffffffffffffffffff1681526020019081526020015f20819055508273ffffffffffffffffffffffffffffffffffffffff1661457685611a8f565b73ffffffffffffffffffffffffffffffffffffffff167fb60a549f876785734362fc35e9d49d29ab232f8b9dbfc01882fa744b1666fd9b846040516145bb9190614982565b60405180910390a38273ffffffffffffffffffffffffffffffffffffffff1663a9059cbb6145e886611a8f565b846040518363ffffffff1660e01b8152600401614606929190616021565b6020604051808303815f875af1158015614622573d5f5f3e3d5ffd5b505050506040513d601f19601f82011682018060405250810190614646919061534a565b61467c576040517f2ae1638500000000000000000000000000000000000000000000000000000000815260040160405180910390fd5b50505050565b60605f8451036146a25760405180602001604052805f815250905061480a565b5f826146d35760036002865160046146ba91906155e1565b6146c49190614940565b6146ce919061564f565b6146fa565b6003600286516146e39190614940565b6146ed919061564f565b60046146f991906155e1565b5b90505f8167ffffffffffffffff81111561471757614716614e7b565b5b6040519080825280601f01601f1916602001820160405280156147495781602001600182028036833780820191505090505b509050600185016020820187885189016020810180515f82525b828410156147be576003840193508351603f8160121c168701518653600186019550603f81600c1c168701518653600186019550603f8160061c168701518653600186019550603f8116870151865360018601955050614763565b80825289156147fe5760038c5106600181146147e157600281146147f4576147fc565b603d6001870353603d60028703536147fc565b603d60018703535b505b50505050505080925050505b9392505050565b5f5f73ffffffffffffffffffffffffffffffffffffffff168373ffffffffffffffffffffffffffffffffffffffff16141580156148c857508273ffffffffffffffffffffffffffffffffffffffff168473ffffffffffffffffffffffffffffffffffffffff16148061488957506148888484612bd0565b5b806148c757508273ffffffffffffffffffffffffffffffffffffffff166148af83613057565b73ffffffffffffffffffffffffffffffffffffffff16145b5b90509392505050565b5080545f8255905f5260205f20908101906148ec91906148ef565b50565b5b80821115614906575f815f9055506001016148f0565b5090565b5f819050919050565b7f4e487b71000000000000000000000000000000000000000000000000000000005f52601160045260245ffd5b5f61494a8261490a565b91506149558361490a565b925082820190508082111561496d5761496c614913565b5b92915050565b61497c8161490a565b82525050565b5f6020820190506149955f830184614973565b92915050565b5f6149a58261490a565b91507fffffffffffffffffffffffffffffffffffffffffffffffffffffffffffffffff82036149d7576149d6614913565b5b600182019050919050565b5f604051905090565b5f5ffd5b5f5ffd5b5f7fffffffff0000000000000000000000000000000000000000000000000000000082169050919050565b614a27816149f3565b8114614a31575f5ffd5b50565b5f81359050614a4281614a1e565b92915050565b5f60208284031215614a5d57614a5c6149eb565b5b5f614a6a84828501614a34565b91505092915050565b5f8115159050919050565b614a8781614a73565b82525050565b5f602082019050614aa05f830184614a7e565b92915050565b5f73ffffffffffffffffffffffffffffffffffffffff82169050919050565b5f614acf82614aa6565b9050919050565b614adf81614ac5565b8114614ae9575f5ffd5b50565b5f81359050614afa81614ad6565b92915050565b614b098161490a565b8114614b13575f5ffd5b50565b5f81359050614b2481614b00565b92915050565b5f5f5f60608486031215614b4157614b406149eb565b5b5f614b4e86828701614aec565b9350506020614b5f86828701614b16565b9250506040614b7086828701614b16565b9150509250925092565b5f81519050919050565b5f82825260208201905092915050565b8281835e5f83830152505050565b5f601f19601f8301169050919050565b5f614bbc82614b7a565b614bc68185614b84565b9350614bd6818560208601614b94565b614bdf81614ba2565b840191505092915050565b5f6020820190508181035f830152614c028184614bb2565b905092915050565b5f60208284031215614c1f57614c1e6149eb565b5b5f614c2c84828501614b16565b91505092915050565b614c3e81614ac5565b82525050565b5f602082019050614c575f830184614c35565b92915050565b5f5f60408385031215614c7357614c726149eb565b5b5f614c8085828601614aec565b9250506020614c9185828601614b16565b9150509250929050565b5f5f5f60608486031215614cb257614cb16149eb565b5b5f614cbf86828701614aec565b9350506020614cd086828701614aec565b9250506040614ce186828701614b16565b9150509250925092565b5f5f60408385031215614d0157614d006149eb565b5b5f614d0e85828601614b16565b9250506020614d1f85828601614aec565b9150509250929050565b5f60208284031215614d3e57614d3d6149eb565b5b5f614d4b84828501614aec565b91505092915050565b5f81519050919050565b5f82825260208201905092915050565b5f819050602082019050919050565b5f82825260208201905092915050565b5f614d9782614b7a565b614da18185614d7d565b9350614db1818560208601614b94565b614dba81614ba2565b840191505092915050565b5f614dd08383614d8d565b905092915050565b5f602082019050919050565b5f614dee82614d54565b614df88185614d5e565b935083602082028501614e0a85614d6e565b805f5b85811015614e455784840389528151614e268582614dc5565b9450614e3183614dd8565b925060208a01995050600181019050614e0d565b50829750879550505050505092915050565b5f6020820190508181035f830152614e6f8184614de4565b905092915050565b5f5ffd5b7f4e487b71000000000000000000000000000000000000000000000000000000005f52604160045260245ffd5b614eb182614ba2565b810181811067ffffffffffffffff82111715614ed057614ecf614e7b565b5b80604052505050565b5f614ee26149e2565b9050614eee8282614ea8565b919050565b5f67ffffffffffffffff821115614f0d57614f0c614e7b565b5b602082029050602081019050919050565b5f5ffd5b5f614f34614f2f84614ef3565b614ed9565b90508083825260208201905060208402830185811115614f5757614f56614f1e565b5b835b81811015614f805780614f6c8882614aec565b845260208401935050602081019050614f59565b5050509392505050565b5f82601f830112614f9e57614f9d614e77565b5b8135614fae848260208601614f22565b91505092915050565b5f67ffffffffffffffff821115614fd157614fd0614e7b565b5b602082029050602081019050919050565b5f614ff4614fef84614fb7565b614ed9565b9050808382526020820190506020840283018581111561501757615016614f1e565b5b835b81811015615040578061502c8882614b16565b845260208401935050602081019050615019565b5050509392505050565b5f82601f83011261505e5761505d614e77565b5b813561506e848260208601614fe2565b91505092915050565b5f5f6040838503121561508d5761508c6149eb565b5b5f83013567ffffffffffffffff8111156150aa576150a96149ef565b5b6150b685828601614f8a565b925050602083013567ffffffffffffffff8111156150d7576150d66149ef565b5b6150e38582860161504a565b9150509250929050565b6150f681614a73565b8114615100575f5ffd5b50565b5f81359050615111816150ed565b92915050565b5f5f6040838503121561512d5761512c6149eb565b5b5f61513a85828601614aec565b925050602061514b85828601615103565b9150509250929050565b5f5ffd5b5f67ffffffffffffffff82111561517357615172614e7b565b5b61517c82614ba2565b9050602081019050919050565b828183375f83830152505050565b5f6151a96151a484615159565b614ed9565b9050828152602081018484840111156151c5576151c4615155565b5b6151d0848285615189565b509392505050565b5f82601f8301126151ec576151eb614e77565b5b81356151fc848260208601615197565b91505092915050565b5f5f5f5f6080858703121561521d5761521c6149eb565b5b5f61522a87828801614aec565b945050602061523b87828801614aec565b935050604061524c87828801614b16565b925050606085013567ffffffffffffffff81111561526d5761526c6149ef565b5b615279878288016151d8565b91505092959194509250565b5f5f6040838503121561529b5761529a6149eb565b5b5f6152a885828601614b16565b92505060206152b985828601614b16565b9150509250929050565b5f5f604083850312156152d9576152d86149eb565b5b5f6152e685828601614aec565b92505060206152f785828601614aec565b9150509250929050565b5f6060820190506153145f830186614c35565b6153216020830185614c35565b61532e6040830184614973565b949350505050565b5f81519050615344816150ed565b92915050565b5f6020828403121561535f5761535e6149eb565b5b5f61536c84828501615336565b91505092915050565b7f4e487b71000000000000000000000000000000000000000000000000000000005f52602260045260245ffd5b5f60028204905060018216806153b957607f821691505b6020821081036153cc576153cb615375565b5b50919050565b5f6060820190506153e55f830186614c35565b6153f26020830185614973565b6153ff6040830184614c35565b949350505050565b5f60ff82169050919050565b61541c81615407565b8114615426575f5ffd5b50565b5f8151905061543781615413565b92915050565b5f60208284031215615452576154516149eb565b5b5f61545f84828501615429565b91505092915050565b5f8160011c9050919050565b5f5f8291508390505b60018511156154bd5780860481111561549957615498614913565b5b60018516156154a85780820291505b80810290506154b685615468565b945061547d565b94509492505050565b5f826154d55760019050615590565b816154e2575f9050615590565b81600181146154f8576002811461550257615531565b6001915050615590565b60ff84111561551457615513614913565b5b8360020a91508482111561552b5761552a614913565b5b50615590565b5060208310610133831016604e8410600b84101617156155665782820a90508381111561556157615560614913565b5b615590565b6155738484846001615474565b9250905081840481111561558a57615589614913565b5b81810290505b9392505050565b5f6155a18261490a565b91506155ac8361490a565b92506155d97fffffffffffffffffffffffffffffffffffffffffffffffffffffffffffffffff84846154c6565b905092915050565b5f6155eb8261490a565b91506155f68361490a565b92508282026156048161490a565b9150828204841483151761561b5761561a614913565b5b5092915050565b7f4e487b71000000000000000000000000000000000000000000000000000000005f52601260045260245ffd5b5f6156598261490a565b91506156648361490a565b92508261567457615673615622565b5b828204905092915050565b7f4e487b71000000000000000000000000000000000000000000000000000000005f52603260045260245ffd5b5f81905092915050565b5f819050815f5260205f209050919050565b5f81546156d4816153a2565b6156de81866156ac565b9450600182165f81146156f8576001811461570d5761573f565b60ff198316865281151582028601935061573f565b615716856156b6565b5f5b8381101561573757815481890152600182019150602081019050615718565b838801955050505b50505092915050565b7f20000000000000000000000000000000000000000000000000000000000000005f82015250565b5f61577c6001836156ac565b915061578782615748565b600182019050919050565b5f61579c82614b7a565b6157a681856156ac565b93506157b6818560208601614b94565b80840191505092915050565b5f6157cd82856156c8565b91506157d882615770565b91506157e48284615792565b91508190509392505050565b5f67ffffffffffffffff82111561580a57615809614e7b565b5b61581382614ba2565b9050602081019050919050565b5f61583261582d846157f0565b614ed9565b90508281526020810184848401111561584e5761584d615155565b5b615859848285614b94565b509392505050565b5f82601f83011261587557615874614e77565b5b8151615885848260208601615820565b91505092915050565b5f602082840312156158a3576158a26149eb565b5b5f82015167ffffffffffffffff8111156158c0576158bf6149ef565b5b6158cc84828501615861565b91505092915050565b5f6158e08285615792565b91506158eb82615770565b91506158f78284615792565b91508190509392505050565b5f81519050919050565b5f81905092915050565b5f61592182615903565b61592b818561590d565b935061593b818560208601614b94565b80840191505092915050565b7f7b2274726169745f74797065223a2200000000000000000000000000000000005f82015250565b5f61597b600f836156ac565b915061598682615947565b600f82019050919050565b7f222c2276616c7565223a220000000000000000000000000000000000000000005f82015250565b5f6159c5600b836156ac565b91506159d082615991565b600b82019050919050565b7f227d0000000000000000000000000000000000000000000000000000000000005f82015250565b5f615a0f6002836156ac565b9150615a1a826159db565b600282019050919050565b5f615a308287615917565b9150615a3c8286615917565b9150615a478261596f565b9150615a538285615792565b9150615a5e826159b9565b9150615a6a8284615792565b9150615a7582615a03565b915081905095945050505050565b7f7b22746f6b656e4964223a2200000000000000000000000000000000000000005f82015250565b5f615ab7600c836156ac565b9150615ac282615a83565b600c82019050919050565b7f222c226e616d65223a22000000000000000000000000000000000000000000005f82015250565b5f615b01600a836156ac565b9150615b0c82615acd565b600a82019050919050565b7f20230000000000000000000000000000000000000000000000000000000000005f82015250565b5f615b4b6002836156ac565b9150615b5682615b17565b600282019050919050565b7f20240000000000000000000000000000000000000000000000000000000000005f82015250565b5f615b956002836156ac565b9150615ba082615b61565b600282019050919050565b7f222c226465736372697074696f6e223a22446563656e7472616c697a656420435f8201527f7570206f6620617373657473222c2261747472696275746573223a5b00000000602082015250565b5f615c05603c836156ac565b9150615c1082615bab565b603c82019050919050565b7f7b2274726169745f74797065223a2254434c222c2276616c7565223a220000005f82015250565b5f615c4f601d836156ac565b9150615c5a82615c1b565b601d82019050919050565b7f20555344227d00000000000000000000000000000000000000000000000000005f82015250565b5f615c996006836156ac565b9150615ca482615c65565b600682019050919050565b7f5d2c22696d616765223a220000000000000000000000000000000000000000005f82015250565b5f615ce3600b836156ac565b9150615cee82615caf565b600b82019050919050565b5f615d0382615aab565b9150615d0f828b615792565b9150615d1a82615af5565b9150615d26828a615792565b9150615d3182615b3f565b9150615d3d8289615792565b9150615d4882615b89565b9150615d548288615792565b9150615d5f82615bf9565b9150615d6a82615c43565b9150615d768287615792565b9150615d8182615c8d565b9150615d8d8286615792565b9150615d998285615917565b9150615da482615cd7565b9150615db082846156c8565b9150615dbb82615a03565b91508190509998505050505050505050565b5f615dd88285615792565b9150615de48284615792565b91508190509392505050565b5f69ffffffffffffffffffff82169050919050565b615e0e81615df0565b8114615e18575f5ffd5b50565b5f81519050615e2981615e05565b92915050565b5f819050919050565b615e4181615e2f565b8114615e4b575f5ffd5b50565b5f81519050615e5c81615e38565b92915050565b5f81519050615e7081614b00565b92915050565b5f5f5f5f5f60a08688031215615e8f57615e8e6149eb565b5b5f615e9c88828901615e1b565b9550506020615ead88828901615e4e565b9450506040615ebe88828901615e62565b9350506060615ecf88828901615e62565b9250506080615ee088828901615e1b565b9150509295509295909350565b5f615ef78261490a565b9150615f028361490a565b9250828203905081811115615f1a57615f19614913565b5b92915050565b5f615f2a8261490a565b9150615f358361490a565b925082615f4557615f44615622565b5b828206905092915050565b5f82825260208201905092915050565b5f615f6a82615903565b615f748185615f50565b9350615f84818560208601614b94565b615f8d81614ba2565b840191505092915050565b5f608082019050615fab5f830187614c35565b615fb86020830186614c35565b615fc56040830185614973565b8181036060830152615fd78184615f60565b905095945050505050565b5f81519050615ff081614a1e565b92915050565b5f6020828403121561600b5761600a6149eb565b5b5f61601884828501615fe2565b91505092915050565b5f6040820190506160345f830185614c35565b6160416020830184614973565b9392505050565b50565b5f6160565f8361590d565b915061606182616048565b5f82019050919050565b5f6160758261604b565b915081905091905056fe4142434445464748494a4b4c4d4e4f505152535455565758595a6162636465666768696a6b6c6d6e6f707172737475767778797a303132333435363738392b2fa264697066735822122087c9253db612d162ce6c203aeca2e86c2414a6b48213e373f7ad89cbeba0a45b64736f6c634300081d0033","linkReferences":{}},"methodIdentifiers":{"addNativeCollateralToExistingCup(uint256)":"427a7540","addTokenCollateralToExistingCup(address,uint256,uint256)":"034f7673","approve(address,uint256)":"095ea7b3","balanceOf(address)":"70a08231","burn(uint256)":"42966c68","depositMultipleAssetsAndMint(address[],uint256[])":"9ec99494","depositSingleAssetAndMint(address,uint256)":"3e9bee72","getApproved(uint256)":"081812fc","getAssetValueInUsd(address,uint256)":"5637c1aa","getAssetsInfo(uint256)":"900472e5","getCollateralBalance(uint256,address)":"4e300684","getIsListedForSale(uint256)":"91041959","getIsListedForSaleOnChain(uint256)":"aacc92a4","getTokenCounter()":"6e02007d","getTokenPriceInUsd(uint256)":"fdcd8d3a","isApprovedForAll(address,address)":"e985e9c5","listForSale(uint256,uint256)":"e80d7fec","name()":"06fdde03","owner()":"8da5cb5b","ownerOf(uint256)":"6352211e","removeFromSale(uint256)":"1361a3b6","renounceOwnership()":"715018a6","safeTransferFrom(address,address,uint256)":"42842e0e","safeTransferFrom(address,address,uint256,bytes)":"b88d4fde","setApprovalForAll(address,bool)":"a22cb465","supportsInterface(bytes4)":"01ffc9a7","symbol()":"95d89b41","tokenURI(uint256)":"c87b56dd","transfer(uint256,address)":"b7760c8f","transferAndBurn(uint256,address)":"fcb75eae","transferFrom(address,address,uint256)":"23b872dd","transferOwnership(address)":"f2fde38b"},"id":47}