{"abi":[{"type":"constructor","inputs":[{"name":"_baseSvgImageUri","type":"string","internalType":"string"},{"name":"_tokenAddresses","type":"address[]","internalType":"address[]"},{"name":"_priceFeedAddresses","type":"address[]","internalType":"address[]"},{"name":"_defaultPriceFeed","type":"address","internalType":"address"},{"name":"_defaultSymbol","type":"string","internalType":"string"}],"stateMutability":"nonpayable"},{"type":"receive","stateMutability":"payable"},{"type":"function","name":"addNativeCollateralToExistingCup","inputs":[{"name":"tokenId","type":"uint256","internalType":"uint256"}],"outputs":[],"stateMutability":"payable"},{"type":"function","name":"addTokenCollateralToExistingCup","inputs":[{"name":"tokenAddress","type":"address","internalType":"address"},{"name":"amount","type":"uint256","internalType":"uint256"},{"name":"tokenId","type":"uint256","internalType":"uint256"}],"outputs":[],"stateMutability":"nonpayable"},{"type":"function","name":"approve","inputs":[{"name":"to","type":"address","internalType":"address"},{"name":"tokenId","type":"uint256","internalType":"uint256"}],"outputs":[],"stateMutability":"nonpayable"},{"type":"function","name":"balanceOf","inputs":[{"name":"owner","type":"address","internalType":"address"}],"outputs":[{"name":"","type":"uint256","internalType":"uint256"}],"stateMutability":"view"},{"type":"function","name":"burn","inputs":[{"name":"tokenId","type":"uint256","internalType":"uint256"}],"outputs":[],"stateMutability":"nonpayable"},{"type":"function","name":"depositMultipleAssetsAndMint","inputs":[{"name":"tokenAddresses","type":"address[]","internalType":"address[]"},{"name":"amounts","type":"uint256[]","internalType":"uint256[]"}],"outputs":[],"stateMutability":"payable"},{"type":"function","name":"depositSingleAssetAndMint","inputs":[{"name":"tokenAddress","type":"address","internalType":"address"},{"name":"amount","type":"uint256","internalType":"uint256"}],"outputs":[],"stateMutability":"payable"},{"type":"function","name":"getApproved","inputs":[{"name":"tokenId","type":"uint256","internalType":"uint256"}],"outputs":[{"name":"","type":"address","internalType":"address"}],"stateMutability":"view"},{"type":"function","name":"getAssetValueInUsd","inputs":[{"name":"tokenAddress","type":"address","internalType":"address"},{"name":"amount","type":"uint256","internalType":"uint256"}],"outputs":[{"name":"","type":"uint256","internalType":"uint256"}],"stateMutability":"view"},{"type":"function","name":"getAssetsInfo","inputs":[{"name":"tokenId","type":"uint256","internalType":"uint256"}],"outputs":[{"name":"","type":"string[]","internalType":"string[]"}],"stateMutability":"view"},{"type":"function","name":"getCollateralBalance","inputs":[{"name":"tokenId","type":"uint256","internalType":"uint256"},{"name":"tokenAddress","type":"address","internalType":"address"}],"outputs":[{"name":"","type":"uint256","internalType":"uint256"}],"stateMutability":"view"},{"type":"function","name":"getIsListedForSale","inputs":[{"name":"tokenId","type":"uint256","internalType":"uint256"}],"outputs":[{"name":"","type":"bool","internalType":"bool"}],"stateMutability":"view"},{"type":"function","name":"getIsListedForSaleOnChain","inputs":[{"name":"tokenId","type":"uint256","internalType":"uint256"}],"outputs":[{"name":"","type":"uint256","internalType":"uint256"}],"stateMutability":"view"},{"type":"function","name":"getTokenCounter","inputs":[],"outputs":[{"name":"","type":"uint256","internalType":"uint256"}],"stateMutability":"view"},{"type":"function","name":"getTokenPriceInUsd","inputs":[{"name":"tokenId","type":"uint256","internalType":"uint256"}],"outputs":[{"name":"","type":"uint256","internalType":"uint256"}],"stateMutability":"view"},{"type":"function","name":"isApprovedForAll","inputs":[{"name":"owner","type":"address","internalType":"address"},{"name":"operator","type":"address","internalType":"address"}],"outputs":[{"name":"","type":"bool","internalType":"bool"}],"stateMutability":"view"},{"type":"function","name":"listForSale","inputs":[{"name":"tokenId","type":"uint256","internalType":"uint256"},{"name":"chainId","type":"uint256","internalType":"uint256"}],"outputs":[],"stateMutability":"nonpayable"},{"type":"function","name":"name","inputs":[],"outputs":[{"name":"","type":"string","internalType":"string"}],"stateMutability":"view"},{"type":"function","name":"owner","inputs":[],"outputs":[{"name":"","type":"address","internalType":"address"}],"stateMutability":"view"},{"type":"function","name":"ownerOf","inputs":[{"name":"tokenId","type":"uint256","internalType":"uint256"}],"outputs":[{"name":"","type":"address","internalType":"address"}],"stateMutability":"view"},{"type":"function","name":"removeFromSale","inputs":[{"name":"tokenId","type":"uint256","internalType":"uint256"}],"outputs":[],"stateMutability":"nonpayable"},{"type":"function","name":"renounceOwnership","inputs":[],"outputs":[],"stateMutability":"nonpayable"},{"type":"function","name":"safeTransferFrom","inputs":[{"name":"from","type":"address","internalType":"address"},{"name":"to","type":"address","internalType":"address"},{"name":"tokenId","type":"uint256","internalType":"uint256"}],"outputs":[],"stateMutability":"nonpayable"},{"type":"function","name":"safeTransferFrom","inputs":[{"name":"from","type":"address","internalType":"address"},{"name":"to","type":"address","internalType":"address"},{"name":"tokenId","type":"uint256","internalType":"uint256"},{"name":"data","type":"bytes","internalType":"bytes"}],"outputs":[],"stateMutability":"nonpayable"},{"type":"function","name":"setApprovalForAll","inputs":[{"name":"operator","type":"address","internalType":"address"},{"name":"approved","type":"bool","internalType":"bool"}],"outputs":[],"stateMutability":"nonpayable"},{"type":"function","name":"supportsInterface","inputs":[{"name":"interfaceId","type":"bytes4","internalType":"bytes4"}],"outputs":[{"name":"","type":"bool","internalType":"bool"}],"stateMutability":"view"},{"type":"function","name":"symbol","inputs":[],"outputs":[{"name":"","type":"string","internalType":"string"}],"stateMutability":"view"},{"type":"function","name":"tokenURI","inputs":[{"name":"_tokenId","type":"uint256","internalType":"uint256"}],"outputs":[{"name":"","type":"string","internalType":"string"}],"stateMutability":"view"},{"type":"function","name":"transfer","inputs":[{"name":"tokenId","type":"uint256","internalType":"uint256"},{"name":"to","type":"address","internalType":"address"}],"outputs":[{"name":"","type":"bool","internalType":"bool"}],"stateMutability":"nonpayable"},{"type":"function","name":"transferAndBurn","inputs":[{"name":"tokenId","type":"uint256","internalType":"uint256"},{"name":"to","type":"address","internalType":"address"}],"outputs":[{"name":"","type":"bool","internalType":"bool"}],"stateMutability":"nonpayable"},{"type":"function","name":"transferFrom","inputs":[{"name":"from","type":"address","internalType":"address"},{"name":"to","type":"address","internalType":"address"},{"name":"tokenId","type":"uint256","internalType":"uint256"}],"outputs":[],"stateMutability":"nonpayable"},{"type":"function","name":"transferOwnership","inputs":[{"name":"newOwner","type":"address","internalType":"address"}],"outputs":[],"stateMutability":"nonpayable"},{"type":"event","name":"Approval","inputs":[{"name":"owner","type":"address","indexed":true,"internalType":"address"},{"name":"approved","type":"address","indexed":true,"internalType":"address"},{"name":"tokenId","type":"uint256","indexed":true,"internalType":"uint256"}],"anonymous":false},{"type":"event","name":"ApprovalForAll","inputs":[{"name":"owner","type":"address","indexed":true,"internalType":"address"},{"name":"operator","type":"address","indexed":true,"internalType":"address"},{"name":"approved","type":"bool","indexed":false,"internalType":"bool"}],"anonymous":false},{"type":"event","name":"Burn","inputs":[{"name":"tokenId","type":"uint256","indexed":true,"internalType":"uint256"}],"anonymous":false},{"type":"event","name":"DepositERC20Token","inputs":[{"name":"from","type":"address","indexed":true,"internalType":"address"},{"name":"tokenId","type":"uint256","indexed":true,"internalType":"uint256"},{"name":"token","type":"address","indexed":true,"internalType":"address"},{"name":"amount","type":"uint256","indexed":false,"internalType":"uint256"}],"anonymous":false},{"type":"event","name":"DepositNativeCurrency","inputs":[{"name":"from","type":"address","indexed":true,"internalType":"address"},{"name":"tokenId","type":"uint256","indexed":true,"internalType":"uint256"},{"name":"amount","type":"uint256","indexed":false,"internalType":"uint256"}],"anonymous":false},{"type":"event","name":"OwnershipTransferred","inputs":[{"name":"previousOwner","type":"address","indexed":true,"internalType":"address"},{"name":"newOwner","type":"address","indexed":true,"internalType":"address"}],"anonymous":false},{"type":"event","name":"TokenListedForSale","inputs":[{"name":"tokenId","type":"uint256","indexed":true,"internalType":"uint256"},{"name":"chainId","type":"uint256","indexed":true,"internalType":"uint256"}],"anonymous":false},{"type":"event","name":"TokenRemovedFromSale","inputs":[{"name":"tokenId","type":"uint256","indexed":true,"internalType":"uint256"}],"anonymous":false},{"type":"event","name":"Transfer","inputs":[{"name":"from","type":"address","indexed":true,"internalType":"address"},{"name":"to","type":"address","indexed":true,"internalType":"address"},{"name":"tokenId","type":"uint256","indexed":true,"internalType":"uint256"}],"anonymous":false},{"type":"event","name":"TransferAndBurn","inputs":[{"name":"tokenId","type":"uint256","indexed":true,"internalType":"uint256"}],"anonymous":false},{"type":"event","name":"WithdrawERC20Token","inputs":[{"name":"to","type":"address","indexed":true,"internalType":"address"},{"name":"token","type":"address","indexed":true,"internalType":"address"},{"name":"amount","type":"uint256","indexed":false,"internalType":"uint256"}],"anonymous":false},{"type":"event","name":"WithdrawNativeCurrency","inputs":[{"name":"to","type":"address","indexed":true,"internalType":"address"},{"name":"amount","type":"uint256","indexed":false,"internalType":"uint256"}],"anonymous":false},{"type":"error","name":"DeCup__AllowedTokenAddressesMustNotBeEmpty","inputs":[]},{"type":"error","name":"DeCup__AmountMustBeGreaterThanZero","inputs":[]},{"type":"error","name":"DeCup__InsufficientBalance","inputs":[]},{"type":"error","name":"DeCup__NotAllowedToken","inputs":[]},{"type":"error","name":"DeCup__NotOwner","inputs":[]},{"type":"error","name":"DeCup__NotOwnerOrManager","inputs":[]},{"type":"error","name":"DeCup__NotTokenOwner","inputs":[]},{"type":"error","name":"DeCup__PriceFeedAddressesMustNotBeEmpty","inputs":[]},{"type":"error","name":"DeCup__TokenAddressesAndAmountsMusBeSameLength","inputs":[]},{"type":"error","name":"DeCup__TokenAddressesAndPriceFeedAddressesMusBeSameLength","inputs":[]},{"type":"error","name":"DeCup__TokenDoesNotExist","inputs":[]},{"type":"error","name":"DeCup__TokenIsListedForSale","inputs":[]},{"type":"error","name":"DeCup__TokenIsNotListedForSale","inputs":[]},{"type":"error","name":"DeCup__TransferFailed","inputs":[]},{"type":"error","name":"ERC721IncorrectOwner","inputs":[{"name":"sender","type":"address","internalType":"address"},{"name":"tokenId","type":"uint256","internalType":"uint256"},{"name":"owner","type":"address","internalType":"address"}]},{"type":"error","name":"ERC721InsufficientApproval","inputs":[{"name":"operator","type":"address","internalType":"address"},{"name":"tokenId","type":"uint256","internalType":"uint256"}]},{"type":"error","name":"ERC721InvalidApprover","inputs":[{"name":"approver","type":"address","internalType":"address"}]},{"type":"error","name":"ERC721InvalidOperator","inputs":[{"name":"operator","type":"address","internalType":"address"}]},{"type":"error","name":"ERC721InvalidOwner","inputs":[{"name":"owner","type":"address","internalType":"address"}]},{"type":"error","name":"ERC721InvalidReceiver","inputs":[{"name":"receiver","type":"address","internalType":"address"}]},{"type":"error","name":"ERC721InvalidSender","inputs":[{"name":"sender","type":"address","internalType":"address"}]},{"type":"error","name":"ERC721NonexistentToken","inputs":[{"name":"tokenId","type":"uint256","internalType":"uint256"}]},{"type":"error","name":"OwnableInvalidOwner","inputs":[{"name":"owner","type":"address","internalType":"address"}]},{"type":"error","name":"OwnableUnauthorizedAccount","inputs":[{"name":"account","type":"address","internalType":"address"}]},{"type":"error","name":"ReentrancyGuardReentrantCall","inputs":[]}],"bytecode":{"object":"0x60a060405234801561000f575f5ffd5b50604051616be2380380616be283398181016040528101906100319190610654565b336040518060400160405280600581526020017f44654375700000000000000000000000000000000000000000000000000000008152506040518060400160405280600381526020017f4443540000000000000000000000000000000000000000000000000000000000815250815f90816100ac919061094b565b5080600190816100bc919061094b565b5050505f73ffffffffffffffffffffffffffffffffffffffff168173ffffffffffffffffffffffffffffffffffffffff160361012f575f6040517f1e4fbdf70000000000000000000000000000000000000000000000000000000081526004016101269190610a29565b60405180910390fd5b61013e8161032660201b60201c565b5060016007819055505f845103610181576040517f058e32ea00000000000000000000000000000000000000000000000000000000815260040160405180910390fd5b5f8351036101bb576040517f1ebe240500000000000000000000000000000000000000000000000000000000815260040160405180910390fd5b82518451146101f6576040517f48cdfcb100000000000000000000000000000000000000000000000000000000815260040160405180910390fd5b5f5f90505b84518110156102c05783818151811061021757610216610a42565b5b6020026020010151600c5f87848151811061023557610234610a42565b5b602002602001015173ffffffffffffffffffffffffffffffffffffffff1673ffffffffffffffffffffffffffffffffffffffff1681526020019081526020015f205f6101000a81548173ffffffffffffffffffffffffffffffffffffffff021916908373ffffffffffffffffffffffffffffffffffffffff16021790555080806001019150506101fb565b505f60088190555084600990816102d7919061094b565b508173ffffffffffffffffffffffffffffffffffffffff1660808173ffffffffffffffffffffffffffffffffffffffff168152505080600a908161031b919061094b565b505050505050610a6f565b5f60065f9054906101000a900473ffffffffffffffffffffffffffffffffffffffff1690508160065f6101000a81548173ffffffffffffffffffffffffffffffffffffffff021916908373ffffffffffffffffffffffffffffffffffffffff1602179055508173ffffffffffffffffffffffffffffffffffffffff168173ffffffffffffffffffffffffffffffffffffffff167f8be0079c531659141344cd1fd0a4f28419497f9722a3daafe3b4186f6b6457e060405160405180910390a35050565b5f604051905090565b5f5ffd5b5f5ffd5b5f5ffd5b5f5ffd5b5f601f19601f8301169050919050565b7f4e487b71000000000000000000000000000000000000000000000000000000005f52604160045260245ffd5b61044882610402565b810181811067ffffffffffffffff8211171561046757610466610412565b5b80604052505050565b5f6104796103e9565b9050610485828261043f565b919050565b5f67ffffffffffffffff8211156104a4576104a3610412565b5b6104ad82610402565b9050602081019050919050565b8281835e5f83830152505050565b5f6104da6104d58461048a565b610470565b9050828152602081018484840111156104f6576104f56103fe565b5b6105018482856104ba565b509392505050565b5f82601f83011261051d5761051c6103fa565b5b815161052d8482602086016104c8565b91505092915050565b5f67ffffffffffffffff8211156105505761054f610412565b5b602082029050602081019050919050565b5f5ffd5b5f73ffffffffffffffffffffffffffffffffffffffff82169050919050565b5f61058e82610565565b9050919050565b61059e81610584565b81146105a8575f5ffd5b50565b5f815190506105b981610595565b92915050565b5f6105d16105cc84610536565b610470565b905080838252602082019050602084028301858111156105f4576105f3610561565b5b835b8181101561061d578061060988826105ab565b8452602084019350506020810190506105f6565b5050509392505050565b5f82601f83011261063b5761063a6103fa565b5b815161064b8482602086016105bf565b91505092915050565b5f5f5f5f5f60a0868803121561066d5761066c6103f2565b5b5f86015167ffffffffffffffff81111561068a576106896103f6565b5b61069688828901610509565b955050602086015167ffffffffffffffff8111156106b7576106b66103f6565b5b6106c388828901610627565b945050604086015167ffffffffffffffff8111156106e4576106e36103f6565b5b6106f088828901610627565b9350506060610701888289016105ab565b925050608086015167ffffffffffffffff811115610722576107216103f6565b5b61072e88828901610509565b9150509295509295909350565b5f81519050919050565b7f4e487b71000000000000000000000000000000000000000000000000000000005f52602260045260245ffd5b5f600282049050600182168061078957607f821691505b60208210810361079c5761079b610745565b5b50919050565b5f819050815f5260205f209050919050565b5f6020601f8301049050919050565b5f82821b905092915050565b5f600883026107fe7fffffffffffffffffffffffffffffffffffffffffffffffffffffffffffffffff826107c3565b61080886836107c3565b95508019841693508086168417925050509392505050565b5f819050919050565b5f819050919050565b5f61084c61084761084284610820565b610829565b610820565b9050919050565b5f819050919050565b61086583610832565b61087961087182610853565b8484546107cf565b825550505050565b5f5f905090565b610890610881565b61089b81848461085c565b505050565b5b818110156108be576108b35f82610888565b6001810190506108a1565b5050565b601f821115610903576108d4816107a2565b6108dd846107b4565b810160208510156108ec578190505b6109006108f8856107b4565b8301826108a0565b50505b505050565b5f82821c905092915050565b5f6109235f1984600802610908565b1980831691505092915050565b5f61093b8383610914565b9150826002028217905092915050565b6109548261073b565b67ffffffffffffffff81111561096d5761096c610412565b5b6109778254610772565b6109828282856108c2565b5f60209050601f8311600181146109b3575f84156109a1578287015190505b6109ab8582610930565b865550610a12565b601f1984166109c1866107a2565b5f5b828110156109e8578489015182556001820191506020850194506020810190506109c3565b86831015610a055784890151610a01601f891682610914565b8355505b6001600288020188555050505b505050505050565b610a2381610584565b82525050565b5f602082019050610a3c5f830184610a1a565b92915050565b7f4e487b71000000000000000000000000000000000000000000000000000000005f52603260045260245ffd5b60805161615b610a875f395f6135b2015261615b5ff3fe6080604052600436106101e6575f3560e01c8063715018a611610101578063b7760c8f11610094578063e985e9c511610063578063e985e9c514610891578063f2fde38b146108cd578063fcb75eae146108f5578063fdcd8d3a146109315761037f565b8063b7760c8f146107c9578063b88d4fde14610805578063c87b56dd1461082d578063e80d7fec146108695761037f565b806395d89b41116100d057806395d89b411461071f5780639ec9949414610749578063a22cb46514610765578063aacc92a41461078d5761037f565b8063715018a6146106675780638da5cb5b1461067d578063900472e5146106a757806391041959146106e35761037f565b8063427a7540116101795780635637c1aa116101485780635637c1aa146105895780636352211e146105c55780636e02007d1461060157806370a082311461062b5761037f565b8063427a7540146104e157806342842e0e146104fd57806342966c68146105255780634e3006841461054d5761037f565b8063095ea7b3116101b5578063095ea7b31461044d5780631361a3b61461047557806323b872dd1461049d5780633e9bee72146104c55761037f565b806301ffc9a714610383578063034f7673146103bf57806306fdde03146103e7578063081812fc146104115761037f565b3661037f57345f8103610225576040517f365d2eeb00000000000000000000000000000000000000000000000000000000815260040160405180910390fd5b61022d61096d565b5f600854905034600d5f8381526020019081526020015f205f5f73ffffffffffffffffffffffffffffffffffffffff1673ffffffffffffffffffffffffffffffffffffffff1681526020019081526020015f205f82825461028e9190614a09565b92505081905550600b5f8281526020019081526020015f205f908060018154018082558091505060019003905f5260205f20015f9091909190916101000a81548173ffffffffffffffffffffffffffffffffffffffff021916908373ffffffffffffffffffffffffffffffffffffffff160217905550803373ffffffffffffffffffffffffffffffffffffffff167f5ff1c2a4e2c2f4fea5d0601c68159c1cc003f2d8f550ed6d1950fec318c438ed3460405161034b9190614a4b565b60405180910390a361035d33826109b3565b60085f81548092919061036f90614a64565b91905055505061037d6109d0565b005b5f5ffd5b34801561038e575f5ffd5b506103a960048036038101906103a49190614b11565b6109da565b6040516103b69190614b56565b60405180910390f35b3480156103ca575f5ffd5b506103e560048036038101906103e09190614bf3565b610abb565b005b3480156103f2575f5ffd5b506103fb610ed5565b6040516104089190614cb3565b60405180910390f35b34801561041c575f5ffd5b5061043760048036038101906104329190614cd3565b610f64565b6040516104449190614d0d565b60405180910390f35b348015610458575f5ffd5b50610473600480360381019061046e9190614d26565b610f7f565b005b348015610480575f5ffd5b5061049b60048036038101906104969190614cd3565b610f95565b005b3480156104a8575f5ffd5b506104c360048036038101906104be9190614d64565b6110c3565b005b6104df60048036038101906104da9190614d26565b6111c2565b005b6104fb60048036038101906104f69190614cd3565b6114d2565b005b348015610508575f5ffd5b50610523600480360381019061051e9190614d64565b61175a565b005b348015610530575f5ffd5b5061054b60048036038101906105469190614cd3565b611779565b005b348015610558575f5ffd5b50610573600480360381019061056e9190614db4565b611941565b6040516105809190614a4b565b60405180910390f35b348015610594575f5ffd5b506105af60048036038101906105aa9190614d26565b611997565b6040516105bc9190614a4b565b60405180910390f35b3480156105d0575f5ffd5b506105eb60048036038101906105e69190614cd3565b611a8f565b6040516105f89190614d0d565b60405180910390f35b34801561060c575f5ffd5b50610615611aa0565b6040516106229190614a4b565b60405180910390f35b348015610636575f5ffd5b50610651600480360381019061064c9190614df2565b611aa9565b60405161065e9190614a4b565b60405180910390f35b348015610672575f5ffd5b5061067b611b5f565b005b348015610688575f5ffd5b50610691611b72565b60405161069e9190614d0d565b60405180910390f35b3480156106b2575f5ffd5b506106cd60048036038101906106c89190614cd3565b611b9a565b6040516106da9190614f20565b60405180910390f35b3480156106ee575f5ffd5b5061070960048036038101906107049190614cd3565b611eef565b6040516107169190614b56565b60405180910390f35b34801561072a575f5ffd5b50610733611f15565b6040516107409190614cb3565b60405180910390f35b610763600480360381019061075e9190615140565b611fa5565b005b348015610770575f5ffd5b5061078b600480360381019061078691906151e0565b612488565b005b348015610798575f5ffd5b506107b360048036038101906107ae9190614cd3565b61249e565b6040516107c09190614a4b565b60405180910390f35b3480156107d4575f5ffd5b506107ef60048036038101906107ea9190614db4565b61250c565b6040516107fc9190614b56565b60405180910390f35b348015610810575f5ffd5b5061082b600480360381019061082691906152ce565b61268b565b005b348015610838575f5ffd5b50610853600480360381019061084e9190614cd3565b6126b0565b6040516108609190614cb3565b60405180910390f35b348015610874575f5ffd5b5061088f600480360381019061088a919061534e565b612a9c565b005b34801561089c575f5ffd5b506108b760048036038101906108b2919061538c565b612bd0565b6040516108c49190614b56565b60405180910390f35b3480156108d8575f5ffd5b506108f360048036038101906108ee9190614df2565b612c5e565b005b348015610900575f5ffd5b5061091b60048036038101906109169190614db4565b612ce2565b6040516109289190614b56565b60405180910390f35b34801561093c575f5ffd5b5061095760048036038101906109529190614cd3565b612ea0565b6040516109649190614a4b565b60405180910390f35b6002600754036109a9576040517f3ee5aeb500000000000000000000000000000000000000000000000000000000815260040160405180910390fd5b6002600781905550565b6109cc828260405180602001604052805f815250612f45565b5050565b6001600781905550565b5f7f80ac58cd000000000000000000000000000000000000000000000000000000007bffffffffffffffffffffffffffffffffffffffffffffffffffffffff1916827bffffffffffffffffffffffffffffffffffffffffffffffffffffffff19161480610aa457507f5b5e139f000000000000000000000000000000000000000000000000000000007bffffffffffffffffffffffffffffffffffffffffffffffffffffffff1916827bffffffffffffffffffffffffffffffffffffffffffffffffffffffff1916145b80610ab45750610ab382612f68565b5b9050919050565b803373ffffffffffffffffffffffffffffffffffffffff16610adc82611a8f565b73ffffffffffffffffffffffffffffffffffffffff1614610b29576040517f82e5b88300000000000000000000000000000000000000000000000000000000815260040160405180910390fd5b81600e5f8281526020019081526020015f205f9054906101000a900460ff1615610b7f576040517fe33c265000000000000000000000000000000000000000000000000000000000815260040160405180910390fd5b835f8103610bb9576040517f365d2eeb00000000000000000000000000000000000000000000000000000000815260040160405180910390fd5b610bc161096d565b5f73ffffffffffffffffffffffffffffffffffffffff16600c5f8873ffffffffffffffffffffffffffffffffffffffff1673ffffffffffffffffffffffffffffffffffffffff1681526020019081526020015f205f9054906101000a900473ffffffffffffffffffffffffffffffffffffffff1673ffffffffffffffffffffffffffffffffffffffff1603610c82576040517fcab509ef00000000000000000000000000000000000000000000000000000000815260040160405180910390fd5b5f600d5f8681526020019081526020015f205f8873ffffffffffffffffffffffffffffffffffffffff1673ffffffffffffffffffffffffffffffffffffffff1681526020019081526020015f205403610d4557600b5f8581526020019081526020015f2086908060018154018082558091505060019003905f5260205f20015f9091909190916101000a81548173ffffffffffffffffffffffffffffffffffffffff021916908373ffffffffffffffffffffffffffffffffffffffff1602179055505b84600d5f8681526020019081526020015f205f8873ffffffffffffffffffffffffffffffffffffffff1673ffffffffffffffffffffffffffffffffffffffff1681526020019081526020015f205f828254610da09190614a09565b925050819055508573ffffffffffffffffffffffffffffffffffffffff16843373ffffffffffffffffffffffffffffffffffffffff167fb62f08cb3803756e5db42279c4e516b0414ee9257afce24cfe568383e23b4e5288604051610e059190614a4b565b60405180910390a45f8673ffffffffffffffffffffffffffffffffffffffff166323b872dd3330896040518463ffffffff1660e01b8152600401610e4b939291906153ca565b6020604051808303815f875af1158015610e67573d5f5f3e3d5ffd5b505050506040513d601f19601f82011682018060405250810190610e8b9190615413565b905080610ec4576040517f2ae1638500000000000000000000000000000000000000000000000000000000815260040160405180910390fd5b50610ecd6109d0565b505050505050565b60605f8054610ee39061546b565b80601f0160208091040260200160405190810160405280929190818152602001828054610f0f9061546b565b8015610f5a5780601f10610f3157610100808354040283529160200191610f5a565b820191905f5260205f20905b815481529060010190602001808311610f3d57829003601f168201915b5050505050905090565b5f610f6e82612fd1565b50610f7882613057565b9050919050565b610f918282610f8c613090565b613097565b5050565b3373ffffffffffffffffffffffffffffffffffffffff16610fb4611b72565b73ffffffffffffffffffffffffffffffffffffffff1614611001576040517f726a4f0300000000000000000000000000000000000000000000000000000000815260040160405180910390fd5b600e5f8281526020019081526020015f205f9054906101000a900460ff16611055576040517f0ab36bca00000000000000000000000000000000000000000000000000000000815260040160405180910390fd5b5f600e5f8381526020019081526020015f205f6101000a81548160ff0219169083151502179055505f600f5f8381526020019081526020015f2081905550807fccd0b7af52bf5f08ec6781299e66283301e612d1ca1ffceab3579a6364073c3060405160405180910390a250565b5f73ffffffffffffffffffffffffffffffffffffffff168273ffffffffffffffffffffffffffffffffffffffff1603611133575f6040517f64a0ae9200000000000000000000000000000000000000000000000000000000815260040161112a9190614d0d565b60405180910390fd5b5f6111468383611141613090565b6130a9565b90508373ffffffffffffffffffffffffffffffffffffffff168173ffffffffffffffffffffffffffffffffffffffff16146111bc578382826040517f64283d7b0000000000000000000000000000000000000000000000000000000081526004016111b39392919061549b565b60405180910390fd5b50505050565b805f81036111fc576040517f365d2eeb00000000000000000000000000000000000000000000000000000000815260040160405180910390fd5b61120461096d565b5f73ffffffffffffffffffffffffffffffffffffffff16600c5f8573ffffffffffffffffffffffffffffffffffffffff1673ffffffffffffffffffffffffffffffffffffffff1681526020019081526020015f205f9054906101000a900473ffffffffffffffffffffffffffffffffffffffff1673ffffffffffffffffffffffffffffffffffffffff16036112c5576040517fcab509ef00000000000000000000000000000000000000000000000000000000815260040160405180910390fd5b5f60085490508373ffffffffffffffffffffffffffffffffffffffff16813373ffffffffffffffffffffffffffffffffffffffff167fb62f08cb3803756e5db42279c4e516b0414ee9257afce24cfe568383e23b4e52866040516113299190614a4b565b60405180910390a482600d5f8381526020019081526020015f205f8673ffffffffffffffffffffffffffffffffffffffff1673ffffffffffffffffffffffffffffffffffffffff1681526020019081526020015f205f82825461138c9190614a09565b92505081905550600b5f8281526020019081526020015f2084908060018154018082558091505060019003905f5260205f20015f9091909190916101000a81548173ffffffffffffffffffffffffffffffffffffffff021916908373ffffffffffffffffffffffffffffffffffffffff16021790555061140c33826132b4565b5f8473ffffffffffffffffffffffffffffffffffffffff166323b872dd3330876040518463ffffffff1660e01b815260040161144a939291906153ca565b6020604051808303815f875af1158015611466573d5f5f3e3d5ffd5b505050506040513d601f19601f8201168201806040525081019061148a9190615413565b9050806114c3576040517f2ae1638500000000000000000000000000000000000000000000000000000000815260040160405180910390fd5b50506114cd6109d0565b505050565b803373ffffffffffffffffffffffffffffffffffffffff166114f382611a8f565b73ffffffffffffffffffffffffffffffffffffffff1614611540576040517f82e5b88300000000000000000000000000000000000000000000000000000000815260040160405180910390fd5b81600e5f8281526020019081526020015f205f9054906101000a900460ff1615611596576040517fe33c265000000000000000000000000000000000000000000000000000000000815260040160405180910390fd5b345f81036115d0576040517f365d2eeb00000000000000000000000000000000000000000000000000000000815260040160405180910390fd5b6115d861096d565b5f600d5f8681526020019081526020015f205f5f73ffffffffffffffffffffffffffffffffffffffff1673ffffffffffffffffffffffffffffffffffffffff1681526020019081526020015f20540361169b57600b5f8581526020019081526020015f205f908060018154018082558091505060019003905f5260205f20015f9091909190916101000a81548173ffffffffffffffffffffffffffffffffffffffff021916908373ffffffffffffffffffffffffffffffffffffffff1602179055505b34600d5f8681526020019081526020015f205f5f73ffffffffffffffffffffffffffffffffffffffff1673ffffffffffffffffffffffffffffffffffffffff1681526020019081526020015f205f8282546116f69190614a09565b92505081905550833373ffffffffffffffffffffffffffffffffffffffff167f5ff1c2a4e2c2f4fea5d0601c68159c1cc003f2d8f550ed6d1950fec318c438ed346040516117449190614a4b565b60405180910390a36117546109d0565b50505050565b61177483838360405180602001604052805f81525061268b565b505050565b805f73ffffffffffffffffffffffffffffffffffffffff1661179a82611a8f565b73ffffffffffffffffffffffffffffffffffffffff16036117e7576040517fa9d62d2800000000000000000000000000000000000000000000000000000000815260040160405180910390fd5b813373ffffffffffffffffffffffffffffffffffffffff1661180882611a8f565b73ffffffffffffffffffffffffffffffffffffffff161415801561185f57503373ffffffffffffffffffffffffffffffffffffffff16611846611b72565b73ffffffffffffffffffffffffffffffffffffffff1614155b15611896576040517f90b0e2ab00000000000000000000000000000000000000000000000000000000815260040160405180910390fd5b82600e5f8281526020019081526020015f205f9054906101000a900460ff16156118ec576040517fe33c265000000000000000000000000000000000000000000000000000000000815260040160405180910390fd5b6118f461096d565b837fb90306ad06b2a6ff86ddc9327db583062895ef6540e62dc50add009db5b356eb60405160405180910390a261192a846132d9565b611933846134f9565b61193b6109d0565b50505050565b5f600d5f8481526020019081526020015f205f8373ffffffffffffffffffffffffffffffffffffffff1673ffffffffffffffffffffffffffffffffffffffff1681526020019081526020015f2054905092915050565b5f5f6119a28461357b565b90505f5f73ffffffffffffffffffffffffffffffffffffffff168573ffffffffffffffffffffffffffffffffffffffff1614611a4d578473ffffffffffffffffffffffffffffffffffffffff1663313ce5676040518163ffffffff1660e01b8152600401602060405180830381865afa158015611a21573d5f5f3e3d5ffd5b505050506040513d601f19601f82011682018060405250810190611a459190615506565b60ff16611a50565b60125b905080600a611a5f9190615660565b846402540be40084611a7191906156aa565b611a7b91906156aa565b611a859190615718565b9250505092915050565b5f611a9982612fd1565b9050919050565b5f600854905090565b5f5f73ffffffffffffffffffffffffffffffffffffffff168273ffffffffffffffffffffffffffffffffffffffff1603611b1a575f6040517f89c62b64000000000000000000000000000000000000000000000000000000008152600401611b119190614d0d565b60405180910390fd5b60035f8373ffffffffffffffffffffffffffffffffffffffff1673ffffffffffffffffffffffffffffffffffffffff1681526020019081526020015f20549050919050565b611b676136b6565b611b705f61373d565b565b5f60065f9054906101000a900473ffffffffffffffffffffffffffffffffffffffff16905090565b60605f600b5f8481526020019081526020015f20805480602002602001604051908101604052809291908181526020018280548015611c2b57602002820191905f5260205f20905b815f9054906101000a900473ffffffffffffffffffffffffffffffffffffffff1673ffffffffffffffffffffffffffffffffffffffff1681526020019060010190808311611be2575b505050505090505f815167ffffffffffffffff811115611c4e57611c4d614f44565b5b604051908082528060200260200182016040528015611c8157816020015b6060815260200190600190039081611c6c5790505b5090505f5f90505b8251811015611ee4575f838281518110611ca657611ca5615748565b5b602002602001015190505f600d5f8881526020019081526020015f205f8373ffffffffffffffffffffffffffffffffffffffff1673ffffffffffffffffffffffffffffffffffffffff1681526020019081526020015f205490505f73ffffffffffffffffffffffffffffffffffffffff168273ffffffffffffffffffffffffffffffffffffffff1603611d8157600a611d3e82613800565b604051602001611d4f92919061588b565b604051602081830303815290604052848481518110611d7157611d70615748565b5b6020026020010181905250611ed7565b5f8273ffffffffffffffffffffffffffffffffffffffff1663313ce5676040518163ffffffff1660e01b8152600401602060405180830381865afa158015611dcb573d5f5f3e3d5ffd5b505050506040513d601f19601f82011682018060405250810190611def9190615506565b60ff1690508273ffffffffffffffffffffffffffffffffffffffff166395d89b416040518163ffffffff1660e01b81526004015f60405180830381865afa158015611e3c573d5f5f3e3d5ffd5b505050506040513d5f823e3d601f19601f82011682018060405250810190611e649190615957565b611e9782600a611e749190615660565b670de0b6b3a764000085611e8891906156aa565b611e929190615718565b613800565b604051602001611ea892919061599e565b604051602081830303815290604052858581518110611eca57611ec9615748565b5b6020026020010181905250505b8260010192505050611c89565b508092505050919050565b5f600e5f8381526020019081526020015f205f9054906101000a900460ff169050919050565b606060018054611f249061546b565b80601f0160208091040260200160405190810160405280929190818152602001828054611f509061546b565b8015611f9b5780601f10611f7257610100808354040283529160200191611f9b565b820191905f5260205f20905b815481529060010190602001808311611f7e57829003601f168201915b5050505050905090565b611fad61096d565b8051825114611fe8576040517fec791e3800000000000000000000000000000000000000000000000000000000815260040160405180910390fd5b5f82511480611ff757505f8151145b1561202e576040517f365d2eeb00000000000000000000000000000000000000000000000000000000815260040160405180910390fd5b5f60085490505f34111561215d57803373ffffffffffffffffffffffffffffffffffffffff167f5ff1c2a4e2c2f4fea5d0601c68159c1cc003f2d8f550ed6d1950fec318c438ed346040516120839190614a4b565b60405180910390a334600d5f8381526020019081526020015f205f5f73ffffffffffffffffffffffffffffffffffffffff1673ffffffffffffffffffffffffffffffffffffffff1681526020019081526020015f205f8282546120e69190614a09565b92505081905550600b5f8281526020019081526020015f205f908060018154018082558091505060019003905f5260205f20015f9091909190916101000a81548173ffffffffffffffffffffffffffffffffffffffff021916908373ffffffffffffffffffffffffffffffffffffffff1602179055505b61216733826132b4565b5f835190505f5b81811015612479575f84828151811061218a57612189615748565b5b6020026020010151036121c9576040517f365d2eeb00000000000000000000000000000000000000000000000000000000815260040160405180910390fd5b8481815181106121dc576121db615748565b5b602002602001015173ffffffffffffffffffffffffffffffffffffffff16833373ffffffffffffffffffffffffffffffffffffffff167fb62f08cb3803756e5db42279c4e516b0414ee9257afce24cfe568383e23b4e5287858151811061224657612245615748565b5b602002602001015160405161225b9190614a4b565b60405180910390a483818151811061227657612275615748565b5b6020026020010151600d5f8581526020019081526020015f205f8784815181106122a3576122a2615748565b5b602002602001015173ffffffffffffffffffffffffffffffffffffffff1673ffffffffffffffffffffffffffffffffffffffff1681526020019081526020015f205f8282546122f29190614a09565b92505081905550600b5f8481526020019081526020015f2085828151811061231d5761231c615748565b5b6020026020010151908060018154018082558091505060019003905f5260205f20015f9091909190916101000a81548173ffffffffffffffffffffffffffffffffffffffff021916908373ffffffffffffffffffffffffffffffffffffffff1602179055505f85828151811061239657612395615748565b5b602002602001015173ffffffffffffffffffffffffffffffffffffffff166323b872dd33308886815181106123ce576123cd615748565b5b60200260200101516040518463ffffffff1660e01b81526004016123f4939291906153ca565b6020604051808303815f875af1158015612410573d5f5f3e3d5ffd5b505050506040513d601f19601f820116820180604052508101906124349190615413565b90508061246d576040517f2ae1638500000000000000000000000000000000000000000000000000000000815260040160405180910390fd5b8160010191505061216e565b5050506124846109d0565b5050565b61249a612493613090565b83836138ca565b5050565b5f600e5f8381526020019081526020015f205f9054906101000a900460ff166124f3576040517f0ab36bca00000000000000000000000000000000000000000000000000000000815260040160405180910390fd5b600f5f8381526020019081526020015f20549050919050565b5f825f73ffffffffffffffffffffffffffffffffffffffff1661252e82611a8f565b73ffffffffffffffffffffffffffffffffffffffff160361257b576040517fa9d62d2800000000000000000000000000000000000000000000000000000000815260040160405180910390fd5b3373ffffffffffffffffffffffffffffffffffffffff1661259a611b72565b73ffffffffffffffffffffffffffffffffffffffff16146125e7576040517f726a4f0300000000000000000000000000000000000000000000000000000000815260040160405180910390fd5b83600e5f8281526020019081526020015f205f9054906101000a900460ff1661263c576040517f0ab36bca00000000000000000000000000000000000000000000000000000000815260040160405180910390fd5b61264461096d565b600e5f8681526020019081526020015f205f6101000a81549060ff021916905561267761267086611a8f565b8587613a33565b600192506126836109d0565b505092915050565b6126968484846110c3565b6126aa6126a1613090565b85858585613b9b565b50505050565b60605f600b5f8481526020019081526020015f2080548060200260200160405190810160405280929190818152602001828054801561274157602002820191905f5260205f20905b815f9054906101000a900473ffffffffffffffffffffffffffffffffffffffff1673ffffffffffffffffffffffffffffffffffffffff16815260200190600101908083116126f8575b505050505090505f815190505f60605f61275a87613800565b90505f5b848110156129b4575f86828151811061277a57612779615748565b5b602002602001015190505f600d5f8b81526020019081526020015f205f8373ffffffffffffffffffffffffffffffffffffffff1673ffffffffffffffffffffffffffffffffffffffff1681526020019081526020015f205490505f6127df8383611997565b905080876127ed9190614a09565b96505f5f73ffffffffffffffffffffffffffffffffffffffff168473ffffffffffffffffffffffffffffffffffffffff1614612898578373ffffffffffffffffffffffffffffffffffffffff166395d89b416040518163ffffffff1660e01b81526004015f60405180830381865afa15801561286b573d5f5f3e3d5ffd5b505050506040513d5f823e3d601f19601f820116820180604052508101906128939190615957565b612922565b600a80546128a59061546b565b80601f01602080910402602001604051908101604052809291908181526020018280546128d19061546b565b801561291c5780601f106128f35761010080835404028352916020019161291c565b820191905f5260205f20905b8154815290600101906020018083116128ff57829003601f168201915b50505050505b9050865f86116129405760405180602001604052805f815250612977565b6040518060400160405280600181526020017f2c000000000000000000000000000000000000000000000000000000000000008152505b8261298186613800565b6040516020016129949493929190615aee565b60405160208183030381529060405296508460010194505050505061275e565b50670de0b6b3a7640000836129c99190615718565b92505f6129d584613800565b90506129df613d47565b612a6f836129eb610ed5565b8585865f8a5111612a0a5760405180602001604052805f815250612a41565b6040518060400160405280600181526020017f2c000000000000000000000000000000000000000000000000000000000000008152505b8a6009604051602001612a5b989796959493929190615dc2565b604051602081830303815290604052613d84565b604051602001612a80929190615e96565b6040516020818303038152906040529650505050505050919050565b3373ffffffffffffffffffffffffffffffffffffffff16612abb611b72565b73ffffffffffffffffffffffffffffffffffffffff1614612b08576040517f726a4f0300000000000000000000000000000000000000000000000000000000815260040160405180910390fd5b81600e5f8281526020019081526020015f205f9054906101000a900460ff1615612b5e576040517fe33c265000000000000000000000000000000000000000000000000000000000815260040160405180910390fd5b6001600e5f8581526020019081526020015f205f6101000a81548160ff02191690831515021790555081600f5f8581526020019081526020015f208190555081837f3491649a16c326ca305ed14319c0106222d41417a0c19ec2ced6ec98e615824960405160405180910390a3505050565b5f60055f8473ffffffffffffffffffffffffffffffffffffffff1673ffffffffffffffffffffffffffffffffffffffff1681526020019081526020015f205f8373ffffffffffffffffffffffffffffffffffffffff1673ffffffffffffffffffffffffffffffffffffffff1681526020019081526020015f205f9054906101000a900460ff16905092915050565b612c666136b6565b5f73ffffffffffffffffffffffffffffffffffffffff168173ffffffffffffffffffffffffffffffffffffffff1603612cd6575f6040517f1e4fbdf7000000000000000000000000000000000000000000000000000000008152600401612ccd9190614d0d565b60405180910390fd5b612cdf8161373d565b50565b5f825f73ffffffffffffffffffffffffffffffffffffffff16612d0482611a8f565b73ffffffffffffffffffffffffffffffffffffffff1603612d51576040517fa9d62d2800000000000000000000000000000000000000000000000000000000815260040160405180910390fd5b3373ffffffffffffffffffffffffffffffffffffffff16612d70611b72565b73ffffffffffffffffffffffffffffffffffffffff1614612dbd576040517f726a4f0300000000000000000000000000000000000000000000000000000000815260040160405180910390fd5b83600e5f8281526020019081526020015f205f9054906101000a900460ff16612e12576040517f0ab36bca00000000000000000000000000000000000000000000000000000000815260040160405180910390fd5b612e1a61096d565b600e5f8681526020019081526020015f205f6101000a81549060ff0219169055847f0d11e56cd3378fbf69207798b35740d49738bfe641fdc8ef9357e37d9ed64d5c60405160405180910390a2612e7a612e7386611a8f565b8587613a33565b612e83856132d9565b612e8c856134f9565b60019250612e986109d0565b505092915050565b5f5f73ffffffffffffffffffffffffffffffffffffffff16612ec183611a8f565b73ffffffffffffffffffffffffffffffffffffffff1603612f0e576040517fa9d62d2800000000000000000000000000000000000000000000000000000000815260040160405180910390fd5b5f612f1883613db1565b9050670de0b6b3a76400006305f5e10082612f3391906156aa565b612f3d9190615718565b915050919050565b612f4f8383613f0b565b612f63612f5a613090565b5f858585613b9b565b505050565b5f7f01ffc9a7000000000000000000000000000000000000000000000000000000007bffffffffffffffffffffffffffffffffffffffffffffffffffffffff1916827bffffffffffffffffffffffffffffffffffffffffffffffffffffffff1916149050919050565b5f5f612fdc83613ffe565b90505f73ffffffffffffffffffffffffffffffffffffffff168173ffffffffffffffffffffffffffffffffffffffff160361304e57826040517f7e2732890000000000000000000000000000000000000000000000000000000081526004016130459190614a4b565b60405180910390fd5b80915050919050565b5f60045f8381526020019081526020015f205f9054906101000a900473ffffffffffffffffffffffffffffffffffffffff169050919050565b5f33905090565b6130a48383836001614037565b505050565b5f5f6130b484613ffe565b90505f73ffffffffffffffffffffffffffffffffffffffff168373ffffffffffffffffffffffffffffffffffffffff16146130f5576130f48184866141f6565b5b5f73ffffffffffffffffffffffffffffffffffffffff168173ffffffffffffffffffffffffffffffffffffffff1614613180576131345f855f5f614037565b600160035f8373ffffffffffffffffffffffffffffffffffffffff1673ffffffffffffffffffffffffffffffffffffffff1681526020019081526020015f205f82825403925050819055505b5f73ffffffffffffffffffffffffffffffffffffffff168573ffffffffffffffffffffffffffffffffffffffff16146131ff57600160035f8773ffffffffffffffffffffffffffffffffffffffff1673ffffffffffffffffffffffffffffffffffffffff1681526020019081526020015f205f82825401925050819055505b8460025f8681526020019081526020015f205f6101000a81548173ffffffffffffffffffffffffffffffffffffffff021916908373ffffffffffffffffffffffffffffffffffffffff160217905550838573ffffffffffffffffffffffffffffffffffffffff168273ffffffffffffffffffffffffffffffffffffffff167fddf252ad1be2c89b69c2b068fc378daa952ba7f163c4a11628f55a4df523b3ef60405160405180910390a4809150509392505050565b6132be82826109b3565b60085f8154809291906132d090614a64565b91905055505050565b5f600b5f8381526020019081526020015f2080548060200260200160405190810160405280929190818152602001828054801561336857602002820191905f5260205f20905b815f9054906101000a900473ffffffffffffffffffffffffffffffffffffffff1673ffffffffffffffffffffffffffffffffffffffff168152602001906001019080831161331f575b50505050509050600b5f8381526020019081526020015f205f61338b919061499a565b5f815190505f5b818110156134f3575f73ffffffffffffffffffffffffffffffffffffffff168382815181106133c4576133c3615748565b5b602002602001015173ffffffffffffffffffffffffffffffffffffffff160361345c5761345784600d5f8781526020019081526020015f205f8685815181106134105761340f615748565b5b602002602001015173ffffffffffffffffffffffffffffffffffffffff1673ffffffffffffffffffffffffffffffffffffffff1681526020019081526020015f20546142b9565b6134e8565b6134e78484838151811061347357613472615748565b5b6020026020010151600d5f8881526020019081526020015f205f8786815181106134a05761349f615748565b5b602002602001015173ffffffffffffffffffffffffffffffffffffffff1673ffffffffffffffffffffffffffffffffffffffff1681526020019081526020015f2054614443565b5b806001019050613392565b50505050565b5f6135055f835f6130a9565b90505f73ffffffffffffffffffffffffffffffffffffffff168173ffffffffffffffffffffffffffffffffffffffff160361357757816040517f7e27328900000000000000000000000000000000000000000000000000000000815260040161356e9190614a4b565b60405180910390fd5b5050565b5f5f5f73ffffffffffffffffffffffffffffffffffffffff168373ffffffffffffffffffffffffffffffffffffffff16036135d8577f00000000000000000000000000000000000000000000000000000000000000009050613638565b600c5f8473ffffffffffffffffffffffffffffffffffffffff1673ffffffffffffffffffffffffffffffffffffffff1681526020019081526020015f205f9054906101000a900473ffffffffffffffffffffffffffffffffffffffff1690505b5f8173ffffffffffffffffffffffffffffffffffffffff1663feaf968c6040518163ffffffff1660e01b815260040160a060405180830381865afa158015613682573d5f5f3e3d5ffd5b505050506040513d601f19601f820116820180604052508101906136a69190615f3f565b5050509150508092505050919050565b6136be613090565b73ffffffffffffffffffffffffffffffffffffffff166136dc611b72565b73ffffffffffffffffffffffffffffffffffffffff161461373b576136ff613090565b6040517f118cdaa70000000000000000000000000000000000000000000000000000000081526004016137329190614d0d565b60405180910390fd5b565b5f60065f9054906101000a900473ffffffffffffffffffffffffffffffffffffffff1690508160065f6101000a81548173ffffffffffffffffffffffffffffffffffffffff021916908373ffffffffffffffffffffffffffffffffffffffff1602179055508173ffffffffffffffffffffffffffffffffffffffff168173ffffffffffffffffffffffffffffffffffffffff167f8be0079c531659141344cd1fd0a4f28419497f9722a3daafe3b4186f6b6457e060405160405180910390a35050565b60605f600161380e846145fa565b0190505f8167ffffffffffffffff81111561382c5761382b614f44565b5b6040519080825280601f01601f19166020018201604052801561385e5781602001600182028036833780820191505090505b5090505f82602001820190505b6001156138bf578080600190039150507f3031323334353637383961626364656600000000000000000000000000000000600a86061a8153600a85816138b4576138b36156eb565b5b0494505f850361386b575b819350505050919050565b5f73ffffffffffffffffffffffffffffffffffffffff168273ffffffffffffffffffffffffffffffffffffffff160361393a57816040517f5b08ba180000000000000000000000000000000000000000000000000000000081526004016139319190614d0d565b60405180910390fd5b8060055f8573ffffffffffffffffffffffffffffffffffffffff1673ffffffffffffffffffffffffffffffffffffffff1681526020019081526020015f205f8473ffffffffffffffffffffffffffffffffffffffff1673ffffffffffffffffffffffffffffffffffffffff1681526020019081526020015f205f6101000a81548160ff0219169083151502179055508173ffffffffffffffffffffffffffffffffffffffff168373ffffffffffffffffffffffffffffffffffffffff167f17307eab39ab6107e8899845ad3d59bd9653f200f220920489ca2b5937696c3183604051613a269190614b56565b60405180910390a3505050565b5f73ffffffffffffffffffffffffffffffffffffffff168273ffffffffffffffffffffffffffffffffffffffff1603613aa3575f6040517f64a0ae92000000000000000000000000000000000000000000000000000000008152600401613a9a9190614d0d565b60405180910390fd5b5f613aaf83835f6130a9565b90505f73ffffffffffffffffffffffffffffffffffffffff168173ffffffffffffffffffffffffffffffffffffffff1603613b2157816040517f7e273289000000000000000000000000000000000000000000000000000000008152600401613b189190614a4b565b60405180910390fd5b8373ffffffffffffffffffffffffffffffffffffffff168173ffffffffffffffffffffffffffffffffffffffff1614613b95578382826040517f64283d7b000000000000000000000000000000000000000000000000000000008152600401613b8c9392919061549b565b60405180910390fd5b50505050565b5f8373ffffffffffffffffffffffffffffffffffffffff163b1115613d40578273ffffffffffffffffffffffffffffffffffffffff1663150b7a02868685856040518563ffffffff1660e01b8152600401613bf99493929190615ffe565b6020604051808303815f875af1925050508015613c3457506040513d601f19601f82011682018060405250810190613c31919061605c565b60015b613cb5573d805f8114613c62576040519150601f19603f3d011682016040523d82523d5f602084013e613c67565b606091505b505f815103613cad57836040517f64a0ae92000000000000000000000000000000000000000000000000000000008152600401613ca49190614d0d565b60405180910390fd5b805181602001fd5b63150b7a0260e01b7bffffffffffffffffffffffffffffffffffffffffffffffffffffffff1916817bffffffffffffffffffffffffffffffffffffffffffffffffffffffff191614613d3e57836040517f64a0ae92000000000000000000000000000000000000000000000000000000008152600401613d359190614d0d565b60405180910390fd5b505b5050505050565b60606040518060400160405280601d81526020017f646174613a6170706c69636174696f6e2f6a736f6e3b6261736536342c000000815250905090565b6060613daa826040518060600160405280604081526020016160e660409139600161474b565b9050919050565b5f5f600b5f8481526020019081526020015f20805480602002602001604051908101604052809291908181526020018280548015613e4157602002820191905f5260205f20905b815f9054906101000a900473ffffffffffffffffffffffffffffffffffffffff1673ffffffffffffffffffffffffffffffffffffffff1681526020019060010190808311613df8575b505050505090505f5f90505f825190505f5b81811015613eff57613ee5848281518110613e7157613e70615748565b5b6020026020010151600d5f8981526020019081526020015f205f878581518110613e9e57613e9d615748565b5b602002602001015173ffffffffffffffffffffffffffffffffffffffff1673ffffffffffffffffffffffffffffffffffffffff1681526020019081526020015f2054611997565b83613ef09190614a09565b92508080600101915050613e53565b50819350505050919050565b5f73ffffffffffffffffffffffffffffffffffffffff168273ffffffffffffffffffffffffffffffffffffffff1603613f7b575f6040517f64a0ae92000000000000000000000000000000000000000000000000000000008152600401613f729190614d0d565b60405180910390fd5b5f613f8783835f6130a9565b90505f73ffffffffffffffffffffffffffffffffffffffff168173ffffffffffffffffffffffffffffffffffffffff1614613ff9575f6040517f73c6ac6e000000000000000000000000000000000000000000000000000000008152600401613ff09190614d0d565b60405180910390fd5b505050565b5f60025f8381526020019081526020015f205f9054906101000a900473ffffffffffffffffffffffffffffffffffffffff169050919050565b808061406f57505f73ffffffffffffffffffffffffffffffffffffffff168273ffffffffffffffffffffffffffffffffffffffff1614155b156141a1575f61407e84612fd1565b90505f73ffffffffffffffffffffffffffffffffffffffff168373ffffffffffffffffffffffffffffffffffffffff16141580156140e857508273ffffffffffffffffffffffffffffffffffffffff168173ffffffffffffffffffffffffffffffffffffffff1614155b80156140fb57506140f98184612bd0565b155b1561413d57826040517fa9fbf51f0000000000000000000000000000000000000000000000000000000081526004016141349190614d0d565b60405180910390fd5b811561419f57838573ffffffffffffffffffffffffffffffffffffffff168273ffffffffffffffffffffffffffffffffffffffff167f8c5be1e5ebec7d5bd14f71427d1e84f3dd0314c0f7b2291e5b200ac8c7c3b92560405160405180910390a45b505b8360045f8581526020019081526020015f205f6101000a81548173ffffffffffffffffffffffffffffffffffffffff021916908373ffffffffffffffffffffffffffffffffffffffff16021790555050505050565b6142018383836148da565b6142b4575f73ffffffffffffffffffffffffffffffffffffffff168373ffffffffffffffffffffffffffffffffffffffff160361427557806040517f7e27328900000000000000000000000000000000000000000000000000000000815260040161426c9190614a4b565b60405180910390fd5b81816040517f177e802f0000000000000000000000000000000000000000000000000000000081526004016142ab929190616087565b60405180910390fd5b505050565b5f6142c383611a8f565b9050814710156142ff576040517f6e950c1200000000000000000000000000000000000000000000000000000000815260040160405180910390fd5b5f600d5f8581526020019081526020015f205f5f73ffffffffffffffffffffffffffffffffffffffff1673ffffffffffffffffffffffffffffffffffffffff1681526020019081526020015f20819055508073ffffffffffffffffffffffffffffffffffffffff167fb324a903f71474419dc3b14914940179d7f8713766efe895419449a40f1e3aa9836040516143969190614a4b565b60405180910390a25f8173ffffffffffffffffffffffffffffffffffffffff16836040516143c3906160d1565b5f6040518083038185875af1925050503d805f81146143fd576040519150601f19603f3d011682016040523d82523d5f602084013e614402565b606091505b505090508061443d576040517f2ae1638500000000000000000000000000000000000000000000000000000000815260040160405180910390fd5b50505050565b805f810361447d576040517f365d2eeb00000000000000000000000000000000000000000000000000000000815260040160405180910390fd5b5f600d5f8681526020019081526020015f205f8573ffffffffffffffffffffffffffffffffffffffff1673ffffffffffffffffffffffffffffffffffffffff1681526020019081526020015f20819055508273ffffffffffffffffffffffffffffffffffffffff166144ee85611a8f565b73ffffffffffffffffffffffffffffffffffffffff167fb60a549f876785734362fc35e9d49d29ab232f8b9dbfc01882fa744b1666fd9b846040516145339190614a4b565b60405180910390a38273ffffffffffffffffffffffffffffffffffffffff1663a9059cbb61456086611a8f565b846040518363ffffffff1660e01b815260040161457e929190616087565b6020604051808303815f875af115801561459a573d5f5f3e3d5ffd5b505050506040513d601f19601f820116820180604052508101906145be9190615413565b6145f4576040517f2ae1638500000000000000000000000000000000000000000000000000000000815260040160405180910390fd5b50505050565b5f5f5f90507a184f03e93ff9f4daa797ed6e38ed64bf6a1f0100000000000000008310614656577a184f03e93ff9f4daa797ed6e38ed64bf6a1f010000000000000000838161464c5761464b6156eb565b5b0492506040810190505b6d04ee2d6d415b85acef81000000008310614693576d04ee2d6d415b85acef81000000008381614689576146886156eb565b5b0492506020810190505b662386f26fc1000083106146c257662386f26fc1000083816146b8576146b76156eb565b5b0492506010810190505b6305f5e10083106146eb576305f5e10083816146e1576146e06156eb565b5b0492506008810190505b6127108310614710576127108381614706576147056156eb565b5b0492506004810190505b606483106147335760648381614729576147286156eb565b5b0492506002810190505b600a8310614742576001810190505b80915050919050565b60605f84510361476b5760405180602001604052805f81525090506148d3565b5f8261479c57600360028651600461478391906156aa565b61478d9190614a09565b6147979190615718565b6147c3565b6003600286516147ac9190614a09565b6147b69190615718565b60046147c291906156aa565b5b90505f8167ffffffffffffffff8111156147e0576147df614f44565b5b6040519080825280601f01601f1916602001820160405280156148125781602001600182028036833780820191505090505b509050600185016020820187885189016020810180515f82525b82841015614887576003840193508351603f8160121c168701518653600186019550603f81600c1c168701518653600186019550603f8160061c168701518653600186019550603f811687015186536001860195505061482c565b80825289156148c75760038c5106600181146148aa57600281146148bd576148c5565b603d6001870353603d60028703536148c5565b603d60018703535b505b50505050505080925050505b9392505050565b5f5f73ffffffffffffffffffffffffffffffffffffffff168373ffffffffffffffffffffffffffffffffffffffff161415801561499157508273ffffffffffffffffffffffffffffffffffffffff168473ffffffffffffffffffffffffffffffffffffffff16148061495257506149518484612bd0565b5b8061499057508273ffffffffffffffffffffffffffffffffffffffff1661497883613057565b73ffffffffffffffffffffffffffffffffffffffff16145b5b90509392505050565b5080545f8255905f5260205f20908101906149b591906149b8565b50565b5b808211156149cf575f815f9055506001016149b9565b5090565b5f819050919050565b7f4e487b71000000000000000000000000000000000000000000000000000000005f52601160045260245ffd5b5f614a13826149d3565b9150614a1e836149d3565b9250828201905080821115614a3657614a356149dc565b5b92915050565b614a45816149d3565b82525050565b5f602082019050614a5e5f830184614a3c565b92915050565b5f614a6e826149d3565b91507fffffffffffffffffffffffffffffffffffffffffffffffffffffffffffffffff8203614aa057614a9f6149dc565b5b600182019050919050565b5f604051905090565b5f5ffd5b5f5ffd5b5f7fffffffff0000000000000000000000000000000000000000000000000000000082169050919050565b614af081614abc565b8114614afa575f5ffd5b50565b5f81359050614b0b81614ae7565b92915050565b5f60208284031215614b2657614b25614ab4565b5b5f614b3384828501614afd565b91505092915050565b5f8115159050919050565b614b5081614b3c565b82525050565b5f602082019050614b695f830184614b47565b92915050565b5f73ffffffffffffffffffffffffffffffffffffffff82169050919050565b5f614b9882614b6f565b9050919050565b614ba881614b8e565b8114614bb2575f5ffd5b50565b5f81359050614bc381614b9f565b92915050565b614bd2816149d3565b8114614bdc575f5ffd5b50565b5f81359050614bed81614bc9565b92915050565b5f5f5f60608486031215614c0a57614c09614ab4565b5b5f614c1786828701614bb5565b9350506020614c2886828701614bdf565b9250506040614c3986828701614bdf565b9150509250925092565b5f81519050919050565b5f82825260208201905092915050565b8281835e5f83830152505050565b5f601f19601f8301169050919050565b5f614c8582614c43565b614c8f8185614c4d565b9350614c9f818560208601614c5d565b614ca881614c6b565b840191505092915050565b5f6020820190508181035f830152614ccb8184614c7b565b905092915050565b5f60208284031215614ce857614ce7614ab4565b5b5f614cf584828501614bdf565b91505092915050565b614d0781614b8e565b82525050565b5f602082019050614d205f830184614cfe565b92915050565b5f5f60408385031215614d3c57614d3b614ab4565b5b5f614d4985828601614bb5565b9250506020614d5a85828601614bdf565b9150509250929050565b5f5f5f60608486031215614d7b57614d7a614ab4565b5b5f614d8886828701614bb5565b9350506020614d9986828701614bb5565b9250506040614daa86828701614bdf565b9150509250925092565b5f5f60408385031215614dca57614dc9614ab4565b5b5f614dd785828601614bdf565b9250506020614de885828601614bb5565b9150509250929050565b5f60208284031215614e0757614e06614ab4565b5b5f614e1484828501614bb5565b91505092915050565b5f81519050919050565b5f82825260208201905092915050565b5f819050602082019050919050565b5f82825260208201905092915050565b5f614e6082614c43565b614e6a8185614e46565b9350614e7a818560208601614c5d565b614e8381614c6b565b840191505092915050565b5f614e998383614e56565b905092915050565b5f602082019050919050565b5f614eb782614e1d565b614ec18185614e27565b935083602082028501614ed385614e37565b805f5b85811015614f0e5784840389528151614eef8582614e8e565b9450614efa83614ea1565b925060208a01995050600181019050614ed6565b50829750879550505050505092915050565b5f6020820190508181035f830152614f388184614ead565b905092915050565b5f5ffd5b7f4e487b71000000000000000000000000000000000000000000000000000000005f52604160045260245ffd5b614f7a82614c6b565b810181811067ffffffffffffffff82111715614f9957614f98614f44565b5b80604052505050565b5f614fab614aab565b9050614fb78282614f71565b919050565b5f67ffffffffffffffff821115614fd657614fd5614f44565b5b602082029050602081019050919050565b5f5ffd5b5f614ffd614ff884614fbc565b614fa2565b905080838252602082019050602084028301858111156150205761501f614fe7565b5b835b8181101561504957806150358882614bb5565b845260208401935050602081019050615022565b5050509392505050565b5f82601f83011261506757615066614f40565b5b8135615077848260208601614feb565b91505092915050565b5f67ffffffffffffffff82111561509a57615099614f44565b5b602082029050602081019050919050565b5f6150bd6150b884615080565b614fa2565b905080838252602082019050602084028301858111156150e0576150df614fe7565b5b835b8181101561510957806150f58882614bdf565b8452602084019350506020810190506150e2565b5050509392505050565b5f82601f83011261512757615126614f40565b5b81356151378482602086016150ab565b91505092915050565b5f5f6040838503121561515657615155614ab4565b5b5f83013567ffffffffffffffff81111561517357615172614ab8565b5b61517f85828601615053565b925050602083013567ffffffffffffffff8111156151a05761519f614ab8565b5b6151ac85828601615113565b9150509250929050565b6151bf81614b3c565b81146151c9575f5ffd5b50565b5f813590506151da816151b6565b92915050565b5f5f604083850312156151f6576151f5614ab4565b5b5f61520385828601614bb5565b9250506020615214858286016151cc565b9150509250929050565b5f5ffd5b5f67ffffffffffffffff82111561523c5761523b614f44565b5b61524582614c6b565b9050602081019050919050565b828183375f83830152505050565b5f61527261526d84615222565b614fa2565b90508281526020810184848401111561528e5761528d61521e565b5b615299848285615252565b509392505050565b5f82601f8301126152b5576152b4614f40565b5b81356152c5848260208601615260565b91505092915050565b5f5f5f5f608085870312156152e6576152e5614ab4565b5b5f6152f387828801614bb5565b945050602061530487828801614bb5565b935050604061531587828801614bdf565b925050606085013567ffffffffffffffff81111561533657615335614ab8565b5b615342878288016152a1565b91505092959194509250565b5f5f6040838503121561536457615363614ab4565b5b5f61537185828601614bdf565b925050602061538285828601614bdf565b9150509250929050565b5f5f604083850312156153a2576153a1614ab4565b5b5f6153af85828601614bb5565b92505060206153c085828601614bb5565b9150509250929050565b5f6060820190506153dd5f830186614cfe565b6153ea6020830185614cfe565b6153f76040830184614a3c565b949350505050565b5f8151905061540d816151b6565b92915050565b5f6020828403121561542857615427614ab4565b5b5f615435848285016153ff565b91505092915050565b7f4e487b71000000000000000000000000000000000000000000000000000000005f52602260045260245ffd5b5f600282049050600182168061548257607f821691505b6020821081036154955761549461543e565b5b50919050565b5f6060820190506154ae5f830186614cfe565b6154bb6020830185614a3c565b6154c86040830184614cfe565b949350505050565b5f60ff82169050919050565b6154e5816154d0565b81146154ef575f5ffd5b50565b5f81519050615500816154dc565b92915050565b5f6020828403121561551b5761551a614ab4565b5b5f615528848285016154f2565b91505092915050565b5f8160011c9050919050565b5f5f8291508390505b600185111561558657808604811115615562576155616149dc565b5b60018516156155715780820291505b808102905061557f85615531565b9450615546565b94509492505050565b5f8261559e5760019050615659565b816155ab575f9050615659565b81600181146155c157600281146155cb576155fa565b6001915050615659565b60ff8411156155dd576155dc6149dc565b5b8360020a9150848211156155f4576155f36149dc565b5b50615659565b5060208310610133831016604e8410600b841016171561562f5782820a90508381111561562a576156296149dc565b5b615659565b61563c848484600161553d565b92509050818404811115615653576156526149dc565b5b81810290505b9392505050565b5f61566a826149d3565b9150615675836149d3565b92506156a27fffffffffffffffffffffffffffffffffffffffffffffffffffffffffffffffff848461558f565b905092915050565b5f6156b4826149d3565b91506156bf836149d3565b92508282026156cd816149d3565b915082820484148315176156e4576156e36149dc565b5b5092915050565b7f4e487b71000000000000000000000000000000000000000000000000000000005f52601260045260245ffd5b5f615722826149d3565b915061572d836149d3565b92508261573d5761573c6156eb565b5b828204905092915050565b7f4e487b71000000000000000000000000000000000000000000000000000000005f52603260045260245ffd5b5f81905092915050565b5f819050815f5260205f209050919050565b5f815461579d8161546b565b6157a78186615775565b9450600182165f81146157c157600181146157d657615808565b60ff1983168652811515820286019350615808565b6157df8561577f565b5f5b83811015615800578154818901526001820191506020810190506157e1565b838801955050505b50505092915050565b7f20000000000000000000000000000000000000000000000000000000000000005f82015250565b5f615845600183615775565b915061585082615811565b600182019050919050565b5f61586582614c43565b61586f8185615775565b935061587f818560208601614c5d565b80840191505092915050565b5f6158968285615791565b91506158a182615839565b91506158ad828461585b565b91508190509392505050565b5f67ffffffffffffffff8211156158d3576158d2614f44565b5b6158dc82614c6b565b9050602081019050919050565b5f6158fb6158f6846158b9565b614fa2565b9050828152602081018484840111156159175761591661521e565b5b615922848285614c5d565b509392505050565b5f82601f83011261593e5761593d614f40565b5b815161594e8482602086016158e9565b91505092915050565b5f6020828403121561596c5761596b614ab4565b5b5f82015167ffffffffffffffff81111561598957615988614ab8565b5b6159958482850161592a565b91505092915050565b5f6159a9828561585b565b91506159b482615839565b91506159c0828461585b565b91508190509392505050565b5f81519050919050565b5f81905092915050565b5f6159ea826159cc565b6159f481856159d6565b9350615a04818560208601614c5d565b80840191505092915050565b7f7b2274726169745f74797065223a2200000000000000000000000000000000005f82015250565b5f615a44600f83615775565b9150615a4f82615a10565b600f82019050919050565b7f222c2276616c7565223a220000000000000000000000000000000000000000005f82015250565b5f615a8e600b83615775565b9150615a9982615a5a565b600b82019050919050565b7f227d0000000000000000000000000000000000000000000000000000000000005f82015250565b5f615ad8600283615775565b9150615ae382615aa4565b600282019050919050565b5f615af982876159e0565b9150615b0582866159e0565b9150615b1082615a38565b9150615b1c82856159e0565b9150615b2782615a82565b9150615b33828461585b565b9150615b3e82615acc565b915081905095945050505050565b7f7b22746f6b656e4964223a2200000000000000000000000000000000000000005f82015250565b5f615b80600c83615775565b9150615b8b82615b4c565b600c82019050919050565b7f222c226e616d65223a22000000000000000000000000000000000000000000005f82015250565b5f615bca600a83615775565b9150615bd582615b96565b600a82019050919050565b7f20230000000000000000000000000000000000000000000000000000000000005f82015250565b5f615c14600283615775565b9150615c1f82615be0565b600282019050919050565b7f20240000000000000000000000000000000000000000000000000000000000005f82015250565b5f615c5e600283615775565b9150615c6982615c2a565b600282019050919050565b7f222c226465736372697074696f6e223a22446563656e7472616c697a656420435f8201527f7570206f6620617373657473222c2261747472696275746573223a5b00000000602082015250565b5f615cce603c83615775565b9150615cd982615c74565b603c82019050919050565b7f7b2274726169745f74797065223a2254434c222c2276616c7565223a220000005f82015250565b5f615d18601d83615775565b9150615d2382615ce4565b601d82019050919050565b7f20555344227d00000000000000000000000000000000000000000000000000005f82015250565b5f615d62600683615775565b9150615d6d82615d2e565b600682019050919050565b7f5d2c22696d616765223a220000000000000000000000000000000000000000005f82015250565b5f615dac600b83615775565b9150615db782615d78565b600b82019050919050565b5f615dcc82615b74565b9150615dd8828b6159e0565b9150615de382615bbe565b9150615def828a61585b565b9150615dfa82615c08565b9150615e0682896159e0565b9150615e1182615c52565b9150615e1d82886159e0565b9150615e2882615cc2565b9150615e3382615d0c565b9150615e3f82876159e0565b9150615e4a82615d56565b9150615e56828661585b565b9150615e6282856159e0565b9150615e6d82615da0565b9150615e798284615791565b9150615e8482615acc565b91508190509998505050505050505050565b5f615ea1828561585b565b9150615ead828461585b565b91508190509392505050565b5f69ffffffffffffffffffff82169050919050565b615ed781615eb9565b8114615ee1575f5ffd5b50565b5f81519050615ef281615ece565b92915050565b5f819050919050565b615f0a81615ef8565b8114615f14575f5ffd5b50565b5f81519050615f2581615f01565b92915050565b5f81519050615f3981614bc9565b92915050565b5f5f5f5f5f60a08688031215615f5857615f57614ab4565b5b5f615f6588828901615ee4565b9550506020615f7688828901615f17565b9450506040615f8788828901615f2b565b9350506060615f9888828901615f2b565b9250506080615fa988828901615ee4565b9150509295509295909350565b5f82825260208201905092915050565b5f615fd0826159cc565b615fda8185615fb6565b9350615fea818560208601614c5d565b615ff381614c6b565b840191505092915050565b5f6080820190506160115f830187614cfe565b61601e6020830186614cfe565b61602b6040830185614a3c565b818103606083015261603d8184615fc6565b905095945050505050565b5f8151905061605681614ae7565b92915050565b5f6020828403121561607157616070614ab4565b5b5f61607e84828501616048565b91505092915050565b5f60408201905061609a5f830185614cfe565b6160a76020830184614a3c565b9392505050565b50565b5f6160bc5f836159d6565b91506160c7826160ae565b5f82019050919050565b5f6160db826160b1565b915081905091905056fe4142434445464748494a4b4c4d4e4f505152535455565758595a6162636465666768696a6b6c6d6e6f707172737475767778797a303132333435363738392b2fa2646970667358221220fee0be66d243e5c144c6373a3780082c675aa464ef49a4268967d28f07aa458564736f6c634300081d0033","linkReferences":{}},"methodIdentifiers":{"addNativeCollateralToExistingCup(uint256)":"427a7540","addTokenCollateralToExistingCup(address,uint256,uint256)":"034f7673","approve(address,uint256)":"095ea7b3","balanceOf(address)":"70a08231","burn(uint256)":"42966c68","depositMultipleAssetsAndMint(address[],uint256[])":"9ec99494","depositSingleAssetAndMint(address,uint256)":"3e9bee72","getApproved(uint256)":"081812fc","getAssetValueInUsd(address,uint256)":"5637c1aa","getAssetsInfo(uint256)":"900472e5","getCollateralBalance(uint256,address)":"4e300684","getIsListedForSale(uint256)":"91041959","getIsListedForSaleOnChain(uint256)":"aacc92a4","getTokenCounter()":"6e02007d","getTokenPriceInUsd(uint256)":"fdcd8d3a","isApprovedForAll(address,address)":"e985e9c5","listForSale(uint256,uint256)":"e80d7fec","name()":"06fdde03","owner()":"8da5cb5b","ownerOf(uint256)":"6352211e","removeFromSale(uint256)":"1361a3b6","renounceOwnership()":"715018a6","safeTransferFrom(address,address,uint256)":"42842e0e","safeTransferFrom(address,address,uint256,bytes)":"b88d4fde","setApprovalForAll(address,bool)":"a22cb465","supportsInterface(bytes4)":"01ffc9a7","symbol()":"95d89b41","tokenURI(uint256)":"c87b56dd","transfer(uint256,address)":"b7760c8f","transferAndBurn(uint256,address)":"fcb75eae","transferFrom(address,address,uint256)":"23b872dd","transferOwnership(address)":"f2fde38b"},"id":65}