{"abi":[{"type":"constructor","inputs":[{"name":"_baseSvgImageUri","type":"string","internalType":"string"},{"name":"_tokenAddresses","type":"address[]","internalType":"address[]"},{"name":"_priceFeedAddresses","type":"address[]","internalType":"address[]"},{"name":"_defaultPriceFeed","type":"address","internalType":"address"},{"name":"_defaultSymbol","type":"string","internalType":"string"}],"stateMutability":"nonpayable"},{"type":"receive","stateMutability":"payable"},{"type":"function","name":"addNativeCollateralToExistingCup","inputs":[{"name":"tokenId","type":"uint256","internalType":"uint256"}],"outputs":[],"stateMutability":"payable"},{"type":"function","name":"addTokenCollateralToExistingCup","inputs":[{"name":"tokenAddress","type":"address","internalType":"address"},{"name":"amount","type":"uint256","internalType":"uint256"},{"name":"tokenId","type":"uint256","internalType":"uint256"}],"outputs":[],"stateMutability":"nonpayable"},{"type":"function","name":"approve","inputs":[{"name":"to","type":"address","internalType":"address"},{"name":"tokenId","type":"uint256","internalType":"uint256"}],"outputs":[],"stateMutability":"nonpayable"},{"type":"function","name":"balanceOf","inputs":[{"name":"owner","type":"address","internalType":"address"}],"outputs":[{"name":"","type":"uint256","internalType":"uint256"}],"stateMutability":"view"},{"type":"function","name":"burn","inputs":[{"name":"tokenId","type":"uint256","internalType":"uint256"}],"outputs":[],"stateMutability":"nonpayable"},{"type":"function","name":"depositMultipleAssetsAndMint","inputs":[{"name":"tokenAddresses","type":"address[]","internalType":"address[]"},{"name":"amounts","type":"uint256[]","internalType":"uint256[]"}],"outputs":[],"stateMutability":"payable"},{"type":"function","name":"depositSingleAssetAndMint","inputs":[{"name":"tokenAddress","type":"address","internalType":"address"},{"name":"amount","type":"uint256","internalType":"uint256"}],"outputs":[],"stateMutability":"payable"},{"type":"function","name":"getApproved","inputs":[{"name":"tokenId","type":"uint256","internalType":"uint256"}],"outputs":[{"name":"","type":"address","internalType":"address"}],"stateMutability":"view"},{"type":"function","name":"getAssetValueInUsd","inputs":[{"name":"tokenAddress","type":"address","internalType":"address"},{"name":"amount","type":"uint256","internalType":"uint256"}],"outputs":[{"name":"","type":"uint256","internalType":"uint256"}],"stateMutability":"view"},{"type":"function","name":"getAssetsInfo","inputs":[{"name":"tokenId","type":"uint256","internalType":"uint256"}],"outputs":[{"name":"","type":"string[]","internalType":"string[]"}],"stateMutability":"view"},{"type":"function","name":"getCollateralBalance","inputs":[{"name":"tokenId","type":"uint256","internalType":"uint256"},{"name":"tokenAddress","type":"address","internalType":"address"}],"outputs":[{"name":"","type":"uint256","internalType":"uint256"}],"stateMutability":"view"},{"type":"function","name":"getIsListedForSale","inputs":[{"name":"tokenId","type":"uint256","internalType":"uint256"}],"outputs":[{"name":"","type":"bool","internalType":"bool"}],"stateMutability":"view"},{"type":"function","name":"getTokenCounter","inputs":[],"outputs":[{"name":"","type":"uint256","internalType":"uint256"}],"stateMutability":"view"},{"type":"function","name":"getTokenPriceInUsd","inputs":[{"name":"tokenId","type":"uint256","internalType":"uint256"}],"outputs":[{"name":"","type":"uint256","internalType":"uint256"}],"stateMutability":"view"},{"type":"function","name":"isApprovedForAll","inputs":[{"name":"owner","type":"address","internalType":"address"},{"name":"operator","type":"address","internalType":"address"}],"outputs":[{"name":"","type":"bool","internalType":"bool"}],"stateMutability":"view"},{"type":"function","name":"listForSale","inputs":[{"name":"tokenId","type":"uint256","internalType":"uint256"}],"outputs":[],"stateMutability":"nonpayable"},{"type":"function","name":"name","inputs":[],"outputs":[{"name":"","type":"string","internalType":"string"}],"stateMutability":"view"},{"type":"function","name":"owner","inputs":[],"outputs":[{"name":"","type":"address","internalType":"address"}],"stateMutability":"view"},{"type":"function","name":"ownerOf","inputs":[{"name":"tokenId","type":"uint256","internalType":"uint256"}],"outputs":[{"name":"","type":"address","internalType":"address"}],"stateMutability":"view"},{"type":"function","name":"removeFromSale","inputs":[{"name":"tokenId","type":"uint256","internalType":"uint256"}],"outputs":[],"stateMutability":"nonpayable"},{"type":"function","name":"renounceOwnership","inputs":[],"outputs":[],"stateMutability":"nonpayable"},{"type":"function","name":"safeTransferFrom","inputs":[{"name":"from","type":"address","internalType":"address"},{"name":"to","type":"address","internalType":"address"},{"name":"tokenId","type":"uint256","internalType":"uint256"}],"outputs":[],"stateMutability":"nonpayable"},{"type":"function","name":"safeTransferFrom","inputs":[{"name":"from","type":"address","internalType":"address"},{"name":"to","type":"address","internalType":"address"},{"name":"tokenId","type":"uint256","internalType":"uint256"},{"name":"data","type":"bytes","internalType":"bytes"}],"outputs":[],"stateMutability":"nonpayable"},{"type":"function","name":"setApprovalForAll","inputs":[{"name":"operator","type":"address","internalType":"address"},{"name":"approved","type":"bool","internalType":"bool"}],"outputs":[],"stateMutability":"nonpayable"},{"type":"function","name":"supportsInterface","inputs":[{"name":"interfaceId","type":"bytes4","internalType":"bytes4"}],"outputs":[{"name":"","type":"bool","internalType":"bool"}],"stateMutability":"view"},{"type":"function","name":"symbol","inputs":[],"outputs":[{"name":"","type":"string","internalType":"string"}],"stateMutability":"view"},{"type":"function","name":"tokenURI","inputs":[{"name":"_tokenId","type":"uint256","internalType":"uint256"}],"outputs":[{"name":"","type":"string","internalType":"string"}],"stateMutability":"view"},{"type":"function","name":"transfer","inputs":[{"name":"tokenId","type":"uint256","internalType":"uint256"},{"name":"to","type":"address","internalType":"address"}],"outputs":[{"name":"","type":"bool","internalType":"bool"}],"stateMutability":"nonpayable"},{"type":"function","name":"transferAndBurn","inputs":[{"name":"tokenId","type":"uint256","internalType":"uint256"},{"name":"to","type":"address","internalType":"address"}],"outputs":[{"name":"","type":"bool","internalType":"bool"}],"stateMutability":"nonpayable"},{"type":"function","name":"transferFrom","inputs":[{"name":"from","type":"address","internalType":"address"},{"name":"to","type":"address","internalType":"address"},{"name":"tokenId","type":"uint256","internalType":"uint256"}],"outputs":[],"stateMutability":"nonpayable"},{"type":"function","name":"transferOwnership","inputs":[{"name":"newOwner","type":"address","internalType":"address"}],"outputs":[],"stateMutability":"nonpayable"},{"type":"event","name":"Approval","inputs":[{"name":"owner","type":"address","indexed":true,"internalType":"address"},{"name":"approved","type":"address","indexed":true,"internalType":"address"},{"name":"tokenId","type":"uint256","indexed":true,"internalType":"uint256"}],"anonymous":false},{"type":"event","name":"ApprovalForAll","inputs":[{"name":"owner","type":"address","indexed":true,"internalType":"address"},{"name":"operator","type":"address","indexed":true,"internalType":"address"},{"name":"approved","type":"bool","indexed":false,"internalType":"bool"}],"anonymous":false},{"type":"event","name":"DepositERC20Token","inputs":[{"name":"from","type":"address","indexed":true,"internalType":"address"},{"name":"token","type":"address","indexed":true,"internalType":"address"},{"name":"amount","type":"uint256","indexed":false,"internalType":"uint256"}],"anonymous":false},{"type":"event","name":"DepositNativeCurrency","inputs":[{"name":"from","type":"address","indexed":true,"internalType":"address"},{"name":"amount","type":"uint256","indexed":false,"internalType":"uint256"}],"anonymous":false},{"type":"event","name":"OwnershipTransferred","inputs":[{"name":"previousOwner","type":"address","indexed":true,"internalType":"address"},{"name":"newOwner","type":"address","indexed":true,"internalType":"address"}],"anonymous":false},{"type":"event","name":"TokenListedForSale","inputs":[{"name":"tokenId","type":"uint256","indexed":true,"internalType":"uint256"}],"anonymous":false},{"type":"event","name":"TokenRemovedFromSale","inputs":[{"name":"tokenId","type":"uint256","indexed":true,"internalType":"uint256"}],"anonymous":false},{"type":"event","name":"Transfer","inputs":[{"name":"from","type":"address","indexed":true,"internalType":"address"},{"name":"to","type":"address","indexed":true,"internalType":"address"},{"name":"tokenId","type":"uint256","indexed":true,"internalType":"uint256"}],"anonymous":false},{"type":"event","name":"WithdrawERC20Token","inputs":[{"name":"to","type":"address","indexed":true,"internalType":"address"},{"name":"token","type":"address","indexed":true,"internalType":"address"},{"name":"amount","type":"uint256","indexed":false,"internalType":"uint256"}],"anonymous":false},{"type":"event","name":"WithdrawNativeCurrency","inputs":[{"name":"to","type":"address","indexed":true,"internalType":"address"},{"name":"amount","type":"uint256","indexed":false,"internalType":"uint256"}],"anonymous":false},{"type":"error","name":"DeCup__AllowedTokenAddressesMustNotBeEmpty","inputs":[]},{"type":"error","name":"DeCup__AmountMustBeGreaterThanZero","inputs":[]},{"type":"error","name":"DeCup__InsufficientBalance","inputs":[]},{"type":"error","name":"DeCup__NotAllowedToken","inputs":[]},{"type":"error","name":"DeCup__NotOwner","inputs":[]},{"type":"error","name":"DeCup__NotOwnerOrManager","inputs":[]},{"type":"error","name":"DeCup__NotTokenOwner","inputs":[]},{"type":"error","name":"DeCup__PriceFeedAddressesMustNotBeEmpty","inputs":[]},{"type":"error","name":"DeCup__TokenAddressesAndAmountsMusBeSameLength","inputs":[]},{"type":"error","name":"DeCup__TokenAddressesAndPriceFeedAddressesMusBeSameLength","inputs":[]},{"type":"error","name":"DeCup__TokenDoesNotExist","inputs":[]},{"type":"error","name":"DeCup__TokenIsListedForSale","inputs":[]},{"type":"error","name":"DeCup__TokenIsNotListedForSale","inputs":[]},{"type":"error","name":"DeCup__TransferFailed","inputs":[]},{"type":"error","name":"ERC721IncorrectOwner","inputs":[{"name":"sender","type":"address","internalType":"address"},{"name":"tokenId","type":"uint256","internalType":"uint256"},{"name":"owner","type":"address","internalType":"address"}]},{"type":"error","name":"ERC721InsufficientApproval","inputs":[{"name":"operator","type":"address","internalType":"address"},{"name":"tokenId","type":"uint256","internalType":"uint256"}]},{"type":"error","name":"ERC721InvalidApprover","inputs":[{"name":"approver","type":"address","internalType":"address"}]},{"type":"error","name":"ERC721InvalidOperator","inputs":[{"name":"operator","type":"address","internalType":"address"}]},{"type":"error","name":"ERC721InvalidOwner","inputs":[{"name":"owner","type":"address","internalType":"address"}]},{"type":"error","name":"ERC721InvalidReceiver","inputs":[{"name":"receiver","type":"address","internalType":"address"}]},{"type":"error","name":"ERC721InvalidSender","inputs":[{"name":"sender","type":"address","internalType":"address"}]},{"type":"error","name":"ERC721NonexistentToken","inputs":[{"name":"tokenId","type":"uint256","internalType":"uint256"}]},{"type":"error","name":"OwnableInvalidOwner","inputs":[{"name":"owner","type":"address","internalType":"address"}]},{"type":"error","name":"OwnableUnauthorizedAccount","inputs":[{"name":"account","type":"address","internalType":"address"}]},{"type":"error","name":"ReentrancyGuardReentrantCall","inputs":[]}],"bytecode":{"object":"0x60a060405234801561000f575f5ffd5b50604051616a61380380616a6183398181016040528101906100319190610654565b336040518060400160405280600581526020017f44654375700000000000000000000000000000000000000000000000000000008152506040518060400160405280600381526020017f4443540000000000000000000000000000000000000000000000000000000000815250815f90816100ac919061094b565b5080600190816100bc919061094b565b5050505f73ffffffffffffffffffffffffffffffffffffffff168173ffffffffffffffffffffffffffffffffffffffff160361012f575f6040517f1e4fbdf70000000000000000000000000000000000000000000000000000000081526004016101269190610a29565b60405180910390fd5b61013e8161032660201b60201c565b5060016007819055505f845103610181576040517f058e32ea00000000000000000000000000000000000000000000000000000000815260040160405180910390fd5b5f8351036101bb576040517f1ebe240500000000000000000000000000000000000000000000000000000000815260040160405180910390fd5b82518451146101f6576040517f48cdfcb100000000000000000000000000000000000000000000000000000000815260040160405180910390fd5b5f5f90505b84518110156102c05783818151811061021757610216610a42565b5b6020026020010151600c5f87848151811061023557610234610a42565b5b602002602001015173ffffffffffffffffffffffffffffffffffffffff1673ffffffffffffffffffffffffffffffffffffffff1681526020019081526020015f205f6101000a81548173ffffffffffffffffffffffffffffffffffffffff021916908373ffffffffffffffffffffffffffffffffffffffff16021790555080806001019150506101fb565b505f60088190555084600990816102d7919061094b565b508173ffffffffffffffffffffffffffffffffffffffff1660808173ffffffffffffffffffffffffffffffffffffffff168152505080600a908161031b919061094b565b505050505050610a6f565b5f60065f9054906101000a900473ffffffffffffffffffffffffffffffffffffffff1690508160065f6101000a81548173ffffffffffffffffffffffffffffffffffffffff021916908373ffffffffffffffffffffffffffffffffffffffff1602179055508173ffffffffffffffffffffffffffffffffffffffff168173ffffffffffffffffffffffffffffffffffffffff167f8be0079c531659141344cd1fd0a4f28419497f9722a3daafe3b4186f6b6457e060405160405180910390a35050565b5f604051905090565b5f5ffd5b5f5ffd5b5f5ffd5b5f5ffd5b5f601f19601f8301169050919050565b7f4e487b71000000000000000000000000000000000000000000000000000000005f52604160045260245ffd5b61044882610402565b810181811067ffffffffffffffff8211171561046757610466610412565b5b80604052505050565b5f6104796103e9565b9050610485828261043f565b919050565b5f67ffffffffffffffff8211156104a4576104a3610412565b5b6104ad82610402565b9050602081019050919050565b8281835e5f83830152505050565b5f6104da6104d58461048a565b610470565b9050828152602081018484840111156104f6576104f56103fe565b5b6105018482856104ba565b509392505050565b5f82601f83011261051d5761051c6103fa565b5b815161052d8482602086016104c8565b91505092915050565b5f67ffffffffffffffff8211156105505761054f610412565b5b602082029050602081019050919050565b5f5ffd5b5f73ffffffffffffffffffffffffffffffffffffffff82169050919050565b5f61058e82610565565b9050919050565b61059e81610584565b81146105a8575f5ffd5b50565b5f815190506105b981610595565b92915050565b5f6105d16105cc84610536565b610470565b905080838252602082019050602084028301858111156105f4576105f3610561565b5b835b8181101561061d578061060988826105ab565b8452602084019350506020810190506105f6565b5050509392505050565b5f82601f83011261063b5761063a6103fa565b5b815161064b8482602086016105bf565b91505092915050565b5f5f5f5f5f60a0868803121561066d5761066c6103f2565b5b5f86015167ffffffffffffffff81111561068a576106896103f6565b5b61069688828901610509565b955050602086015167ffffffffffffffff8111156106b7576106b66103f6565b5b6106c388828901610627565b945050604086015167ffffffffffffffff8111156106e4576106e36103f6565b5b6106f088828901610627565b9350506060610701888289016105ab565b925050608086015167ffffffffffffffff811115610722576107216103f6565b5b61072e88828901610509565b9150509295509295909350565b5f81519050919050565b7f4e487b71000000000000000000000000000000000000000000000000000000005f52602260045260245ffd5b5f600282049050600182168061078957607f821691505b60208210810361079c5761079b610745565b5b50919050565b5f819050815f5260205f209050919050565b5f6020601f8301049050919050565b5f82821b905092915050565b5f600883026107fe7fffffffffffffffffffffffffffffffffffffffffffffffffffffffffffffffff826107c3565b61080886836107c3565b95508019841693508086168417925050509392505050565b5f819050919050565b5f819050919050565b5f61084c61084761084284610820565b610829565b610820565b9050919050565b5f819050919050565b61086583610832565b61087961087182610853565b8484546107cf565b825550505050565b5f5f905090565b610890610881565b61089b81848461085c565b505050565b5b818110156108be576108b35f82610888565b6001810190506108a1565b5050565b601f821115610903576108d4816107a2565b6108dd846107b4565b810160208510156108ec578190505b6109006108f8856107b4565b8301826108a0565b50505b505050565b5f82821c905092915050565b5f6109235f1984600802610908565b1980831691505092915050565b5f61093b8383610914565b9150826002028217905092915050565b6109548261073b565b67ffffffffffffffff81111561096d5761096c610412565b5b6109778254610772565b6109828282856108c2565b5f60209050601f8311600181146109b3575f84156109a1578287015190505b6109ab8582610930565b865550610a12565b601f1984166109c1866107a2565b5f5b828110156109e8578489015182556001820191506020850194506020810190506109c3565b86831015610a055784890151610a01601f891682610914565b8355505b6001600288020188555050505b505050505050565b610a2381610584565b82525050565b5f602082019050610a3c5f830184610a1a565b92915050565b7f4e487b71000000000000000000000000000000000000000000000000000000005f52603260045260245ffd5b608051615fda610a875f395f61346f0152615fda5ff3fe6080604052600436106101db575f3560e01c806370a0823111610101578063b7760c8f11610094578063e985e9c511610063578063e985e9c514610849578063f2fde38b14610885578063fcb75eae146108ad578063fdcd8d3a146108e957610373565b8063b7760c8f14610781578063b88d4fde146107bd578063c7857fb5146107e5578063c87b56dd1461080d57610373565b806391041959116100d057806391041959146106d757806395d89b41146107135780639ec994941461073d578063a22cb4651461075957610373565b806370a082311461061f578063715018a61461065b5780638da5cb5b14610671578063900472e51461069b57610373565b80633e9bee72116101795780634e300684116101485780634e300684146105415780635637c1aa1461057d5780636352211e146105b95780636e02007d146105f557610373565b80633e9bee72146104b9578063427a7540146104d557806342842e0e146104f157806342966c681461051957610373565b8063081812fc116101b5578063081812fc14610405578063095ea7b3146104415780631361a3b61461046957806323b872dd1461049157610373565b806301ffc9a714610377578063034f7673146103b357806306fdde03146103db57610373565b3661037357345f810361021a576040517f365d2eeb00000000000000000000000000000000000000000000000000000000815260040160405180910390fd5b610222610925565b5f600854905034600d5f8381526020019081526020015f205f5f73ffffffffffffffffffffffffffffffffffffffff1673ffffffffffffffffffffffffffffffffffffffff1681526020019081526020015f205f82825461028391906148c6565b92505081905550600b5f8281526020019081526020015f205f908060018154018082558091505060019003905f5260205f20015f9091909190916101000a81548173ffffffffffffffffffffffffffffffffffffffff021916908373ffffffffffffffffffffffffffffffffffffffff1602179055503373ffffffffffffffffffffffffffffffffffffffff167f4f790bdb6f31edb620b5714d64c74d00dcf539e3cfe62079a1923ec68d5448743460405161033f9190614908565b60405180910390a2610351338261096b565b60085f81548092919061036390614921565b919050555050610371610988565b005b5f5ffd5b348015610382575f5ffd5b5061039d600480360381019061039891906149ce565b610992565b6040516103aa9190614a13565b60405180910390f35b3480156103be575f5ffd5b506103d960048036038101906103d49190614ab0565b610a73565b005b3480156103e6575f5ffd5b506103ef610e8c565b6040516103fc9190614b70565b60405180910390f35b348015610410575f5ffd5b5061042b60048036038101906104269190614b90565b610f1b565b6040516104389190614bca565b60405180910390f35b34801561044c575f5ffd5b5061046760048036038101906104629190614be3565b610f36565b005b348015610474575f5ffd5b5061048f600480360381019061048a9190614b90565b610f4c565b005b34801561049c575f5ffd5b506104b760048036038101906104b29190614c21565b611064565b005b6104d360048036038101906104ce9190614be3565b611163565b005b6104ef60048036038101906104ea9190614b90565b611472565b005b3480156104fc575f5ffd5b5061051760048036038101906105129190614c21565b6116f9565b005b348015610524575f5ffd5b5061053f600480360381019061053a9190614b90565b611718565b005b34801561054c575f5ffd5b5061056760048036038101906105629190614c71565b6118b3565b6040516105749190614908565b60405180910390f35b348015610588575f5ffd5b506105a3600480360381019061059e9190614be3565b611909565b6040516105b09190614908565b60405180910390f35b3480156105c4575f5ffd5b506105df60048036038101906105da9190614b90565b611a01565b6040516105ec9190614bca565b60405180910390f35b348015610600575f5ffd5b50610609611a12565b6040516106169190614908565b60405180910390f35b34801561062a575f5ffd5b5061064560048036038101906106409190614caf565b611a1b565b6040516106529190614908565b60405180910390f35b348015610666575f5ffd5b5061066f611ad1565b005b34801561067c575f5ffd5b50610685611ae4565b6040516106929190614bca565b60405180910390f35b3480156106a6575f5ffd5b506106c160048036038101906106bc9190614b90565b611b0c565b6040516106ce9190614ddd565b60405180910390f35b3480156106e2575f5ffd5b506106fd60048036038101906106f89190614b90565b611e61565b60405161070a9190614a13565b60405180910390f35b34801561071e575f5ffd5b50610727611e87565b6040516107349190614b70565b60405180910390f35b61075760048036038101906107529190614ffd565b611f17565b005b348015610764575f5ffd5b5061077f600480360381019061077a919061509d565b6123f8565b005b34801561078c575f5ffd5b506107a760048036038101906107a29190614c71565b61240e565b6040516107b49190614a13565b60405180910390f35b3480156107c8575f5ffd5b506107e360048036038101906107de919061518b565b61258d565b005b3480156107f0575f5ffd5b5061080b60048036038101906108069190614b90565b6125b2565b005b348015610818575f5ffd5b50610833600480360381019061082e9190614b90565b6126ce565b6040516108409190614b70565b60405180910390f35b348015610854575f5ffd5b5061086f600480360381019061086a919061520b565b612aba565b60405161087c9190614a13565b60405180910390f35b348015610890575f5ffd5b506108ab60048036038101906108a69190614caf565b612b48565b005b3480156108b8575f5ffd5b506108d360048036038101906108ce9190614c71565b612bcc565b6040516108e09190614a13565b60405180910390f35b3480156108f4575f5ffd5b5061090f600480360381019061090a9190614b90565b612d5d565b60405161091c9190614908565b60405180910390f35b600260075403610961576040517f3ee5aeb500000000000000000000000000000000000000000000000000000000815260040160405180910390fd5b6002600781905550565b610984828260405180602001604052805f815250612e02565b5050565b6001600781905550565b5f7f80ac58cd000000000000000000000000000000000000000000000000000000007bffffffffffffffffffffffffffffffffffffffffffffffffffffffff1916827bffffffffffffffffffffffffffffffffffffffffffffffffffffffff19161480610a5c57507f5b5e139f000000000000000000000000000000000000000000000000000000007bffffffffffffffffffffffffffffffffffffffffffffffffffffffff1916827bffffffffffffffffffffffffffffffffffffffffffffffffffffffff1916145b80610a6c5750610a6b82612e25565b5b9050919050565b803373ffffffffffffffffffffffffffffffffffffffff16610a9482611a01565b73ffffffffffffffffffffffffffffffffffffffff1614610ae1576040517f82e5b88300000000000000000000000000000000000000000000000000000000815260040160405180910390fd5b81600e5f8281526020019081526020015f205f9054906101000a900460ff1615610b37576040517fe33c265000000000000000000000000000000000000000000000000000000000815260040160405180910390fd5b835f8103610b71576040517f365d2eeb00000000000000000000000000000000000000000000000000000000815260040160405180910390fd5b610b79610925565b5f73ffffffffffffffffffffffffffffffffffffffff16600c5f8873ffffffffffffffffffffffffffffffffffffffff1673ffffffffffffffffffffffffffffffffffffffff1681526020019081526020015f205f9054906101000a900473ffffffffffffffffffffffffffffffffffffffff1673ffffffffffffffffffffffffffffffffffffffff1603610c3a576040517fcab509ef00000000000000000000000000000000000000000000000000000000815260040160405180910390fd5b5f600d5f8681526020019081526020015f205f8873ffffffffffffffffffffffffffffffffffffffff1673ffffffffffffffffffffffffffffffffffffffff1681526020019081526020015f205403610cfd57600b5f8581526020019081526020015f2086908060018154018082558091505060019003905f5260205f20015f9091909190916101000a81548173ffffffffffffffffffffffffffffffffffffffff021916908373ffffffffffffffffffffffffffffffffffffffff1602179055505b84600d5f8681526020019081526020015f205f8873ffffffffffffffffffffffffffffffffffffffff1673ffffffffffffffffffffffffffffffffffffffff1681526020019081526020015f205f828254610d5891906148c6565b925050819055508573ffffffffffffffffffffffffffffffffffffffff163373ffffffffffffffffffffffffffffffffffffffff167f79f92ad20a4e8a08eb150d4d0a5a25cb70fe2270d6498acf6403fb853e6e4ff987604051610dbc9190614908565b60405180910390a35f8673ffffffffffffffffffffffffffffffffffffffff166323b872dd3330896040518463ffffffff1660e01b8152600401610e0293929190615249565b6020604051808303815f875af1158015610e1e573d5f5f3e3d5ffd5b505050506040513d601f19601f82011682018060405250810190610e429190615292565b905080610e7b576040517f2ae1638500000000000000000000000000000000000000000000000000000000815260040160405180910390fd5b50610e84610988565b505050505050565b60605f8054610e9a906152ea565b80601f0160208091040260200160405190810160405280929190818152602001828054610ec6906152ea565b8015610f115780601f10610ee857610100808354040283529160200191610f11565b820191905f5260205f20905b815481529060010190602001808311610ef457829003601f168201915b5050505050905090565b5f610f2582612e8e565b50610f2f82612f14565b9050919050565b610f488282610f43612f4d565b612f54565b5050565b3373ffffffffffffffffffffffffffffffffffffffff16610f6b611ae4565b73ffffffffffffffffffffffffffffffffffffffff1614610fb8576040517f726a4f0300000000000000000000000000000000000000000000000000000000815260040160405180910390fd5b600e5f8281526020019081526020015f205f9054906101000a900460ff1661100c576040517f0ab36bca00000000000000000000000000000000000000000000000000000000815260040160405180910390fd5b5f600e5f8381526020019081526020015f205f6101000a81548160ff021916908315150217905550807fccd0b7af52bf5f08ec6781299e66283301e612d1ca1ffceab3579a6364073c3060405160405180910390a250565b5f73ffffffffffffffffffffffffffffffffffffffff168273ffffffffffffffffffffffffffffffffffffffff16036110d4575f6040517f64a0ae920000000000000000000000000000000000000000000000000000000081526004016110cb9190614bca565b60405180910390fd5b5f6110e783836110e2612f4d565b612f66565b90508373ffffffffffffffffffffffffffffffffffffffff168173ffffffffffffffffffffffffffffffffffffffff161461115d578382826040517f64283d7b0000000000000000000000000000000000000000000000000000000081526004016111549392919061531a565b60405180910390fd5b50505050565b805f810361119d576040517f365d2eeb00000000000000000000000000000000000000000000000000000000815260040160405180910390fd5b6111a5610925565b5f73ffffffffffffffffffffffffffffffffffffffff16600c5f8573ffffffffffffffffffffffffffffffffffffffff1673ffffffffffffffffffffffffffffffffffffffff1681526020019081526020015f205f9054906101000a900473ffffffffffffffffffffffffffffffffffffffff1673ffffffffffffffffffffffffffffffffffffffff1603611266576040517fcab509ef00000000000000000000000000000000000000000000000000000000815260040160405180910390fd5b5f60085490508373ffffffffffffffffffffffffffffffffffffffff163373ffffffffffffffffffffffffffffffffffffffff167f79f92ad20a4e8a08eb150d4d0a5a25cb70fe2270d6498acf6403fb853e6e4ff9856040516112c99190614908565b60405180910390a382600d5f8381526020019081526020015f205f8673ffffffffffffffffffffffffffffffffffffffff1673ffffffffffffffffffffffffffffffffffffffff1681526020019081526020015f205f82825461132c91906148c6565b92505081905550600b5f8281526020019081526020015f2084908060018154018082558091505060019003905f5260205f20015f9091909190916101000a81548173ffffffffffffffffffffffffffffffffffffffff021916908373ffffffffffffffffffffffffffffffffffffffff1602179055506113ac3382613171565b5f8473ffffffffffffffffffffffffffffffffffffffff166323b872dd3330876040518463ffffffff1660e01b81526004016113ea93929190615249565b6020604051808303815f875af1158015611406573d5f5f3e3d5ffd5b505050506040513d601f19601f8201168201806040525081019061142a9190615292565b905080611463576040517f2ae1638500000000000000000000000000000000000000000000000000000000815260040160405180910390fd5b505061146d610988565b505050565b803373ffffffffffffffffffffffffffffffffffffffff1661149382611a01565b73ffffffffffffffffffffffffffffffffffffffff16146114e0576040517f82e5b88300000000000000000000000000000000000000000000000000000000815260040160405180910390fd5b81600e5f8281526020019081526020015f205f9054906101000a900460ff1615611536576040517fe33c265000000000000000000000000000000000000000000000000000000000815260040160405180910390fd5b345f8103611570576040517f365d2eeb00000000000000000000000000000000000000000000000000000000815260040160405180910390fd5b611578610925565b5f600d5f8681526020019081526020015f205f5f73ffffffffffffffffffffffffffffffffffffffff1673ffffffffffffffffffffffffffffffffffffffff1681526020019081526020015f20540361163b57600b5f8581526020019081526020015f205f908060018154018082558091505060019003905f5260205f20015f9091909190916101000a81548173ffffffffffffffffffffffffffffffffffffffff021916908373ffffffffffffffffffffffffffffffffffffffff1602179055505b34600d5f8681526020019081526020015f205f5f73ffffffffffffffffffffffffffffffffffffffff1673ffffffffffffffffffffffffffffffffffffffff1681526020019081526020015f205f82825461169691906148c6565b925050819055503373ffffffffffffffffffffffffffffffffffffffff167f4f790bdb6f31edb620b5714d64c74d00dcf539e3cfe62079a1923ec68d544874346040516116e39190614908565b60405180910390a26116f3610988565b50505050565b61171383838360405180602001604052805f81525061258d565b505050565b805f73ffffffffffffffffffffffffffffffffffffffff1661173982611a01565b73ffffffffffffffffffffffffffffffffffffffff1603611786576040517fa9d62d2800000000000000000000000000000000000000000000000000000000815260040160405180910390fd5b813373ffffffffffffffffffffffffffffffffffffffff166117a782611a01565b73ffffffffffffffffffffffffffffffffffffffff16141580156117fe57503373ffffffffffffffffffffffffffffffffffffffff166117e5611ae4565b73ffffffffffffffffffffffffffffffffffffffff1614155b15611835576040517f90b0e2ab00000000000000000000000000000000000000000000000000000000815260040160405180910390fd5b82600e5f8281526020019081526020015f205f9054906101000a900460ff161561188b576040517fe33c265000000000000000000000000000000000000000000000000000000000815260040160405180910390fd5b611893610925565b61189c84613196565b6118a5846133b6565b6118ad610988565b50505050565b5f600d5f8481526020019081526020015f205f8373ffffffffffffffffffffffffffffffffffffffff1673ffffffffffffffffffffffffffffffffffffffff1681526020019081526020015f2054905092915050565b5f5f61191484613438565b90505f5f73ffffffffffffffffffffffffffffffffffffffff168573ffffffffffffffffffffffffffffffffffffffff16146119bf578473ffffffffffffffffffffffffffffffffffffffff1663313ce5676040518163ffffffff1660e01b8152600401602060405180830381865afa158015611993573d5f5f3e3d5ffd5b505050506040513d601f19601f820116820180604052508101906119b79190615385565b60ff166119c2565b60125b905080600a6119d191906154df565b846402540be400846119e39190615529565b6119ed9190615529565b6119f79190615597565b9250505092915050565b5f611a0b82612e8e565b9050919050565b5f600854905090565b5f5f73ffffffffffffffffffffffffffffffffffffffff168273ffffffffffffffffffffffffffffffffffffffff1603611a8c575f6040517f89c62b64000000000000000000000000000000000000000000000000000000008152600401611a839190614bca565b60405180910390fd5b60035f8373ffffffffffffffffffffffffffffffffffffffff1673ffffffffffffffffffffffffffffffffffffffff1681526020019081526020015f20549050919050565b611ad9613573565b611ae25f6135fa565b565b5f60065f9054906101000a900473ffffffffffffffffffffffffffffffffffffffff16905090565b60605f600b5f8481526020019081526020015f20805480602002602001604051908101604052809291908181526020018280548015611b9d57602002820191905f5260205f20905b815f9054906101000a900473ffffffffffffffffffffffffffffffffffffffff1673ffffffffffffffffffffffffffffffffffffffff1681526020019060010190808311611b54575b505050505090505f815167ffffffffffffffff811115611bc057611bbf614e01565b5b604051908082528060200260200182016040528015611bf357816020015b6060815260200190600190039081611bde5790505b5090505f5f90505b8251811015611e56575f838281518110611c1857611c176155c7565b5b602002602001015190505f600d5f8881526020019081526020015f205f8373ffffffffffffffffffffffffffffffffffffffff1673ffffffffffffffffffffffffffffffffffffffff1681526020019081526020015f205490505f73ffffffffffffffffffffffffffffffffffffffff168273ffffffffffffffffffffffffffffffffffffffff1603611cf357600a611cb0826136bd565b604051602001611cc192919061570a565b604051602081830303815290604052848481518110611ce357611ce26155c7565b5b6020026020010181905250611e49565b5f8273ffffffffffffffffffffffffffffffffffffffff1663313ce5676040518163ffffffff1660e01b8152600401602060405180830381865afa158015611d3d573d5f5f3e3d5ffd5b505050506040513d601f19601f82011682018060405250810190611d619190615385565b60ff1690508273ffffffffffffffffffffffffffffffffffffffff166395d89b416040518163ffffffff1660e01b81526004015f60405180830381865afa158015611dae573d5f5f3e3d5ffd5b505050506040513d5f823e3d601f19601f82011682018060405250810190611dd691906157d6565b611e0982600a611de691906154df565b670de0b6b3a764000085611dfa9190615529565b611e049190615597565b6136bd565b604051602001611e1a92919061581d565b604051602081830303815290604052858581518110611e3c57611e3b6155c7565b5b6020026020010181905250505b8260010192505050611bfb565b508092505050919050565b5f600e5f8381526020019081526020015f205f9054906101000a900460ff169050919050565b606060018054611e96906152ea565b80601f0160208091040260200160405190810160405280929190818152602001828054611ec2906152ea565b8015611f0d5780601f10611ee457610100808354040283529160200191611f0d565b820191905f5260205f20905b815481529060010190602001808311611ef057829003601f168201915b5050505050905090565b611f1f610925565b8051825114611f5a576040517fec791e3800000000000000000000000000000000000000000000000000000000815260040160405180910390fd5b5f82511480611f6957505f8151145b15611fa0576040517f365d2eeb00000000000000000000000000000000000000000000000000000000815260040160405180910390fd5b5f60085490505f3411156120ce573373ffffffffffffffffffffffffffffffffffffffff167f4f790bdb6f31edb620b5714d64c74d00dcf539e3cfe62079a1923ec68d54487434604051611ff49190614908565b60405180910390a234600d5f8381526020019081526020015f205f5f73ffffffffffffffffffffffffffffffffffffffff1673ffffffffffffffffffffffffffffffffffffffff1681526020019081526020015f205f82825461205791906148c6565b92505081905550600b5f8281526020019081526020015f205f908060018154018082558091505060019003905f5260205f20015f9091909190916101000a81548173ffffffffffffffffffffffffffffffffffffffff021916908373ffffffffffffffffffffffffffffffffffffffff1602179055505b6120d83382613171565b5f835190505f5b818110156123e9575f8482815181106120fb576120fa6155c7565b5b60200260200101510361213a576040517f365d2eeb00000000000000000000000000000000000000000000000000000000815260040160405180910390fd5b84818151811061214d5761214c6155c7565b5b602002602001015173ffffffffffffffffffffffffffffffffffffffff163373ffffffffffffffffffffffffffffffffffffffff167f79f92ad20a4e8a08eb150d4d0a5a25cb70fe2270d6498acf6403fb853e6e4ff98684815181106121b6576121b56155c7565b5b60200260200101516040516121cb9190614908565b60405180910390a38381815181106121e6576121e56155c7565b5b6020026020010151600d5f8581526020019081526020015f205f878481518110612213576122126155c7565b5b602002602001015173ffffffffffffffffffffffffffffffffffffffff1673ffffffffffffffffffffffffffffffffffffffff1681526020019081526020015f205f82825461226291906148c6565b92505081905550600b5f8481526020019081526020015f2085828151811061228d5761228c6155c7565b5b6020026020010151908060018154018082558091505060019003905f5260205f20015f9091909190916101000a81548173ffffffffffffffffffffffffffffffffffffffff021916908373ffffffffffffffffffffffffffffffffffffffff1602179055505f858281518110612306576123056155c7565b5b602002602001015173ffffffffffffffffffffffffffffffffffffffff166323b872dd333088868151811061233e5761233d6155c7565b5b60200260200101516040518463ffffffff1660e01b815260040161236493929190615249565b6020604051808303815f875af1158015612380573d5f5f3e3d5ffd5b505050506040513d601f19601f820116820180604052508101906123a49190615292565b9050806123dd576040517f2ae1638500000000000000000000000000000000000000000000000000000000815260040160405180910390fd5b816001019150506120df565b5050506123f4610988565b5050565b61240a612403612f4d565b8383613787565b5050565b5f825f73ffffffffffffffffffffffffffffffffffffffff1661243082611a01565b73ffffffffffffffffffffffffffffffffffffffff160361247d576040517fa9d62d2800000000000000000000000000000000000000000000000000000000815260040160405180910390fd5b3373ffffffffffffffffffffffffffffffffffffffff1661249c611ae4565b73ffffffffffffffffffffffffffffffffffffffff16146124e9576040517f726a4f0300000000000000000000000000000000000000000000000000000000815260040160405180910390fd5b83600e5f8281526020019081526020015f205f9054906101000a900460ff1661253e576040517f0ab36bca00000000000000000000000000000000000000000000000000000000815260040160405180910390fd5b612546610925565b600e5f8681526020019081526020015f205f6101000a81549060ff021916905561257961257286611a01565b85876138f0565b60019250612585610988565b505092915050565b612598848484611064565b6125ac6125a3612f4d565b85858585613a58565b50505050565b3373ffffffffffffffffffffffffffffffffffffffff166125d1611ae4565b73ffffffffffffffffffffffffffffffffffffffff161461261e576040517f726a4f0300000000000000000000000000000000000000000000000000000000815260040160405180910390fd5b80600e5f8281526020019081526020015f205f9054906101000a900460ff1615612674576040517fe33c265000000000000000000000000000000000000000000000000000000000815260040160405180910390fd5b6001600e5f8481526020019081526020015f205f6101000a81548160ff021916908315150217905550817f91e4352b52ad4d58d0c5168d3337057544aa1a4f61892994ab8855dae1de491360405160405180910390a25050565b60605f600b5f8481526020019081526020015f2080548060200260200160405190810160405280929190818152602001828054801561275f57602002820191905f5260205f20905b815f9054906101000a900473ffffffffffffffffffffffffffffffffffffffff1673ffffffffffffffffffffffffffffffffffffffff1681526020019060010190808311612716575b505050505090505f815190505f60605f612778876136bd565b90505f5b848110156129d2575f868281518110612798576127976155c7565b5b602002602001015190505f600d5f8b81526020019081526020015f205f8373ffffffffffffffffffffffffffffffffffffffff1673ffffffffffffffffffffffffffffffffffffffff1681526020019081526020015f205490505f6127fd8383611909565b9050808761280b91906148c6565b96505f5f73ffffffffffffffffffffffffffffffffffffffff168473ffffffffffffffffffffffffffffffffffffffff16146128b6578373ffffffffffffffffffffffffffffffffffffffff166395d89b416040518163ffffffff1660e01b81526004015f60405180830381865afa158015612889573d5f5f3e3d5ffd5b505050506040513d5f823e3d601f19601f820116820180604052508101906128b191906157d6565b612940565b600a80546128c3906152ea565b80601f01602080910402602001604051908101604052809291908181526020018280546128ef906152ea565b801561293a5780601f106129115761010080835404028352916020019161293a565b820191905f5260205f20905b81548152906001019060200180831161291d57829003601f168201915b50505050505b9050865f861161295e5760405180602001604052805f815250612995565b6040518060400160405280600181526020017f2c000000000000000000000000000000000000000000000000000000000000008152505b8261299f866136bd565b6040516020016129b2949392919061596d565b60405160208183030381529060405296508460010194505050505061277c565b50670de0b6b3a7640000836129e79190615597565b92505f6129f3846136bd565b90506129fd613c04565b612a8d83612a09610e8c565b8585865f8a5111612a285760405180602001604052805f815250612a5f565b6040518060400160405280600181526020017f2c000000000000000000000000000000000000000000000000000000000000008152505b8a6009604051602001612a79989796959493929190615c41565b604051602081830303815290604052613c41565b604051602001612a9e929190615d15565b6040516020818303038152906040529650505050505050919050565b5f60055f8473ffffffffffffffffffffffffffffffffffffffff1673ffffffffffffffffffffffffffffffffffffffff1681526020019081526020015f205f8373ffffffffffffffffffffffffffffffffffffffff1673ffffffffffffffffffffffffffffffffffffffff1681526020019081526020015f205f9054906101000a900460ff16905092915050565b612b50613573565b5f73ffffffffffffffffffffffffffffffffffffffff168173ffffffffffffffffffffffffffffffffffffffff1603612bc0575f6040517f1e4fbdf7000000000000000000000000000000000000000000000000000000008152600401612bb79190614bca565b60405180910390fd5b612bc9816135fa565b50565b5f825f73ffffffffffffffffffffffffffffffffffffffff16612bee82611a01565b73ffffffffffffffffffffffffffffffffffffffff1603612c3b576040517fa9d62d2800000000000000000000000000000000000000000000000000000000815260040160405180910390fd5b3373ffffffffffffffffffffffffffffffffffffffff16612c5a611ae4565b73ffffffffffffffffffffffffffffffffffffffff1614612ca7576040517f726a4f0300000000000000000000000000000000000000000000000000000000815260040160405180910390fd5b83600e5f8281526020019081526020015f205f9054906101000a900460ff16612cfc576040517f0ab36bca00000000000000000000000000000000000000000000000000000000815260040160405180910390fd5b612d04610925565b600e5f8681526020019081526020015f205f6101000a81549060ff0219169055612d37612d3086611a01565b85876138f0565b612d4085613196565b612d49856133b6565b60019250612d55610988565b505092915050565b5f5f73ffffffffffffffffffffffffffffffffffffffff16612d7e83611a01565b73ffffffffffffffffffffffffffffffffffffffff1603612dcb576040517fa9d62d2800000000000000000000000000000000000000000000000000000000815260040160405180910390fd5b5f612dd583613c6e565b9050670de0b6b3a76400006305f5e10082612df09190615529565b612dfa9190615597565b915050919050565b612e0c8383613dc8565b612e20612e17612f4d565b5f858585613a58565b505050565b5f7f01ffc9a7000000000000000000000000000000000000000000000000000000007bffffffffffffffffffffffffffffffffffffffffffffffffffffffff1916827bffffffffffffffffffffffffffffffffffffffffffffffffffffffff1916149050919050565b5f5f612e9983613ebb565b90505f73ffffffffffffffffffffffffffffffffffffffff168173ffffffffffffffffffffffffffffffffffffffff1603612f0b57826040517f7e273289000000000000000000000000000000000000000000000000000000008152600401612f029190614908565b60405180910390fd5b80915050919050565b5f60045f8381526020019081526020015f205f9054906101000a900473ffffffffffffffffffffffffffffffffffffffff169050919050565b5f33905090565b612f618383836001613ef4565b505050565b5f5f612f7184613ebb565b90505f73ffffffffffffffffffffffffffffffffffffffff168373ffffffffffffffffffffffffffffffffffffffff1614612fb257612fb18184866140b3565b5b5f73ffffffffffffffffffffffffffffffffffffffff168173ffffffffffffffffffffffffffffffffffffffff161461303d57612ff15f855f5f613ef4565b600160035f8373ffffffffffffffffffffffffffffffffffffffff1673ffffffffffffffffffffffffffffffffffffffff1681526020019081526020015f205f82825403925050819055505b5f73ffffffffffffffffffffffffffffffffffffffff168573ffffffffffffffffffffffffffffffffffffffff16146130bc57600160035f8773ffffffffffffffffffffffffffffffffffffffff1673ffffffffffffffffffffffffffffffffffffffff1681526020019081526020015f205f82825401925050819055505b8460025f8681526020019081526020015f205f6101000a81548173ffffffffffffffffffffffffffffffffffffffff021916908373ffffffffffffffffffffffffffffffffffffffff160217905550838573ffffffffffffffffffffffffffffffffffffffff168273ffffffffffffffffffffffffffffffffffffffff167fddf252ad1be2c89b69c2b068fc378daa952ba7f163c4a11628f55a4df523b3ef60405160405180910390a4809150509392505050565b61317b828261096b565b60085f81548092919061318d90614921565b91905055505050565b5f600b5f8381526020019081526020015f2080548060200260200160405190810160405280929190818152602001828054801561322557602002820191905f5260205f20905b815f9054906101000a900473ffffffffffffffffffffffffffffffffffffffff1673ffffffffffffffffffffffffffffffffffffffff16815260200190600101908083116131dc575b50505050509050600b5f8381526020019081526020015f205f6132489190614857565b5f815190505f5b818110156133b0575f73ffffffffffffffffffffffffffffffffffffffff16838281518110613281576132806155c7565b5b602002602001015173ffffffffffffffffffffffffffffffffffffffff16036133195761331484600d5f8781526020019081526020015f205f8685815181106132cd576132cc6155c7565b5b602002602001015173ffffffffffffffffffffffffffffffffffffffff1673ffffffffffffffffffffffffffffffffffffffff1681526020019081526020015f2054614176565b6133a5565b6133a4848483815181106133305761332f6155c7565b5b6020026020010151600d5f8881526020019081526020015f205f87868151811061335d5761335c6155c7565b5b602002602001015173ffffffffffffffffffffffffffffffffffffffff1673ffffffffffffffffffffffffffffffffffffffff1681526020019081526020015f2054614300565b5b80600101905061324f565b50505050565b5f6133c25f835f612f66565b90505f73ffffffffffffffffffffffffffffffffffffffff168173ffffffffffffffffffffffffffffffffffffffff160361343457816040517f7e27328900000000000000000000000000000000000000000000000000000000815260040161342b9190614908565b60405180910390fd5b5050565b5f5f5f73ffffffffffffffffffffffffffffffffffffffff168373ffffffffffffffffffffffffffffffffffffffff1603613495577f000000000000000000000000000000000000000000000000000000000000000090506134f5565b600c5f8473ffffffffffffffffffffffffffffffffffffffff1673ffffffffffffffffffffffffffffffffffffffff1681526020019081526020015f205f9054906101000a900473ffffffffffffffffffffffffffffffffffffffff1690505b5f8173ffffffffffffffffffffffffffffffffffffffff1663feaf968c6040518163ffffffff1660e01b815260040160a060405180830381865afa15801561353f573d5f5f3e3d5ffd5b505050506040513d601f19601f820116820180604052508101906135639190615dbe565b5050509150508092505050919050565b61357b612f4d565b73ffffffffffffffffffffffffffffffffffffffff16613599611ae4565b73ffffffffffffffffffffffffffffffffffffffff16146135f8576135bc612f4d565b6040517f118cdaa70000000000000000000000000000000000000000000000000000000081526004016135ef9190614bca565b60405180910390fd5b565b5f60065f9054906101000a900473ffffffffffffffffffffffffffffffffffffffff1690508160065f6101000a81548173ffffffffffffffffffffffffffffffffffffffff021916908373ffffffffffffffffffffffffffffffffffffffff1602179055508173ffffffffffffffffffffffffffffffffffffffff168173ffffffffffffffffffffffffffffffffffffffff167f8be0079c531659141344cd1fd0a4f28419497f9722a3daafe3b4186f6b6457e060405160405180910390a35050565b60605f60016136cb846144b7565b0190505f8167ffffffffffffffff8111156136e9576136e8614e01565b5b6040519080825280601f01601f19166020018201604052801561371b5781602001600182028036833780820191505090505b5090505f82602001820190505b60011561377c578080600190039150507f3031323334353637383961626364656600000000000000000000000000000000600a86061a8153600a85816137715761377061556a565b5b0494505f8503613728575b819350505050919050565b5f73ffffffffffffffffffffffffffffffffffffffff168273ffffffffffffffffffffffffffffffffffffffff16036137f757816040517f5b08ba180000000000000000000000000000000000000000000000000000000081526004016137ee9190614bca565b60405180910390fd5b8060055f8573ffffffffffffffffffffffffffffffffffffffff1673ffffffffffffffffffffffffffffffffffffffff1681526020019081526020015f205f8473ffffffffffffffffffffffffffffffffffffffff1673ffffffffffffffffffffffffffffffffffffffff1681526020019081526020015f205f6101000a81548160ff0219169083151502179055508173ffffffffffffffffffffffffffffffffffffffff168373ffffffffffffffffffffffffffffffffffffffff167f17307eab39ab6107e8899845ad3d59bd9653f200f220920489ca2b5937696c31836040516138e39190614a13565b60405180910390a3505050565b5f73ffffffffffffffffffffffffffffffffffffffff168273ffffffffffffffffffffffffffffffffffffffff1603613960575f6040517f64a0ae920000000000000000000000000000000000000000000000000000000081526004016139579190614bca565b60405180910390fd5b5f61396c83835f612f66565b90505f73ffffffffffffffffffffffffffffffffffffffff168173ffffffffffffffffffffffffffffffffffffffff16036139de57816040517f7e2732890000000000000000000000000000000000000000000000000000000081526004016139d59190614908565b60405180910390fd5b8373ffffffffffffffffffffffffffffffffffffffff168173ffffffffffffffffffffffffffffffffffffffff1614613a52578382826040517f64283d7b000000000000000000000000000000000000000000000000000000008152600401613a499392919061531a565b60405180910390fd5b50505050565b5f8373ffffffffffffffffffffffffffffffffffffffff163b1115613bfd578273ffffffffffffffffffffffffffffffffffffffff1663150b7a02868685856040518563ffffffff1660e01b8152600401613ab69493929190615e7d565b6020604051808303815f875af1925050508015613af157506040513d601f19601f82011682018060405250810190613aee9190615edb565b60015b613b72573d805f8114613b1f576040519150601f19603f3d011682016040523d82523d5f602084013e613b24565b606091505b505f815103613b6a57836040517f64a0ae92000000000000000000000000000000000000000000000000000000008152600401613b619190614bca565b60405180910390fd5b805181602001fd5b63150b7a0260e01b7bffffffffffffffffffffffffffffffffffffffffffffffffffffffff1916817bffffffffffffffffffffffffffffffffffffffffffffffffffffffff191614613bfb57836040517f64a0ae92000000000000000000000000000000000000000000000000000000008152600401613bf29190614bca565b60405180910390fd5b505b5050505050565b60606040518060400160405280601d81526020017f646174613a6170706c69636174696f6e2f6a736f6e3b6261736536342c000000815250905090565b6060613c6782604051806060016040528060408152602001615f65604091396001614608565b9050919050565b5f5f600b5f8481526020019081526020015f20805480602002602001604051908101604052809291908181526020018280548015613cfe57602002820191905f5260205f20905b815f9054906101000a900473ffffffffffffffffffffffffffffffffffffffff1673ffffffffffffffffffffffffffffffffffffffff1681526020019060010190808311613cb5575b505050505090505f5f90505f825190505f5b81811015613dbc57613da2848281518110613d2e57613d2d6155c7565b5b6020026020010151600d5f8981526020019081526020015f205f878581518110613d5b57613d5a6155c7565b5b602002602001015173ffffffffffffffffffffffffffffffffffffffff1673ffffffffffffffffffffffffffffffffffffffff1681526020019081526020015f2054611909565b83613dad91906148c6565b92508080600101915050613d10565b50819350505050919050565b5f73ffffffffffffffffffffffffffffffffffffffff168273ffffffffffffffffffffffffffffffffffffffff1603613e38575f6040517f64a0ae92000000000000000000000000000000000000000000000000000000008152600401613e2f9190614bca565b60405180910390fd5b5f613e4483835f612f66565b90505f73ffffffffffffffffffffffffffffffffffffffff168173ffffffffffffffffffffffffffffffffffffffff1614613eb6575f6040517f73c6ac6e000000000000000000000000000000000000000000000000000000008152600401613ead9190614bca565b60405180910390fd5b505050565b5f60025f8381526020019081526020015f205f9054906101000a900473ffffffffffffffffffffffffffffffffffffffff169050919050565b8080613f2c57505f73ffffffffffffffffffffffffffffffffffffffff168273ffffffffffffffffffffffffffffffffffffffff1614155b1561405e575f613f3b84612e8e565b90505f73ffffffffffffffffffffffffffffffffffffffff168373ffffffffffffffffffffffffffffffffffffffff1614158015613fa557508273ffffffffffffffffffffffffffffffffffffffff168173ffffffffffffffffffffffffffffffffffffffff1614155b8015613fb85750613fb68184612aba565b155b15613ffa57826040517fa9fbf51f000000000000000000000000000000000000000000000000000000008152600401613ff19190614bca565b60405180910390fd5b811561405c57838573ffffffffffffffffffffffffffffffffffffffff168273ffffffffffffffffffffffffffffffffffffffff167f8c5be1e5ebec7d5bd14f71427d1e84f3dd0314c0f7b2291e5b200ac8c7c3b92560405160405180910390a45b505b8360045f8581526020019081526020015f205f6101000a81548173ffffffffffffffffffffffffffffffffffffffff021916908373ffffffffffffffffffffffffffffffffffffffff16021790555050505050565b6140be838383614797565b614171575f73ffffffffffffffffffffffffffffffffffffffff168373ffffffffffffffffffffffffffffffffffffffff160361413257806040517f7e2732890000000000000000000000000000000000000000000000000000000081526004016141299190614908565b60405180910390fd5b81816040517f177e802f000000000000000000000000000000000000000000000000000000008152600401614168929190615f06565b60405180910390fd5b505050565b5f61418083611a01565b9050814710156141bc576040517f6e950c1200000000000000000000000000000000000000000000000000000000815260040160405180910390fd5b5f600d5f8581526020019081526020015f205f5f73ffffffffffffffffffffffffffffffffffffffff1673ffffffffffffffffffffffffffffffffffffffff1681526020019081526020015f20819055508073ffffffffffffffffffffffffffffffffffffffff167fb324a903f71474419dc3b14914940179d7f8713766efe895419449a40f1e3aa9836040516142539190614908565b60405180910390a25f8173ffffffffffffffffffffffffffffffffffffffff168360405161428090615f50565b5f6040518083038185875af1925050503d805f81146142ba576040519150601f19603f3d011682016040523d82523d5f602084013e6142bf565b606091505b50509050806142fa576040517f2ae1638500000000000000000000000000000000000000000000000000000000815260040160405180910390fd5b50505050565b805f810361433a576040517f365d2eeb00000000000000000000000000000000000000000000000000000000815260040160405180910390fd5b5f600d5f8681526020019081526020015f205f8573ffffffffffffffffffffffffffffffffffffffff1673ffffffffffffffffffffffffffffffffffffffff1681526020019081526020015f20819055508273ffffffffffffffffffffffffffffffffffffffff166143ab85611a01565b73ffffffffffffffffffffffffffffffffffffffff167fb60a549f876785734362fc35e9d49d29ab232f8b9dbfc01882fa744b1666fd9b846040516143f09190614908565b60405180910390a38273ffffffffffffffffffffffffffffffffffffffff1663a9059cbb61441d86611a01565b846040518363ffffffff1660e01b815260040161443b929190615f06565b6020604051808303815f875af1158015614457573d5f5f3e3d5ffd5b505050506040513d601f19601f8201168201806040525081019061447b9190615292565b6144b1576040517f2ae1638500000000000000000000000000000000000000000000000000000000815260040160405180910390fd5b50505050565b5f5f5f90507a184f03e93ff9f4daa797ed6e38ed64bf6a1f0100000000000000008310614513577a184f03e93ff9f4daa797ed6e38ed64bf6a1f01000000000000000083816145095761450861556a565b5b0492506040810190505b6d04ee2d6d415b85acef81000000008310614550576d04ee2d6d415b85acef810000000083816145465761454561556a565b5b0492506020810190505b662386f26fc10000831061457f57662386f26fc1000083816145755761457461556a565b5b0492506010810190505b6305f5e10083106145a8576305f5e100838161459e5761459d61556a565b5b0492506008810190505b61271083106145cd5761271083816145c3576145c261556a565b5b0492506004810190505b606483106145f057606483816145e6576145e561556a565b5b0492506002810190505b600a83106145ff576001810190505b80915050919050565b60605f8451036146285760405180602001604052805f8152509050614790565b5f826146595760036002865160046146409190615529565b61464a91906148c6565b6146549190615597565b614680565b60036002865161466991906148c6565b6146739190615597565b600461467f9190615529565b5b90505f8167ffffffffffffffff81111561469d5761469c614e01565b5b6040519080825280601f01601f1916602001820160405280156146cf5781602001600182028036833780820191505090505b509050600185016020820187885189016020810180515f82525b82841015614744576003840193508351603f8160121c168701518653600186019550603f81600c1c168701518653600186019550603f8160061c168701518653600186019550603f81168701518653600186019550506146e9565b80825289156147845760038c510660018114614767576002811461477a57614782565b603d6001870353603d6002870353614782565b603d60018703535b505b50505050505080925050505b9392505050565b5f5f73ffffffffffffffffffffffffffffffffffffffff168373ffffffffffffffffffffffffffffffffffffffff161415801561484e57508273ffffffffffffffffffffffffffffffffffffffff168473ffffffffffffffffffffffffffffffffffffffff16148061480f575061480e8484612aba565b5b8061484d57508273ffffffffffffffffffffffffffffffffffffffff1661483583612f14565b73ffffffffffffffffffffffffffffffffffffffff16145b5b90509392505050565b5080545f8255905f5260205f20908101906148729190614875565b50565b5b8082111561488c575f815f905550600101614876565b5090565b5f819050919050565b7f4e487b71000000000000000000000000000000000000000000000000000000005f52601160045260245ffd5b5f6148d082614890565b91506148db83614890565b92508282019050808211156148f3576148f2614899565b5b92915050565b61490281614890565b82525050565b5f60208201905061491b5f8301846148f9565b92915050565b5f61492b82614890565b91507fffffffffffffffffffffffffffffffffffffffffffffffffffffffffffffffff820361495d5761495c614899565b5b600182019050919050565b5f604051905090565b5f5ffd5b5f5ffd5b5f7fffffffff0000000000000000000000000000000000000000000000000000000082169050919050565b6149ad81614979565b81146149b7575f5ffd5b50565b5f813590506149c8816149a4565b92915050565b5f602082840312156149e3576149e2614971565b5b5f6149f0848285016149ba565b91505092915050565b5f8115159050919050565b614a0d816149f9565b82525050565b5f602082019050614a265f830184614a04565b92915050565b5f73ffffffffffffffffffffffffffffffffffffffff82169050919050565b5f614a5582614a2c565b9050919050565b614a6581614a4b565b8114614a6f575f5ffd5b50565b5f81359050614a8081614a5c565b92915050565b614a8f81614890565b8114614a99575f5ffd5b50565b5f81359050614aaa81614a86565b92915050565b5f5f5f60608486031215614ac757614ac6614971565b5b5f614ad486828701614a72565b9350506020614ae586828701614a9c565b9250506040614af686828701614a9c565b9150509250925092565b5f81519050919050565b5f82825260208201905092915050565b8281835e5f83830152505050565b5f601f19601f8301169050919050565b5f614b4282614b00565b614b4c8185614b0a565b9350614b5c818560208601614b1a565b614b6581614b28565b840191505092915050565b5f6020820190508181035f830152614b888184614b38565b905092915050565b5f60208284031215614ba557614ba4614971565b5b5f614bb284828501614a9c565b91505092915050565b614bc481614a4b565b82525050565b5f602082019050614bdd5f830184614bbb565b92915050565b5f5f60408385031215614bf957614bf8614971565b5b5f614c0685828601614a72565b9250506020614c1785828601614a9c565b9150509250929050565b5f5f5f60608486031215614c3857614c37614971565b5b5f614c4586828701614a72565b9350506020614c5686828701614a72565b9250506040614c6786828701614a9c565b9150509250925092565b5f5f60408385031215614c8757614c86614971565b5b5f614c9485828601614a9c565b9250506020614ca585828601614a72565b9150509250929050565b5f60208284031215614cc457614cc3614971565b5b5f614cd184828501614a72565b91505092915050565b5f81519050919050565b5f82825260208201905092915050565b5f819050602082019050919050565b5f82825260208201905092915050565b5f614d1d82614b00565b614d278185614d03565b9350614d37818560208601614b1a565b614d4081614b28565b840191505092915050565b5f614d568383614d13565b905092915050565b5f602082019050919050565b5f614d7482614cda565b614d7e8185614ce4565b935083602082028501614d9085614cf4565b805f5b85811015614dcb5784840389528151614dac8582614d4b565b9450614db783614d5e565b925060208a01995050600181019050614d93565b50829750879550505050505092915050565b5f6020820190508181035f830152614df58184614d6a565b905092915050565b5f5ffd5b7f4e487b71000000000000000000000000000000000000000000000000000000005f52604160045260245ffd5b614e3782614b28565b810181811067ffffffffffffffff82111715614e5657614e55614e01565b5b80604052505050565b5f614e68614968565b9050614e748282614e2e565b919050565b5f67ffffffffffffffff821115614e9357614e92614e01565b5b602082029050602081019050919050565b5f5ffd5b5f614eba614eb584614e79565b614e5f565b90508083825260208201905060208402830185811115614edd57614edc614ea4565b5b835b81811015614f065780614ef28882614a72565b845260208401935050602081019050614edf565b5050509392505050565b5f82601f830112614f2457614f23614dfd565b5b8135614f34848260208601614ea8565b91505092915050565b5f67ffffffffffffffff821115614f5757614f56614e01565b5b602082029050602081019050919050565b5f614f7a614f7584614f3d565b614e5f565b90508083825260208201905060208402830185811115614f9d57614f9c614ea4565b5b835b81811015614fc65780614fb28882614a9c565b845260208401935050602081019050614f9f565b5050509392505050565b5f82601f830112614fe457614fe3614dfd565b5b8135614ff4848260208601614f68565b91505092915050565b5f5f6040838503121561501357615012614971565b5b5f83013567ffffffffffffffff8111156150305761502f614975565b5b61503c85828601614f10565b925050602083013567ffffffffffffffff81111561505d5761505c614975565b5b61506985828601614fd0565b9150509250929050565b61507c816149f9565b8114615086575f5ffd5b50565b5f8135905061509781615073565b92915050565b5f5f604083850312156150b3576150b2614971565b5b5f6150c085828601614a72565b92505060206150d185828601615089565b9150509250929050565b5f5ffd5b5f67ffffffffffffffff8211156150f9576150f8614e01565b5b61510282614b28565b9050602081019050919050565b828183375f83830152505050565b5f61512f61512a846150df565b614e5f565b90508281526020810184848401111561514b5761514a6150db565b5b61515684828561510f565b509392505050565b5f82601f83011261517257615171614dfd565b5b813561518284826020860161511d565b91505092915050565b5f5f5f5f608085870312156151a3576151a2614971565b5b5f6151b087828801614a72565b94505060206151c187828801614a72565b93505060406151d287828801614a9c565b925050606085013567ffffffffffffffff8111156151f3576151f2614975565b5b6151ff8782880161515e565b91505092959194509250565b5f5f6040838503121561522157615220614971565b5b5f61522e85828601614a72565b925050602061523f85828601614a72565b9150509250929050565b5f60608201905061525c5f830186614bbb565b6152696020830185614bbb565b61527660408301846148f9565b949350505050565b5f8151905061528c81615073565b92915050565b5f602082840312156152a7576152a6614971565b5b5f6152b48482850161527e565b91505092915050565b7f4e487b71000000000000000000000000000000000000000000000000000000005f52602260045260245ffd5b5f600282049050600182168061530157607f821691505b602082108103615314576153136152bd565b5b50919050565b5f60608201905061532d5f830186614bbb565b61533a60208301856148f9565b6153476040830184614bbb565b949350505050565b5f60ff82169050919050565b6153648161534f565b811461536e575f5ffd5b50565b5f8151905061537f8161535b565b92915050565b5f6020828403121561539a57615399614971565b5b5f6153a784828501615371565b91505092915050565b5f8160011c9050919050565b5f5f8291508390505b6001851115615405578086048111156153e1576153e0614899565b5b60018516156153f05780820291505b80810290506153fe856153b0565b94506153c5565b94509492505050565b5f8261541d57600190506154d8565b8161542a575f90506154d8565b8160018114615440576002811461544a57615479565b60019150506154d8565b60ff84111561545c5761545b614899565b5b8360020a91508482111561547357615472614899565b5b506154d8565b5060208310610133831016604e8410600b84101617156154ae5782820a9050838111156154a9576154a8614899565b5b6154d8565b6154bb84848460016153bc565b925090508184048111156154d2576154d1614899565b5b81810290505b9392505050565b5f6154e982614890565b91506154f483614890565b92506155217fffffffffffffffffffffffffffffffffffffffffffffffffffffffffffffffff848461540e565b905092915050565b5f61553382614890565b915061553e83614890565b925082820261554c81614890565b9150828204841483151761556357615562614899565b5b5092915050565b7f4e487b71000000000000000000000000000000000000000000000000000000005f52601260045260245ffd5b5f6155a182614890565b91506155ac83614890565b9250826155bc576155bb61556a565b5b828204905092915050565b7f4e487b71000000000000000000000000000000000000000000000000000000005f52603260045260245ffd5b5f81905092915050565b5f819050815f5260205f209050919050565b5f815461561c816152ea565b61562681866155f4565b9450600182165f8114615640576001811461565557615687565b60ff1983168652811515820286019350615687565b61565e856155fe565b5f5b8381101561567f57815481890152600182019150602081019050615660565b838801955050505b50505092915050565b7f20000000000000000000000000000000000000000000000000000000000000005f82015250565b5f6156c46001836155f4565b91506156cf82615690565b600182019050919050565b5f6156e482614b00565b6156ee81856155f4565b93506156fe818560208601614b1a565b80840191505092915050565b5f6157158285615610565b9150615720826156b8565b915061572c82846156da565b91508190509392505050565b5f67ffffffffffffffff82111561575257615751614e01565b5b61575b82614b28565b9050602081019050919050565b5f61577a61577584615738565b614e5f565b905082815260208101848484011115615796576157956150db565b5b6157a1848285614b1a565b509392505050565b5f82601f8301126157bd576157bc614dfd565b5b81516157cd848260208601615768565b91505092915050565b5f602082840312156157eb576157ea614971565b5b5f82015167ffffffffffffffff81111561580857615807614975565b5b615814848285016157a9565b91505092915050565b5f61582882856156da565b9150615833826156b8565b915061583f82846156da565b91508190509392505050565b5f81519050919050565b5f81905092915050565b5f6158698261584b565b6158738185615855565b9350615883818560208601614b1a565b80840191505092915050565b7f7b2274726169745f74797065223a2200000000000000000000000000000000005f82015250565b5f6158c3600f836155f4565b91506158ce8261588f565b600f82019050919050565b7f222c2276616c7565223a220000000000000000000000000000000000000000005f82015250565b5f61590d600b836155f4565b9150615918826158d9565b600b82019050919050565b7f227d0000000000000000000000000000000000000000000000000000000000005f82015250565b5f6159576002836155f4565b915061596282615923565b600282019050919050565b5f615978828761585f565b9150615984828661585f565b915061598f826158b7565b915061599b828561585f565b91506159a682615901565b91506159b282846156da565b91506159bd8261594b565b915081905095945050505050565b7f7b22746f6b656e4964223a2200000000000000000000000000000000000000005f82015250565b5f6159ff600c836155f4565b9150615a0a826159cb565b600c82019050919050565b7f222c226e616d65223a22000000000000000000000000000000000000000000005f82015250565b5f615a49600a836155f4565b9150615a5482615a15565b600a82019050919050565b7f20230000000000000000000000000000000000000000000000000000000000005f82015250565b5f615a936002836155f4565b9150615a9e82615a5f565b600282019050919050565b7f20240000000000000000000000000000000000000000000000000000000000005f82015250565b5f615add6002836155f4565b9150615ae882615aa9565b600282019050919050565b7f222c226465736372697074696f6e223a22446563656e7472616c697a656420435f8201527f7570206f6620617373657473222c2261747472696275746573223a5b00000000602082015250565b5f615b4d603c836155f4565b9150615b5882615af3565b603c82019050919050565b7f7b2274726169745f74797065223a2254434c222c2276616c7565223a220000005f82015250565b5f615b97601d836155f4565b9150615ba282615b63565b601d82019050919050565b7f20555344227d00000000000000000000000000000000000000000000000000005f82015250565b5f615be16006836155f4565b9150615bec82615bad565b600682019050919050565b7f5d2c22696d616765223a220000000000000000000000000000000000000000005f82015250565b5f615c2b600b836155f4565b9150615c3682615bf7565b600b82019050919050565b5f615c4b826159f3565b9150615c57828b61585f565b9150615c6282615a3d565b9150615c6e828a6156da565b9150615c7982615a87565b9150615c85828961585f565b9150615c9082615ad1565b9150615c9c828861585f565b9150615ca782615b41565b9150615cb282615b8b565b9150615cbe828761585f565b9150615cc982615bd5565b9150615cd582866156da565b9150615ce1828561585f565b9150615cec82615c1f565b9150615cf88284615610565b9150615d038261594b565b91508190509998505050505050505050565b5f615d2082856156da565b9150615d2c82846156da565b91508190509392505050565b5f69ffffffffffffffffffff82169050919050565b615d5681615d38565b8114615d60575f5ffd5b50565b5f81519050615d7181615d4d565b92915050565b5f819050919050565b615d8981615d77565b8114615d93575f5ffd5b50565b5f81519050615da481615d80565b92915050565b5f81519050615db881614a86565b92915050565b5f5f5f5f5f60a08688031215615dd757615dd6614971565b5b5f615de488828901615d63565b9550506020615df588828901615d96565b9450506040615e0688828901615daa565b9350506060615e1788828901615daa565b9250506080615e2888828901615d63565b9150509295509295909350565b5f82825260208201905092915050565b5f615e4f8261584b565b615e598185615e35565b9350615e69818560208601614b1a565b615e7281614b28565b840191505092915050565b5f608082019050615e905f830187614bbb565b615e9d6020830186614bbb565b615eaa60408301856148f9565b8181036060830152615ebc8184615e45565b905095945050505050565b5f81519050615ed5816149a4565b92915050565b5f60208284031215615ef057615eef614971565b5b5f615efd84828501615ec7565b91505092915050565b5f604082019050615f195f830185614bbb565b615f2660208301846148f9565b9392505050565b50565b5f615f3b5f83615855565b9150615f4682615f2d565b5f82019050919050565b5f615f5a82615f30565b915081905091905056fe4142434445464748494a4b4c4d4e4f505152535455565758595a6162636465666768696a6b6c6d6e6f707172737475767778797a303132333435363738392b2fa2646970667358221220bcb872c7220f349a88e12678fda06f3eec60a108797dc44ab0c6e33ea01add0a64736f6c634300081d0033","linkReferences":{}},"methodIdentifiers":{"addNativeCollateralToExistingCup(uint256)":"427a7540","addTokenCollateralToExistingCup(address,uint256,uint256)":"034f7673","approve(address,uint256)":"095ea7b3","balanceOf(address)":"70a08231","burn(uint256)":"42966c68","depositMultipleAssetsAndMint(address[],uint256[])":"9ec99494","depositSingleAssetAndMint(address,uint256)":"3e9bee72","getApproved(uint256)":"081812fc","getAssetValueInUsd(address,uint256)":"5637c1aa","getAssetsInfo(uint256)":"900472e5","getCollateralBalance(uint256,address)":"4e300684","getIsListedForSale(uint256)":"91041959","getTokenCounter()":"6e02007d","getTokenPriceInUsd(uint256)":"fdcd8d3a","isApprovedForAll(address,address)":"e985e9c5","listForSale(uint256)":"c7857fb5","name()":"06fdde03","owner()":"8da5cb5b","ownerOf(uint256)":"6352211e","removeFromSale(uint256)":"1361a3b6","renounceOwnership()":"715018a6","safeTransferFrom(address,address,uint256)":"42842e0e","safeTransferFrom(address,address,uint256,bytes)":"b88d4fde","setApprovalForAll(address,bool)":"a22cb465","supportsInterface(bytes4)":"01ffc9a7","symbol()":"95d89b41","tokenURI(uint256)":"c87b56dd","transfer(uint256,address)":"b7760c8f","transferAndBurn(uint256,address)":"fcb75eae","transferFrom(address,address,uint256)":"23b872dd","transferOwnership(address)":"f2fde38b"},"id":65}