{"abi":[{"type":"constructor","inputs":[{"name":"initialSupply","type":"uint256","internalType":"uint256"}],"stateMutability":"nonpayable"},{"type":"function","name":"allowance","inputs":[{"name":"owner","type":"address","internalType":"address"},{"name":"spender","type":"address","internalType":"address"}],"outputs":[{"name":"","type":"uint256","internalType":"uint256"}],"stateMutability":"view"},{"type":"function","name":"approve","inputs":[{"name":"spender","type":"address","internalType":"address"},{"name":"value","type":"uint256","internalType":"uint256"}],"outputs":[{"name":"","type":"bool","internalType":"bool"}],"stateMutability":"nonpayable"},{"type":"function","name":"balanceOf","inputs":[{"name":"account","type":"address","internalType":"address"}],"outputs":[{"name":"","type":"uint256","internalType":"uint256"}],"stateMutability":"view"},{"type":"function","name":"decimals","inputs":[],"outputs":[{"name":"","type":"uint8","internalType":"uint8"}],"stateMutability":"view"},{"type":"function","name":"name","inputs":[],"outputs":[{"name":"","type":"string","internalType":"string"}],"stateMutability":"view"},{"type":"function","name":"setShouldFailTransfer","inputs":[{"name":"_shouldFail","type":"bool","internalType":"bool"}],"outputs":[],"stateMutability":"nonpayable"},{"type":"function","name":"shouldFailTransfer","inputs":[],"outputs":[{"name":"","type":"bool","internalType":"bool"}],"stateMutability":"view"},{"type":"function","name":"symbol","inputs":[],"outputs":[{"name":"","type":"string","internalType":"string"}],"stateMutability":"view"},{"type":"function","name":"totalSupply","inputs":[],"outputs":[{"name":"","type":"uint256","internalType":"uint256"}],"stateMutability":"view"},{"type":"function","name":"transfer","inputs":[{"name":"to","type":"address","internalType":"address"},{"name":"amount","type":"uint256","internalType":"uint256"}],"outputs":[{"name":"","type":"bool","internalType":"bool"}],"stateMutability":"nonpayable"},{"type":"function","name":"transferFrom","inputs":[{"name":"from","type":"address","internalType":"address"},{"name":"to","type":"address","internalType":"address"},{"name":"amount","type":"uint256","internalType":"uint256"}],"outputs":[{"name":"","type":"bool","internalType":"bool"}],"stateMutability":"nonpayable"},{"type":"event","name":"Approval","inputs":[{"name":"owner","type":"address","indexed":true,"internalType":"address"},{"name":"spender","type":"address","indexed":true,"internalType":"address"},{"name":"value","type":"uint256","indexed":false,"internalType":"uint256"}],"anonymous":false},{"type":"event","name":"Transfer","inputs":[{"name":"from","type":"address","indexed":true,"internalType":"address"},{"name":"to","type":"address","indexed":true,"internalType":"address"},{"name":"value","type":"uint256","indexed":false,"internalType":"uint256"}],"anonymous":false},{"type":"error","name":"ERC20InsufficientAllowance","inputs":[{"name":"spender","type":"address","internalType":"address"},{"name":"allowance","type":"uint256","internalType":"uint256"},{"name":"needed","type":"uint256","internalType":"uint256"}]},{"type":"error","name":"ERC20InsufficientBalance","inputs":[{"name":"sender","type":"address","internalType":"address"},{"name":"balance","type":"uint256","internalType":"uint256"},{"name":"needed","type":"uint256","internalType":"uint256"}]},{"type":"error","name":"ERC20InvalidApprover","inputs":[{"name":"approver","type":"address","internalType":"address"}]},{"type":"error","name":"ERC20InvalidReceiver","inputs":[{"name":"receiver","type":"address","internalType":"address"}]},{"type":"error","name":"ERC20InvalidSender","inputs":[{"name":"sender","type":"address","internalType":"address"}]},{"type":"error","name":"ERC20InvalidSpender","inputs":[{"name":"spender","type":"address","internalType":"address"}]}],"bytecode":{"object":"0x60806040525f60055f6101000a81548160ff021916908315150217905550348015610028575f5ffd5b5060405161172a38038061172a833981810160405281019061004a91906103c3565b6040518060400160405280601081526020017f4661696c696e674d6f636b546f6b656e000000000000000000000000000000008152506040518060400160405280600381526020017f464d54000000000000000000000000000000000000000000000000000000000081525081600390816100c59190610622565b5080600490816100d59190610622565b5050506100e833826100ee60201b60201c565b50610806565b5f73ffffffffffffffffffffffffffffffffffffffff168273ffffffffffffffffffffffffffffffffffffffff160361015e575f6040517fec442f050000000000000000000000000000000000000000000000000000000081526004016101559190610730565b60405180910390fd5b61016f5f838361017360201b60201c565b5050565b5f73ffffffffffffffffffffffffffffffffffffffff168373ffffffffffffffffffffffffffffffffffffffff16036101c3578060025f8282546101b79190610776565b92505081905550610291565b5f5f5f8573ffffffffffffffffffffffffffffffffffffffff1673ffffffffffffffffffffffffffffffffffffffff1681526020019081526020015f205490508181101561024c578381836040517fe450d38c000000000000000000000000000000000000000000000000000000008152600401610243939291906107b8565b60405180910390fd5b8181035f5f8673ffffffffffffffffffffffffffffffffffffffff1673ffffffffffffffffffffffffffffffffffffffff1681526020019081526020015f2081905550505b5f73ffffffffffffffffffffffffffffffffffffffff168273ffffffffffffffffffffffffffffffffffffffff16036102d8578060025f8282540392505081905550610322565b805f5f8473ffffffffffffffffffffffffffffffffffffffff1673ffffffffffffffffffffffffffffffffffffffff1681526020019081526020015f205f82825401925050819055505b8173ffffffffffffffffffffffffffffffffffffffff168373ffffffffffffffffffffffffffffffffffffffff167fddf252ad1be2c89b69c2b068fc378daa952ba7f163c4a11628f55a4df523b3ef8360405161037f91906107ed565b60405180910390a3505050565b5f5ffd5b5f819050919050565b6103a281610390565b81146103ac575f5ffd5b50565b5f815190506103bd81610399565b92915050565b5f602082840312156103d8576103d761038c565b5b5f6103e5848285016103af565b91505092915050565b5f81519050919050565b7f4e487b71000000000000000000000000000000000000000000000000000000005f52604160045260245ffd5b7f4e487b71000000000000000000000000000000000000000000000000000000005f52602260045260245ffd5b5f600282049050600182168061046957607f821691505b60208210810361047c5761047b610425565b5b50919050565b5f819050815f5260205f209050919050565b5f6020601f8301049050919050565b5f82821b905092915050565b5f600883026104de7fffffffffffffffffffffffffffffffffffffffffffffffffffffffffffffffff826104a3565b6104e886836104a3565b95508019841693508086168417925050509392505050565b5f819050919050565b5f61052361051e61051984610390565b610500565b610390565b9050919050565b5f819050919050565b61053c83610509565b6105506105488261052a565b8484546104af565b825550505050565b5f5f905090565b610567610558565b610572818484610533565b505050565b5b818110156105955761058a5f8261055f565b600181019050610578565b5050565b601f8211156105da576105ab81610482565b6105b484610494565b810160208510156105c3578190505b6105d76105cf85610494565b830182610577565b50505b505050565b5f82821c905092915050565b5f6105fa5f19846008026105df565b1980831691505092915050565b5f61061283836105eb565b9150826002028217905092915050565b61062b826103ee565b67ffffffffffffffff811115610644576106436103f8565b5b61064e8254610452565b610659828285610599565b5f60209050601f83116001811461068a575f8415610678578287015190505b6106828582610607565b8655506106e9565b601f19841661069886610482565b5f5b828110156106bf5784890151825560018201915060208501945060208101905061069a565b868310156106dc57848901516106d8601f8916826105eb565b8355505b6001600288020188555050505b505050505050565b5f73ffffffffffffffffffffffffffffffffffffffff82169050919050565b5f61071a826106f1565b9050919050565b61072a81610710565b82525050565b5f6020820190506107435f830184610721565b92915050565b7f4e487b71000000000000000000000000000000000000000000000000000000005f52601160045260245ffd5b5f61078082610390565b915061078b83610390565b92508282019050808211156107a3576107a2610749565b5b92915050565b6107b281610390565b82525050565b5f6060820190506107cb5f830186610721565b6107d860208301856107a9565b6107e560408301846107a9565b949350505050565b5f6020820190506108005f8301846107a9565b92915050565b610f17806108135f395ff3fe608060405234801561000f575f5ffd5b50600436106100a7575f3560e01c8063382021c01161006f578063382021c01461016557806370a082311461018357806382be56bb146101b357806395d89b41146101cf578063a9059cbb146101ed578063dd62ed3e1461021d576100a7565b806306fdde03146100ab578063095ea7b3146100c957806318160ddd146100f957806323b872dd14610117578063313ce56714610147575b5f5ffd5b6100b361024d565b6040516100c09190610b3b565b60405180910390f35b6100e360048036038101906100de9190610bec565b6102dd565b6040516100f09190610c44565b60405180910390f35b6101016102ff565b60405161010e9190610c6c565b60405180910390f35b610131600480360381019061012c9190610c85565b610308565b60405161013e9190610c44565b60405180910390f35b61014f61033a565b60405161015c9190610cf0565b60405180910390f35b61016d610342565b60405161017a9190610c44565b60405180910390f35b61019d60048036038101906101989190610d09565b610354565b6040516101aa9190610c6c565b60405180910390f35b6101cd60048036038101906101c89190610d5e565b610399565b005b6101d76103b5565b6040516101e49190610b3b565b60405180910390f35b61020760048036038101906102029190610bec565b610445565b6040516102149190610c44565b60405180910390f35b61023760048036038101906102329190610d89565b610475565b6040516102449190610c6c565b60405180910390f35b60606003805461025c90610df4565b80601f016020809104026020016040519081016040528092919081815260200182805461028890610df4565b80156102d35780601f106102aa576101008083540402835291602001916102d3565b820191905f5260205f20905b8154815290600101906020018083116102b657829003601f168201915b5050505050905090565b5f5f6102e76104f7565b90506102f48185856104fe565b600191505092915050565b5f600254905090565b5f60055f9054906101000a900460ff1615610325575f9050610333565b610330848484610510565b90505b9392505050565b5f6012905090565b60055f9054906101000a900460ff1681565b5f5f5f8373ffffffffffffffffffffffffffffffffffffffff1673ffffffffffffffffffffffffffffffffffffffff1681526020019081526020015f20549050919050565b8060055f6101000a81548160ff02191690831515021790555050565b6060600480546103c490610df4565b80601f01602080910402602001604051908101604052809291908181526020018280546103f090610df4565b801561043b5780601f106104125761010080835404028352916020019161043b565b820191905f5260205f20905b81548152906001019060200180831161041e57829003601f168201915b5050505050905090565b5f60055f9054906101000a900460ff1615610462575f905061046f565b61046c838361053e565b90505b92915050565b5f60015f8473ffffffffffffffffffffffffffffffffffffffff1673ffffffffffffffffffffffffffffffffffffffff1681526020019081526020015f205f8373ffffffffffffffffffffffffffffffffffffffff1673ffffffffffffffffffffffffffffffffffffffff1681526020019081526020015f2054905092915050565b5f33905090565b61050b8383836001610560565b505050565b5f5f61051a6104f7565b905061052785828561072f565b6105328585856107c2565b60019150509392505050565b5f5f6105486104f7565b90506105558185856107c2565b600191505092915050565b5f73ffffffffffffffffffffffffffffffffffffffff168473ffffffffffffffffffffffffffffffffffffffff16036105d0575f6040517fe602df050000000000000000000000000000000000000000000000000000000081526004016105c79190610e33565b60405180910390fd5b5f73ffffffffffffffffffffffffffffffffffffffff168373ffffffffffffffffffffffffffffffffffffffff1603610640575f6040517f94280d620000000000000000000000000000000000000000000000000000000081526004016106379190610e33565b60405180910390fd5b8160015f8673ffffffffffffffffffffffffffffffffffffffff1673ffffffffffffffffffffffffffffffffffffffff1681526020019081526020015f205f8573ffffffffffffffffffffffffffffffffffffffff1673ffffffffffffffffffffffffffffffffffffffff1681526020019081526020015f20819055508015610729578273ffffffffffffffffffffffffffffffffffffffff168473ffffffffffffffffffffffffffffffffffffffff167f8c5be1e5ebec7d5bd14f71427d1e84f3dd0314c0f7b2291e5b200ac8c7c3b925846040516107209190610c6c565b60405180910390a35b50505050565b5f61073a8484610475565b90507fffffffffffffffffffffffffffffffffffffffffffffffffffffffffffffffff8110156107bc57818110156107ad578281836040517ffb8f41b20000000000000000000000000000000000000000000000000000000081526004016107a493929190610e4c565b60405180910390fd5b6107bb84848484035f610560565b5b50505050565b5f73ffffffffffffffffffffffffffffffffffffffff168373ffffffffffffffffffffffffffffffffffffffff1603610832575f6040517f96c6fd1e0000000000000000000000000000000000000000000000000000000081526004016108299190610e33565b60405180910390fd5b5f73ffffffffffffffffffffffffffffffffffffffff168273ffffffffffffffffffffffffffffffffffffffff16036108a2575f6040517fec442f050000000000000000000000000000000000000000000000000000000081526004016108999190610e33565b60405180910390fd5b6108ad8383836108b2565b505050565b5f73ffffffffffffffffffffffffffffffffffffffff168373ffffffffffffffffffffffffffffffffffffffff1603610902578060025f8282546108f69190610eae565b925050819055506109d0565b5f5f5f8573ffffffffffffffffffffffffffffffffffffffff1673ffffffffffffffffffffffffffffffffffffffff1681526020019081526020015f205490508181101561098b578381836040517fe450d38c00000000000000000000000000000000000000000000000000000000815260040161098293929190610e4c565b60405180910390fd5b8181035f5f8673ffffffffffffffffffffffffffffffffffffffff1673ffffffffffffffffffffffffffffffffffffffff1681526020019081526020015f2081905550505b5f73ffffffffffffffffffffffffffffffffffffffff168273ffffffffffffffffffffffffffffffffffffffff1603610a17578060025f8282540392505081905550610a61565b805f5f8473ffffffffffffffffffffffffffffffffffffffff1673ffffffffffffffffffffffffffffffffffffffff1681526020019081526020015f205f82825401925050819055505b8173ffffffffffffffffffffffffffffffffffffffff168373ffffffffffffffffffffffffffffffffffffffff167fddf252ad1be2c89b69c2b068fc378daa952ba7f163c4a11628f55a4df523b3ef83604051610abe9190610c6c565b60405180910390a3505050565b5f81519050919050565b5f82825260208201905092915050565b8281835e5f83830152505050565b5f601f19601f8301169050919050565b5f610b0d82610acb565b610b178185610ad5565b9350610b27818560208601610ae5565b610b3081610af3565b840191505092915050565b5f6020820190508181035f830152610b538184610b03565b905092915050565b5f5ffd5b5f73ffffffffffffffffffffffffffffffffffffffff82169050919050565b5f610b8882610b5f565b9050919050565b610b9881610b7e565b8114610ba2575f5ffd5b50565b5f81359050610bb381610b8f565b92915050565b5f819050919050565b610bcb81610bb9565b8114610bd5575f5ffd5b50565b5f81359050610be681610bc2565b92915050565b5f5f60408385031215610c0257610c01610b5b565b5b5f610c0f85828601610ba5565b9250506020610c2085828601610bd8565b9150509250929050565b5f8115159050919050565b610c3e81610c2a565b82525050565b5f602082019050610c575f830184610c35565b92915050565b610c6681610bb9565b82525050565b5f602082019050610c7f5f830184610c5d565b92915050565b5f5f5f60608486031215610c9c57610c9b610b5b565b5b5f610ca986828701610ba5565b9350506020610cba86828701610ba5565b9250506040610ccb86828701610bd8565b9150509250925092565b5f60ff82169050919050565b610cea81610cd5565b82525050565b5f602082019050610d035f830184610ce1565b92915050565b5f60208284031215610d1e57610d1d610b5b565b5b5f610d2b84828501610ba5565b91505092915050565b610d3d81610c2a565b8114610d47575f5ffd5b50565b5f81359050610d5881610d34565b92915050565b5f60208284031215610d7357610d72610b5b565b5b5f610d8084828501610d4a565b91505092915050565b5f5f60408385031215610d9f57610d9e610b5b565b5b5f610dac85828601610ba5565b9250506020610dbd85828601610ba5565b9150509250929050565b7f4e487b71000000000000000000000000000000000000000000000000000000005f52602260045260245ffd5b5f6002820490506001821680610e0b57607f821691505b602082108103610e1e57610e1d610dc7565b5b50919050565b610e2d81610b7e565b82525050565b5f602082019050610e465f830184610e24565b92915050565b5f606082019050610e5f5f830186610e24565b610e6c6020830185610c5d565b610e796040830184610c5d565b949350505050565b7f4e487b71000000000000000000000000000000000000000000000000000000005f52601160045260245ffd5b5f610eb882610bb9565b9150610ec383610bb9565b9250828201905080821115610edb57610eda610e81565b5b9291505056fea264697066735822122007aea6345df20a91c75c8c0e19f85975e729a91606cc9d8e7112597758c76db364736f6c634300081d0033","linkReferences":{}},"methodIdentifiers":{"allowance(address,address)":"dd62ed3e","approve(address,uint256)":"095ea7b3","balanceOf(address)":"70a08231","decimals()":"313ce567","name()":"06fdde03","setShouldFailTransfer(bool)":"82be56bb","shouldFailTransfer()":"382021c0","symbol()":"95d89b41","totalSupply()":"18160ddd","transfer(address,uint256)":"a9059cbb","transferFrom(address,address,uint256)":"23b872dd"},"id":71}